:020000040000FA
:06000000D6EF3EF01200F5
:06080000D6EF3EF01200ED
:060808000CEF37F01200B6
:060818000CEF37F01200A6
:06082A000100DA7D000070
:0808300060000000320000002E
:08083800D9CFE6FFE1CFD9FFA3
:10084000FE0EDBCFE6FF040EE66EEEEC37F0E5526F
:10085000E552010EE66EE2EC3EF0E552E552E7CFDE
:10086000D9FF1200D9CFE6FFE1CFD9FFFB0EDBCFD6
:1008700014F0FC0EDBCF15F0FD0EDBCF16F0FE0EF4
:10088000DBCF17F01450E66E080EE66EEEEC37F094
:10089000E552E552D950FB0FE96EFF0EDA20EA6E01
:1008A000080EE76ED890030EEB32020EEB32010E0B
:1008B000EB32EF32E706F6E1FB0EDBCF14F0FC0E75
:1008C000DBCF15F0FD0EDBCF16F0FE0EDBCF17F001
:1008D0001450E66E080EE66EEEEC37F0E552E55287
:1008E000D950FB0FE96EFF0EDA20EA6E080EE76EB4
:1008F000D890030EEB32020EEB32010EEB32EF32E8
:10090000E706F6E1FB0EDBCF14F0FC0EDBCF15F0B3
:10091000FD0EDBCF16F0FE0EDBCF17F01450E66EA7
:10092000080EE66EEEEC37F0E552E552010EE66E8B
:10093000E2EC3EF0E552E552E7CFD9FF1200D9CF05
:10094000E6FFE1CFD9FF040EE126D0EC37F0080E28
:10095000E66E62EC38F0E552080EE66E62EC38F0B6
:10096000E552E76E020EE7CFDBFF080EE66E62ECA3
:1009700038F0E552E76E030EE7CFDBFFDB50166E73
:10098000176A176E166A020EDB5000011624146EE9
:10099000000E1720156E14C0DEFFDD6EDFEC37F0A1
:1009A000010EE66EE2EC3EF0E552DECF14F0DDCF54
:1009B00015F014C0F3FF15C0F4FFF56E040EE15CF2
:1009C00002E2E16AE552E16EF550E552E7CFD9FF68
:1009D0001200D9CFE6FFE1CFD9FFE66A2DDFE5525D
:1009E000D950FB0FE96EFF0EDA20EA6EEECFE6FF7C
:1009F000EECFE6FFEECFE6FFEFCFE6FF33DFE552C7
:100A0000E552E552E552E552E7CFD9FF1200E66A1A
:100A1000E66AE66AE66ADDDFE552E552E552E5524E
:100A20001200E66A010EE66E040EE66EE66AD1DF9B
:100A3000E552E552E552E5521200B60EE66E1B0E87
:100A4000E66EBA0EE66EE66AC4DFE552E552E5529E
:100A5000E5521200B60EE66E1B0EE66EBB0EE66E9B
:100A6000E66AB7DFE552E552E552E5521200D9CF0A
:100A7000E6FFE1CFD9FFFE0EDBCF14F0156A166A50
:100A8000148A3C0E1512880E1612176A14C0E6FF5F
:100A900015C0E6FF16C0E6FF17C0E6FF9ADFE55275
:100AA000E552E552E552E552E7CFD9FF1200580E64
:100AB000E66E050EE66E200EE66EE66A8ADFE55209
:100AC000E552E552E552380EE66E3B0EE66E880EB4
:100AD000E66EE66A7EDFE552E552E552E552A90E82
:100AE000E66E0A0EE66E200EE66EE66A72DFE552EC
:100AF000E552E552E552390EE66E3B0EE66E880E83
:100B0000E66EE66A66DFE552E552E552E55212000E
:100B1000D9CFE6FFE1CFD9FF020EE126010EE66E46
:100B20008BDEE5520CDFF3CFDEFFF4CFDDFFDECF4F
:100B300014F0DDCF15F014C0F3FF15C0F4FFF56E0F
:100B4000020EE15C02E2E16AE552E16EF550E55227
:100B5000E7CFD9FF12005BDF5ADF63DF07EF05F055
:100B6000D9CFE6FFE1CFD9FF040EE126CAEC38F079
:100B7000F2DFF00EE66E0F0EE66E200EE66EE66A0F
:100B800028DFE552E552E552E552900EE66E010E81
:100B9000E66E880EE66EE66A1CDFE552E552E55227
:100BA000E552E66A030EE66EEB0EE66EE66A11DFCC
:100BB000E552E552E552E552800EE66E030EE66E12
:100BC000EB0EE66EE66A05DFE552E552E552E552C8
:100BD000B60EE66E0B0EE66EBA0EE66EE66AF9DE4D
:100BE000E552E552E552E55212DF11DFE66A3FDFDA
:100BF000E5520DDF8DDFF3CFDEFFF4CFDDFF07DF42
:100C000010DF05DFB60EE66E0B0EE66EBA0EE66E70
:100C1000E66ADFDEE552E552E552E552F8DEF7DE40
:100C2000E66A25DFE552F3DE73DF020EF3CFDBFF6A
:100C3000030EF4CFDBFFEBDEF4DEE9DE4AEC39F045
:100C4000DECF14F0DDCF15F014C0F3FF15C0F4FFB4
:100C5000F56E040EE15C02E2E16AE552E16EF550E8
:100C6000E552E7CFD9FF1200D9CFE6FFE1CFD9FF98
:100C7000130EE126030EF36E080EF3CFDBFF010126
:100C8000510E016F026B036B01013F0E006F4C0EA2
:100C9000E96E010EEA6E01014851EE5C4951EE58D1
:100CA0004A51EE584B51EE5803E20001606B7ED280
:100CB0000001605101E08CD0CAEC38F00001010E57
:100CC000606F166A176A48C1DFFF49C1DBFF020E79
:100CD00016C0DBFF030E17C0DBFFD9CFE9FFDACF69
:100CE000EAFFEECF14F0EECF15F0EECF16F0EFCF17
:100CF00017F0040E1F0B07E0D89014361536163681
:100D00001736E806F9E14AC116F0146A156A176A3F
:100D1000040E14C0DBFF050E15C0DBFF060E4AC132
:100D2000DBFF070E17C0DBFFD950040FE96EDACFE7
:100D3000EAFF0C0EE76ED890030EEB32020EEB3298
:100D4000010EEB32EF32E706F6E105DF040EDBCFF2
:100D500014F0050EDBCF15F0060EDBCF16F0070EF4
:100D6000DBCF17F0168A14C0E6FF15C0E6FF16C0E9
:100D7000E6FF17C0E6FF2DDEE552E552E552E552EB
:100D8000900EE66E010EE66E880EE66EE66A21DED5
:100D9000E552E552E552E552D9CFE9FFDACFEAFF55
:100DA000EECF14F0EECF15F0EECF16F0EFCF17F038
:100DB000060E1412168A14C0E6FF15C0E6FF16C010
:100DC000E6FF17C0E6FF05DEE552E552E552E552C3
:100DD000480EE96E010EEA6EEE5001014C5D146E94
:100DE000EE504D59156EEE504E59166EEE504F594D
:100DF000176E142A000E152216221722030E096EF2
:100E00000A6A0B6A0C6A14C004F015C005F016C01B
:100E100006F017C007F000EC3EF000C014F001C06F
:100E200015F002C016F003C017F0010E1F0B07E00B
:100E3000D8901436153616361736E806F9E1090E3D
:100E400014C0DBFF0A0E15C0DBFF0B0E16C0DBFF64
:100E50000C0E17C0DBFF090EDBCF05F00A0EDBCF4F
:100E600006F00B0EDBCF07F00C0EDBCF08F00834DA
:100E7000000E081809E6D8803C0E0554000E0654F2
:100E8000000E0754000E08540CE23C0EF36E090EDF
:100E9000F3CFDBFF0A0EDB6A0B0EDB6A0C0EDB6A9C
:100EA00002D00001606B090EDBCF02F1030EF36E7E
:100EB000080EF3CFDBFF080EDBCF14F0156A166ABD
:100EC000176A090EDBCF18F00A0EDBCF19F00B0EF4
:100ED000DBCF1AF00C0EDBCF1BF0030E1826000E32
:100EE00019221A221B220C0E185E000E195A1A5AC9
:100EF0001B5A1B501718E8AE02D0173408D01450F4
:100F0000185C1550195816501A5817501B5801E202
:100F100043D1800EE66E030EE66EEB0EE66EE66AD9
:100F200058DDE552E552E552E552960EE66E1B0E8F
:100F3000E66EBA0EE66EE66A4CDDE552E552E55223
:100F4000E55265DD64DDB60EE66EDB0EE66EBA0ECA
:100F5000E66EE66A3EDDE552E552E552E55257DDC2
:100F600056DDD60EE66EDB0EE66EBA0EE66EE66A6D
:100F700030DDE552E552E552E55249DD48DD5DDD03
:100F800046DD45DD960EE66E1B0EE66EBA0EE66E8B
:100F9000E66A1FDDE552E552E552E55238DD37DD00
:100FA000B60EE66EDB0EE66EBA0EE66EE66A11DD92
:100FB000E552E552E552E5522ADD29DDD60EE66E10
:100FC000DB0EE66EBA0EE66EE66A03DDE552E5522A
:100FD000E552E5521CDD1BDD30DD19DD18DDE66A6A
:100FE00046DDE55214DD94DD0D0EF3CFDBFF0E0E72
:100FF000F4CFDBFF0CDD010EE66E39DDE55207DDD7
:1010000087DD0F0EF3CFDBFF100EF4CFDBFFFFDC2D
:10101000020EE66E2CDDE552FADC7ADD110EF3CF1E
:10102000DBFF120EF4CFDBFFF2DC080EDB50EA6AC6
:10103000010FE96E010EEA220D0EDBCFEFFF080E65
:10104000DB2ADB50EA6A010FE96E010EEA220E0E7E
:10105000DBCFEFFF080EDB2ADB50EA6A010FE96EF7
:10106000010EEA220F0EDBCFEFFF080EDB2ADB506A
:10107000EA6A010FE96E010EEA22110EDBCFEFFFE3
:10108000080EDB2ADB50EA6A010FE96E010EEA2244
:10109000120EDBCFEFFF080EDB2ADB50EA6A010FEE
:1010A000E96E010EEA22100EDBCFEFFF080EDB2AFD
:1010B000030EE66EDCDCE552AADC2ADD0D0EF3CF72
:1010C000DBFF0E0EF4CFDBFFA2DC040EE66ECFDCFE
:1010D000E5529DDC1DDD0F0EF3CFDBFF100EF4CFCC
:1010E000DBFF95DC050EE66EC2DCE55290DC10DD20
:1010F000110EF3CFDBFF120EF4CFDBFF88DC080EFE
:10110000DB50EA6A010FE96E010EEA220D0EDBCF19
:10111000EFFF080EDB2ADB50EA6A010FE96E010ED1
:10112000EA220E0EDBCFEFFF080EDB2ADB50EA6A65
:10113000010FE96E010EEA220F0EDBCFEFFF080E62
:10114000DB2ADB50EA6A010FE96E010EEA22110E7A
:10115000DBCFEFFF080EDB2ADB50EA6A010FE96EF6
:10116000010EEA22120EDBCFEFFF080EDB2ADB5066
:10117000EA6A010FE96E010EEA22100EDBCFEFFFE3
:10118000080EDB2A4EDC43DC040E01014827000E6A
:1011900049234A234B238FD60101010E036F00011F
:1011A000605104E10101036B4AEC39F0F56E130E56
:1011B000E15C02E2E16AE552E16EF550E552E7CF0B
:1011C000D9FF1200D9CFE6FFE1CFD9FF0B0EE12600
:1011D000030EDF6E0101026B036B01013F0E006F16
:1011E0004C0EE96E010EEA6E01014851EE5C495168
:1011F000EE584A51EE584B51EE5803E20001616B34
:10120000A7D10001615160E148C114F049C115F056
:10121000166A176A050E48C1DBFF060E49C1DBFFDF
:10122000070E16C0DBFF080E17C0DBFFD950050FF5
:10123000E96EDACFEAFF040EE76ED890EF36010EC2
:10124000EB36020EEB36030EEB36E706F6E1CAECA0
:1012500038F00001010E616F7EDCF00EE66E070EC5
:10126000E66E200EE66EE66AE9EC04F0E552E55221
:10127000E552E552900EE66E010EE66E880EE66EC1
:10128000E66AE9EC04F0E552E552E552E552050E56
:10129000DBCF14F0060EDBCF15F0070EDBCF16F018
:1012A000080EDBCF17F0060E1412168A14C0E6FFE4
:1012B00015C0E6FF16C0E6FF17C0E6FFE9EC04F034
:1012C000E552E552E552E552480EE96E010EEA6E2E
:1012D000EE5001014C5D146EEE504D59156EEE50FE
:1012E0004E59166EEE504F59176E142A000E1522E5
:1012F00016221722010E14C0DBFF020E15C0DBFF01
:10130000030E16C0DBFF040E17C0DBFF010EDBCFA0
:1013100005F0020EDBCF06F0030EDBCF07F0040E64
:10132000DBCF08F00834000E081809E6D880380E24
:101330000554000E0654000E0754000E08540CE22B
:10134000380EF36E010EF3CFDBFF020EDB6A030EE5
:10135000DB6A040EDB6A02D00001616B010EDBCF99
:1013600002F1030EDF6EDFCF14F0156A166A176AFA
:10137000010EDBCF18F0020EDBCF19F0030EDBCF2E
:101380001AF0040EDBCF1BF0050E185E000E195A82
:101390001A5A1B5A1B501718E8AE02D0173408D03F
:1013A0001450185C1550195816501A5817501B58DD
:1013B00001E2C4D0800EE66E030EE66EEB0EE66E22
:1013C000E66AE9EC04F0E552E552E552E5521DEC1F
:1013D00005F007EC05F007EC05F01DEC05F007EC57
:1013E00005F007EC05F01DEC05F007EC05F007EC47
:1013F00005F01DEC05F007EC05F007EC05F0E66ADA
:1014000037EC05F0E55207EC05F088EC05F0090E25
:10141000F3CFDBFF0A0EF4CFDBFFDF50EA6A010FE8
:10142000E96E010EEA22090EDBCFEFFFDF2ADF5063
:10143000EA6A010FE96E010EEA220A0EDBCFEFFF26
:10144000DF2A07EC05F0010EE66E37EC05F0E552F9
:1014500007EC05F088EC05F0090EF3CFDBFF0A0E70
:10146000F4CFDBFFDF50EA6A010FE96E010EEA22DA
:10147000090EDBCFEFFFDF2ADF50EA6A010FE96ECA
:10148000010EEA220A0EDBCFEFFFDF2A07EC05F0A0
:10149000020EE66E37EC05F0E55207EC05F088EC3D
:1014A00005F0090EF3CFDBFF0A0EF4CFDBFFDF50B0
:1014B000EA6A010FE96E010EEA22090EDBCFEFFFA7
:1014C000DF2ADF50EA6A010FE96E010EEA220A0EF6
:1014D000DBCFEFFFDF2A07EC05F0030EE66E37ECFB
:1014E00005F0E55207EC05F088EC05F0090EF3CFA6
:1014F000DBFF0A0EF4CFDBFFDF50EA6A010FE96E73
:10150000010EEA22090EDBCFEFFFDF2ADF50EA6A85
:10151000010FE96E010EEA220A0EDBCFEFFFDF2A90
:1015200007EC05F011EC05F007EC05F0080E0101E1
:101530004827000E49234A234B2315D70101010EEA
:10154000036F0001615104E10101036B4AEC39F0C2
:10155000F56E0B0EE15C02E2E16AE552E16EF550D8
:10156000E552E7CFD9FF12000101026B036B0101C5
:101570003F0E006F1200D9CFE6FFE1CFD9FF030E77
:10158000E126CAEC38F0ABEC05F0800EE66E0F0EEB
:10159000E66E200EE66EE66AE9EC04F0E552E552EE
:1015A000E552E552900EE66E010EE66E880EE66E8E
:1015B000E66AE9EC04F0E552E552E552E552E66AE6
:1015C000030EE66EEB0EE66EE66AE9EC04F0E55219
:1015D000E552E552E552800EE66E030EE66EEB0E26
:1015E000E66EE66AE9EC04F0E552E552E552E552B2
:1015F000020EDB6ADBCF14F0070EE76E1418E8AEBC
:1016000002D0E73402D0E750145C61E2B60EE66E19
:101610000B0EE66EBA0EE66EE66AE9EC04F0E552F1
:10162000E552E552E55207EC05F007EC05F0E66AF5
:1016300037EC05F0E55207EC05F088EC05F0F3CF48
:10164000DEFFF4CFDDFF020EDB50040DF350030F7D
:10165000E96EEA6AE9BEEA68010EE926010EEA22AD
:10166000DFCFEFFF020EDB50040DF350040FE96EE5
:10167000EA6AE9BEEA68010EE926010EEA22010ED5
:10168000DBCFEFFF020EDB50040DF350050FE96EC8
:10169000EA6AE9BEEA68010EE926010EEA22EF6A6B
:1016A000020EDB50040DF350060FE96EEA6AE9BE44
:1016B000EA68010EE926010EEA22EF6A07EC05F05E
:1016C00011EC05F007EC05F0020EDB2A93D74AEC8B
:1016D00039F0020EDB50040DF3CF02F10101036B70
:1016E00001013F0E006FF56E030EE15C02E2E16A5C
:1016F000E552E16EF550E552E7CFD9FF120081EFD8
:101700000BF0CAEC38F0ABEC05F0510E0001725D45
:1017100001E083D08A0EE66EE66A240EE66EE66A83
:10172000E9EC04F0E552E552E552E5520A0EE66EA8
:101730003B0EE66E880EE66EE66AE9EC04F0E552D2
:10174000E552E552E552800EE66E0F0EE66E200E73
:10175000E66EE66AE9EC04F0E552E552E552E55240
:10176000900EE66E010EE66E880EE66EE66AE9EC15
:1017700004F0E552E552E552E552670EE66EE66A80
:10178000200EE66EE66AE9EC04F0E552E552E55219
:10179000E552E66A030EE66EEB0EE66EE66AE9ECEB
:1017A00004F0E552E552E552E552860EE66E1B0E58
:1017B000E66EBB0EE66EE66AE9EC04F0E552E55231
:1017C000E552E55257EC05F0610EE66EE70EE66E67
:1017D000A80EE66EE66AE9EC04F0E552E552E55241
:1017E000E55207EC05F007EC05F0020EE66EE66A3E
:1017F0004EEC36F0E552E552610EE66EE70EE66E0F
:10180000A90EE66EE66AE9EC04F0E552E552E5520F
:10181000E55207EC05F007EC05F0FA0EE66E070E50
:10182000E66E240EE66EE66AE9EC04F0E552E55257
:10183000E552E5520A0EE66E3B0EE66E880EE66E47
:10184000E66AE9EC04F0E552E552E552E55257EC60
:1018500005F0610EE66EE70EE66EA80EE66EE66A2D
:10186000E9EC04F0E552E552E552E55207EC05F0EB
:1018700007EC05F0020EE66EE66A4EEC36F0E55235
:10188000E552610EE66EE70EE66EA90EE66EE66ABA
:10189000E9EC04F0E552E552E552E55207EC05F0BB
:1018A00007EC05F04AEF39F000018751E96EEA6A6A
:1018B000D890E936EA36500EE926010EEA22EECF3C
:1018C000E3F1EFCFE4F10101E56B0001872B8751D4
:1018D000E96EEA6AD890E936EA36500EE926010E3A
:1018E000EA22EECFE6F1EFCFE7F10101E86B00016C
:1018F000872B8751E96EEA6AD890E936EA36500EAE
:10190000E926010EEA22EECFE9F1EFCFEAF101017B
:10191000EB6B0001872B8751E96EEA6AD890E936B4
:10192000EA36500EE926010EEA22EECF14F014C07A
:1019300015F0146A166A14500101E6131550E713E6
:101940001650E8130001872B120007EC05F0B60EC5
:10195000E66E0B0EE66EBB0EE66EE66AE9EC04F090
:10196000E552E552E552E55207EC05F007EC05F0CB
:10197000B60EE66EDB0EE66EBB0EE66EE66AE9ECD0
:1019800004F0E552E552E552E55207EC05F007ECAC
:1019900005F0B60EE66EEB0EE66EBB0EE66EE66A80
:1019A000E9EC04F0E552E552E552E55207EC05F0AA
:1019B00007EC05F02AEC05F007EF05F0D9CFE6FFBC
:1019C000E1CFD9FF0A0EE126400EDF6E0101600E65
:1019D000016F4C0EE96E010EEA6E01014851EE5C9A
:1019E0004951EE584A51EE584B51EE5803E200016E
:1019F000626BA6D20101030EEC6F0001625168E137
:101A0000010E626F0001876B400E875D0EE2875109
:101A1000E96EEA6AD890E936EA36500EE926010EF8
:101A2000EA22EE6AED6A872BEFD7876BCAEC38F0B3
:101A3000DFCF14F0156A166A176A14AE03D0156862
:101A40001668176848C104F049C105F04AC106F09C
:101A50004BC107F014C009F015C00AF016C00BF016
:101A600017C00CF065EC3EF000500101485D01012B
:101A7000D26F0150010149590101D36F0250010198
:101A80004A590101D46F035001014B590101D56F2F
:101A9000DFCF14F0156A166A176A14AE03D0156802
:101AA0001668176848C104F049C105F04AC106F03C
:101AB0004BC107F014C009F015C00AF016C00BF0B6
:101AC00017C00CF065EC3EF000C087F0ABEC05F001
:101AD000D20EE96E010EEA6EEE5001014C5DEE5041
:101AE0004D59EE504E59EE504F5901E20FD2030EB0
:101AF000010102250101EC5D01E308D2DF50000184
:101B0000875D37E2030E010102250101EC5D31E240
:101B1000EC29E96EEA6AE9BEEA68010EE926010EDF
:101B2000EA22EF50176A176E166AECC1E9FFEA6AFB
:101B3000E9BEEA68010EE926010EEA22EF50000133
:101B40001624146E000E1720156E00018751E96EE1
:101B5000EA6AD890E936EA36500EE926010EEA2202
:101B600014C0EEFF15C0EDFF872B020E0101EC271C
:101B7000C5D7DF500001875D03E001010351A8E1F3
:101B80001A0EE66EE66A240EE66EE66AE9EC04F0EA
:101B9000E552E552E552E5520A0EE66E3B0EE66E60
:101BA000880EE66EE66AE9EC04F0E552E552E5528D
:101BB000E5520001876B010EDB6ADBCF14F0070EE4
:101BC000E76E1418E8AE02D0143403D0E750D88082
:101BD000145401E261D1166A176A020ED2C1DBFF0A
:101BE000030ED3C1DBFF040E16C0DBFF050E17C0CA
:101BF000DBFFD950020FE96EDACFEAFF040EE76E81
:101C0000D890EF36010EEB36020EEB36030EEB36B4
:101C1000E706F6E1146A156A176A060E14C0DBFFC0
:101C2000070E15C0DBFF080ED4C1DBFF090E17C07D
:101C3000DBFFD950060FE96EDACFEAFF0C0EE76E34
:101C4000D890030EEB32020EEB32010EEB32EF3284
:101C5000E706F6E1060EDBCF14F0070EDBCF15F03A
:101C6000080EDBCF16F0090EDBCF17F0168A14C072
:101C7000E6FF15C0E6FF16C0E6FF17C0E6FFE9EC79
:101C800004F0E552E552E552E552900EE66E010E83
:101C9000E66E880EE66EE66AE9EC04F0E552E5527F
:101CA000E552E552020EDBCF14F0030EDBCF15F048
:101CB000040EDBCF16F0050EDBCF17F0070E141263
:101CC000168A14C0E6FF15C0E6FF16C0E6FF17C06F
:101CD000E6FFE9EC04F0E552E552E552E552E4DDB9
:101CE000040E1F0BE3C114F0E4C115F0E5C116F0BA
:101CF00006E0D890143615361636E806FAE1168A4C
:101D0000176A14C0E6FF15C0E6FF16C0E6FF17C04D
:101D1000E6FFE9EC04F0E552E552E552E552040E27
:101D20001F0BE6C114F0E7C115F0E8C116F006E09C
:101D3000D890143615361636E806FAE11480168A5D
:101D4000176A14C0E6FF15C0E6FF16C0E6FF17C00D
:101D5000E6FFE9EC04F0E552E552E552E552040EE7
:101D60001F0BE9C114F0EAC115F0EBC116F006E053
:101D7000D890143615361636E806FAE11482168A1B
:101D8000176A14C0E6FF15C0E6FF16C0E6FF17C0CD
:101D9000E6FFE9EC04F0E552E552E552E55284DD58
:101DA000040E1F0BE3C114F0E4C115F0E5C116F0F9
:101DB00006E0D890143615361636E806FAE1030E1A
:101DC0001412168A176A14C0E6FF15C0E6FF16C083
:101DD000E6FF17C0E6FFE9EC04F0E552E552E552F4
:101DE000E552040E1F0BE6C114F0E7C115F0E8C17F
:101DF00016F006E0D890143615361636E806FAE1E5
:101E00001484168A176A14C0E6FF15C0E6FF16C0D0
:101E1000E6FF17C0E6FFE9EC04F0E552E552E552B3
:101E2000E552040E1F0BE9C114F0EAC115F0EBC135
:101E300016F006E0D890143615361636E806FAE1A4
:101E4000050E1412168A176A14C0E6FF15C0E6FFC5
:101E500016C0E6FF17C0E6FFE9EC04F0E552E552D4
:101E6000E552E552E66A030EE66EEB0EE66EE66AB2
:101E7000E9EC04F0E552E552E552E55266DD65DD38
:101E800007EC05F0080E0101D227000ED323D4235E
:101E9000D523010EDB2A91D657EC05F0610EE66ED4
:101EA000E70EE66EA80EE66EE66AE9EC04F0E5528F
:101EB000E552E552E55207EC05F007EC05F007ECBA
:101EC00005F007EC05F0020EE66EE66A4EEC36F021
:101ED000E552E552610EE66EE70EE66EA90EE66E7D
:101EE000E66AE9EC04F0E552E552E552E55207EC0A
:101EF00005F007EC05F007EC05F007EC05F011EC38
:101F000005F007EC05F00001876BE2D5D20EE96E13
:101F1000010EEA6EEE5001014C5DEE504D59EE504F
:101F20004E59EE504F5903E30101035102E1000104
:101F3000626B0001625102E14AEC39F00101026B6F
:101F4000F56E0A0EE15C02E2E16AE552E16EF550DF
:101F5000E552E7CFD9FF1200D9CFE6FFE1CFD9FF95
:101F60000C0EE126100EDF6E4C0EE96E010EEA6ECD
:101F700001014851EE5C4951EE584A51EE584B511F
:101F8000EE5803E20001636BD1D20101030EEC6F46
:101F90000001635124E1010E636F0001876B400E65
:101FA000875D0EE28751E96EEA6AD890E936EA3633
:101FB000500EE926010EEA22EE6AED6A872BEFD772
:101FC000876BCAEC38F048C1DDF149C1DEF14AC186
:101FD000DFF14BC1E0F10001876BABEC05F0DD0EEA
:101FE000E96E010EEA6EEE5001014C5DEE504D5966
:101FF000EE504E59EE504F5901E27ED2030E0101D0
:1020000002250101EC5D01E377D2DF500001875D1D
:102010004CE2030E010102250101EC5D46E2EC29D0
:10202000E96EEA6AE9BEEA68010EE926010EEA22D3
:10203000EF50E66E00018751E96EEA6AD890E93602
:10204000EA36500EE926010EEA22E552E750EE6E1E
:10205000ED6A8751E96EEA6AD890E936EA36500EA1
:10206000E926010EEA22EE50ED6EEF6AECC1E9FFBF
:10207000EA6AE9BEEA68010EE926010EEA22EF509B
:10208000146E156A8751E96EEA6AD890E936EA3625
:10209000500EE926010EEA221450EE121550ED12F0
:1020A000872B040E0101EC27B0D7DF500001875DBC
:1020B00003E00101035193E15A0EE66EE66A240E35
:1020C000E66EE66AE9EC04F0E552E552E552E552C7
:1020D0000A0EE66E3B0EE66E880EE66EE66AE9ECE8
:1020E00004F0E552E552E552E552060EDB6A070EB2
:1020F000DB6A010EDB6ADBCF14F0030EE76E141807
:10210000E8AE02D0143403D0E750D880145401E272
:10211000C1D1DDC114F0DEC115F0166A176A020ED6
:10212000DDC1DBFF030EDEC1DBFF040E16C0DBFFEB
:10213000050E17C0DBFFD950020FE96EDACFEAFFB8
:10214000040EE76ED890EF36010EEB36020EEB363A
:10215000030EEB36E706F6E1F00EE66E070EE66ECE
:10216000200EE66EE66AE9EC04F0E552E552E5522F
:10217000E552900EE66E010EE66E880EE66EE66A99
:10218000E9EC04F0E552E552E552E552020EDBCFF0
:1021900014F0030EDBCF15F0040EDBCF16F0050EA6
:1021A000DBCF17F0070E1412168A14C0E6FF15C015
:1021B000E6FF16C0E6FF17C0E6FFE9EC04F0E552C3
:1021C000E552E552E552060EDBCFE9FF070EDBCF05
:1021D000EAFF010ED890E936EA36E806FBE1500E38
:1021E000E926010EEA22EECF14F0EFCF15F0080E2B
:1021F00014C0DBFF090E15C0DBFF0A0EDB6A0B0EF5
:10220000DB6A040E186ED950080FE96EDACFEAFFC8
:1022100018501F0BEECF14F0EECF15F0EECF16F0E6
:10222000EECF17F007E0D89014361536163617366D
:10223000E806F9E1168A14C0E6FF15C0E6FF16C0ED
:10224000E6FF17C0E6FFE9EC04F0E552E552E5527F
:10225000E552010EE76E060EDBCFE9FF070EDBCF7E
:10226000EAFFE750E926000EEA22010ED890E9368F
:10227000EA36E806FBE1500EE926010EEA22EECF2F
:1022800014F0EFCF15F0080E14C0DBFF090E15C0D7
:10229000DBFF0A0EDB6A0B0EDB6A040E186ED950E8
:1022A000080FE96EDACFEAFF18501F0BEECF14F0DB
:1022B000EECF15F0EECF16F0EECF17F007E0D89086
:1022C0001436153616361736E806F9E11480168AE4
:1022D00014C0E6FF15C0E6FF16C0E6FF17C0E6FF14
:1022E000E9EC04F0E552E552E552E552020EE76EE4
:1022F000060EDBCFE9FF070EDBCFEAFFE750E9264A
:10230000000EEA22010ED890E936EA36E806FBE133
:10231000500EE926010EEA22EECF14F0EFCF15F0B1
:10232000080E14C0DBFF090E15C0DBFF0A0EDB6AC6
:102330000B0EDB6A040E186ED950080FE96EDACF67
:10234000EAFF18501F0BEECF14F0EECF15F0EECFD2
:1023500016F0EECF17F007E0D89014361536163683
:102360001736E806F9E11482168A14C0E6FF15C094
:10237000E6FF16C0E6FF17C0E6FFE9EC04F0E55201
:10238000E552E552E552030EE76E060EDBCFE9FF9C
:10239000070EDBCFEAFFE750E926000EEA22010E26
:1023A000D890E936EA36E806FBE1500EE926010E40
:1023B000EA22EECF14F0EFCF15F0080E14C0DBFFC9
:1023C000090E15C0DBFF0A0EDB6A0B0EDB6A040E7A
:1023D000186ED950080FE96EDACFEAFF18501F0BBC
:1023E000EECF14F0EECF15F0EECF16F0EECF17F0E3
:1023F00007E0D8901436153616361736E806F9E198
:10240000030E1412168A14C0E6FF15C0E6FF16C0AC
:10241000E6FF17C0E6FFE9EC04F0E552E552E552AD
:10242000E552D950060FE96EDACFEAFF040EEE2628
:10243000000EED22E66A030EE66EEB0EE66EE66A2D
:10244000E9EC04F0E552E552E552E55207EC05F0FF
:102450002AEC05F007EC05F007EC05F02AEC05F096
:1024600007EC05F007EC05F02AEC05F007EC05F0A9
:1024700007EC05F02AEC05F007EC05F007EC05F099
:10248000080E0101DD27000EDE23DF23E023010E0D
:10249000DB2A31D657EC05F0610EE66EE70EE66EEC
:1024A000A80EE66EE66AE9EC04F0E552E552E55264
:1024B000E55207EC05F007EC05F0020EE66EE66A61
:1024C0004EEC36F0E552E552610EE66EE70EE66E32
:1024D000A90EE66EE66AE9EC04F0E552E552E55233
:1024E000E55207EC05F007EC05F011EC05F007EC00
:1024F00005F00001876B73D5DD0EE96E010EEA6E03
:10250000EE5001014C5DEE504D59EE504E59EE50DB
:102510004F5903E30101035102E10001636B000124
:10252000635102E14AEC39F00101026BF56E0C0EC9
:10253000E15C02E2E16AE552E16EF550E552E7CF77
:10254000D9FF12000101026B036B01013F0E006F06
:102550001200D9CFE6FFE1CFD9FF050EE126CAEC84
:1025600038F0ABEC05F0070EE66EE66A200EE66E7C
:10257000E66AE9EC04F0E552E552E552E552DF6A1D
:10258000DFCF14F0070EE76E1418E8AE02D0E73480
:1025900002D0E750145C01E3FDD08A0EE66EE66AD5
:1025A000240EE66EE66AE9EC04F0E552E552E552E7
:1025B000E5520A0EE66E3B0EE66E880EE66EE66AA1
:1025C000E9EC04F0E552E552E552E552800EE66E84
:1025D0000F0EE66E200EE66EE66AE9EC04F0E552B8
:1025E000E552E552E552900EE66E010EE66E880E5B
:1025F000E66EE66AE9EC04F0E552E552E552E55292
:10260000040EDF02F350040FE96EEA6AE9BEEA68DD
:10261000010EE926010EEA22EFCF14F0010E14C0DC
:10262000DBFF020EDB6A030EDB6A040EDB6AD950A5
:10263000010FE96EDACFEAFFEF50EE6AEFCFF4FF59
:10264000EE6EEF50F4CFEEFFEF6E040EDF02F350AC
:10265000030FE96EEA6AE9BEEA68010EE926010E97
:10266000EA22EFCF14F0156A166A176AD950010FE3
:10267000E96EDACFEAFFEE501412EE501512EE506A
:102680001612EE501712010E14C0DBFF020E15C019
:10269000DBFF030E16C0DBFF040E17C0DBFFD950B3
:1026A000010FE96EDACFEAFF040EE76ED890EF363D
:1026B000010EEB36020EEB36030EEB36E706F6E1C3
:1026C000010EDBCF14F0020EDBCF15F0030EDBCFD3
:1026D00016F0040EDBCF17F0168A14C0E6FF15C003
:1026E000E6FF16C0E6FF17C0E6FFE9EC04F0E5528E
:1026F000E552E552E552E66A030EE66EEB0EE66E33
:10270000E66AE9EC04F0E552E552E552E552960E30
:10271000E66E1B0EE66EBB0EE66EE66AE9EC04F0B2
:10272000E552E552E552E55207EC05F007EC05F0FD
:1027300057EC05F0610EE66EE70EE66EA80EE66E4B
:10274000E66AE9EC04F0E552E552E552E55207ECA1
:1027500005F007EC05F07FC0E6FF80C0E6FF10EC57
:1027600036F0E552E552610EE66EE70EE66EA90E12
:10277000E66EE66AE9EC04F0E552E552E552E55210
:1027800007EC05F007EC05F011EC05F007EC05F09F
:10279000DF2AF6D64AEC39F0F56E050EE15C02E26E
:1027A000E16AE552E16EF550E552E7CFD9FF12003C
:1027B000D9CFE6FFE1CFD9FF030EE126FB0EDBCF39
:1027C00014F01450E76E020EE7CFDBFFD950FB0F79
:1027D000E96EFF0EDA20EA6E080EE76ED890030E5F
:1027E000EB32020EEB32010EEB32EF32E706F6E18E
:1027F000FB0EDBCF14F0FC0EFD0EFE0E1450E76E48
:10280000010EE7CFDBFFD950FB0FE96EFF0EDA2098
:10281000EA6E080EE76ED890030EEB32020EEB3232
:10282000010EEB32EF32E706F6E1FB0EDBCF14F0E0
:10283000FC0EFD0EDBCF16F0FE0EDBCF17F01450B2
:10284000DF6EDF50146E156AE8500E0E151214C0BC
:10285000E6FF15C0E6FFC9D8E552E552F80EE66E70
:102860006E0EE66EC2D8E552E552010EDB50146ED4
:10287000156AE8500E0E151214C0E6FF15C0E6FFEB
:10288000B4D8E552E552F70EE66E6E0EE66EADD8A0
:10289000E552E552020EDB50146E156AE8500E0E3A
:1028A000151214C0E6FF15C0E6FF9FD8E552E552A9
:1028B000F60EE66E6E0EE66E98D8E552E552F56EAF
:1028C000030EE15C02E2E16AE552E16EF550E55289
:1028D000E7CFD9FF1200D9CFE6FFE1CFD9FFFE0E37
:1028E000DBCF14F0156A166A3C0E1612176A16BE74
:1028F000176814C0E6FF15C0E6FF16C0E6FF17C054
:10290000E6FF56DFE552E552E552E552E552E7CFE4
:10291000D9FF1200D9CFE6FFE1CFD9FFFE0EDBCF02
:10292000E6FF040EE66EEEEC37F0E552E552010EDE
:10293000E66EE2EC3EF0E552E552E7CFD9FF120039
:10294000D9CFE6FFE1CFD9FFFF0EE76EFD0EDBCF5B
:1029500014F0E7501416156A1450E66E080EE66E71
:10296000EEEC37F0E552E552D950FD0FE96EFF0E5F
:10297000DA20EA6E080E0F0B06E0EC52D890ED322A
:10298000EF32E806FAE1FD0EDBCFE6FF080EE66E59
:10299000EEEC37F0E552E552010EE66EE2EC3EF069
:1029A000E552E552E7CFD9FF1200D9CFE6FFE1CFDC
:1029B000D9FFE652D0EC37F0080EE66E62EC38F044
:1029C000E552DF6E080EE66E62EC38F0E552DF6E1F
:1029D000DFEC37F0010EE66EE2EC3EF0E552DF5040
:1029E000E552E552E7CFD9FF1200D9CFE6FFE1CF9C
:1029F000D9FFE66A8FDFE552FD0EDBCFE6FFFE0E64
:102A0000DBCFE6FF9DDFE552E552E552E7CFD9FF88
:102A10001200D9CFE6FFE1CFD9FF0C0EE66E7ADFC8
:102A2000E552FD0EDBCFE6FFFE0EDBCFE6FF88DFD3
:102A3000E552E552E552E7CFD9FF1200D9CFE6FFC4
:102A4000E1CFD9FF0D0EE66E65DFE552FD0EDBCF5F
:102A5000E6FFFE0EDBCFE6FF73DFE552E552E552FF
:102A6000E7CFD9FF1200D9CFE6FFE1CFD9FF0F0E94
:102A7000E66E50DFE552FD0EDBCFE6FFFE0EDBCF4C
:102A8000E6FF5EDFE552E552E552E7CFD9FF1200DF
:102A9000D9CFE6FFE1CFD9FFE6524DEC37F0DF6A40
:102AA000DFCF14F0030EE76E1418E8AE02D0E7345F
:102AB00002D0E750145C0DE23EEC37F0010EE66EFA
:102AC000E66A10EC36F0E552E5522FEC37F0DF2ADB
:102AD000E7D73EEC37F0FD0EDBCFE6FFFE0EDBCF97
:102AE000E6FF10EC36F0E552E5522FEC37F0000E21
:102AF000E66EE66A25DFE552E5520001880502E14F
:102B000084EC34F0E552E552E7CFD9FF1200D9CF7B
:102B1000E6FFE1CFD9FF060EE126CAEC38F0FE0E43
:102B2000E66EE6683F0EE66EE66A42DEE552E55284
:102B3000E552E552090EE66EEDDEE55236DFE66E51
:102B4000D950020FE96EDACFEAFFE552E750EE6E98
:102B5000ED6A090EE66EDEDEE55227DFE66ED9503D
:102B6000040FE96EDACFEAFFE552E750EE6EED6A48
:102B70004AEC39F0040EDBCF16F0050EDBCF17F070
:102B800016C017F0166A020EDB501624146E030EE0
:102B9000DB501720156E14C0DEFFDD6EDECF14F0A3
:102BA000DDCF15F014C0F3FF15C0F4FFF56E060E6F
:102BB000E15C02E2E16AE552E16EF550E552E7CFF1
:102BC000D9FF1200D9CFE6FFE1CFD9FF050EE126EC
:102BD000030EDF6E0101026B036B01013F0E006FFC
:102BE0004C0EE96E010EEA6E01014851EE5C49514E
:102BF000EE584A51EE584B51EE5803E20001606B1B
:102C0000B1D00001605112E1CAEC38F00001010EB0
:102C1000606F48C1E6FF49C1E6FF4AC1E6FF4BC10C
:102C2000E6FFC6DDE552E552E552E552480EE96E93
:102C3000010EEA6EEE5001014C5D146EEE504D59DE
:102C4000156EEE504E59166EEE504F59176E142AEF
:102C5000000E152216221722010E14C0DBFF020EF1
:102C600015C0DBFF030E16C0DBFF040E17C0DBFF31
:102C7000010EDBCF05F0020EDBCF06F0030EDBCF3B
:102C800007F0040EDBCF08F00834000E081809E640
:102C9000D8803C0E0554000E0654000E0754000E5A
:102CA00008540CE23C0EF36E010EF3CFDBFF020E74
:102CB000DB6A030EDB6A040EDB6A02D00001606B84
:102CC000010EDBCF02F1030EDF6EDFCF14F0156AC9
:102CD000166A176A010EDBCF18F0020EDBCF19F06F
:102CE000030EDBCF1AF0040EDBCF1BF0030E182609
:102CF000000E19221A221B2217501B18E8AE02D010
:102D00001B3408D01850145C195015581A50165816
:102D10001B50175811E2090EE66EFCDDE55245DE48
:102D2000E66EDF50EA6A010FE96E010EEA22E55213
:102D3000E750EF6EDF2AC9D70101010E036FDB50A8
:102D400001014827020EDB504923030EDB504A23C2
:102D5000040EDB504B230001605104E10101036BC1
:102D60004AEC39F0F56E050EE15C02E2E16AE552EB
:102D7000E16EF550E552E7CFD9FF1200D9CFE6FF5B
:102D8000E1CFD9FF0D0EE126030EDF6E0101026BCC
:102D9000036B01013F0E006F4C0EE96E010EEA6EEF
:102DA00001014851EE5C4951EE584A51EE584B51E1
:102DB000EE5803E20001616B2BD10001615113E178
:102DC000CAEC38F00001010E616FA60EE66E9E0E91
:102DD000E66E0BDEE552E552A60EE66E9C0EE66E42
:102DE00004DEE552E552480EE96E010EEA6EEE5041
:102DF00001014C5D146EEE504D59156EEE504E595A
:102E0000166EEE504F59176E142A000E1522162218
:102E10001722010E14C0DBFF020E15C0DBFF030EEC
:102E200016C0DBFF040E17C0DBFF010EDBCF05F081
:102E3000020EDBCF06F0030EDBCF07F0040EDBCF74
:102E400008F00834000E081809E6D8803C0E055436
:102E5000000E0654000E0754000E08540CE23C0EFF
:102E6000F36E010EF3CFDBFF020EDB6A030EDB6AAB
:102E7000040EDB6A02D00001616B010EDBCF02F1B0
:102E8000030EDF6EDFCF14F0156A166A176A010EA3
:102E9000DBCF18F0020EDBCF19F0030EDBCF1AF0F8
:102EA000040EDBCF1BF0030E1826000E19221A2287
:102EB0001B2217501B18E8AE02D01B3408D0185044
:102EC000145C195015581A5016581B50175801E326
:102ED00095D0156A166A176A050E48C1DBFF060E03
:102EE00015C0DBFF070E16C0DBFF080E17C0DBFFA7
:102EF00049C115F0146A166A176AD890173216324B
:102F000015321432E806F9E1090E14C0DBFF0A0E8F
:102F100015C0DBFF0B0E16C0DBFF0C0E17C0DBFF6E
:102F2000050EDBCF14F0060EDBCF15F0070EDBCF5E
:102F300016F0080EDBCF17F00E0E151214C0E6FFC8
:102F400015C0E6FF52DDE552E552A90EE66E6E0EA3
:102F5000E66E4BDDE552E552090EDBCF14F00A0EAA
:102F6000DBCF15F00B0EDBCF16F00C0EDBCF17F01E
:102F70000E0E151214C0E6FF15C0E6FF36DDE55251
:102F8000E552AA0EE66E6E0EE66E2FDDE552E552B4
:102F9000A60EE66E800EE66E28DDE552E552A80E1E
:102FA000E66E500EE66E21DDE552E552F50EE66E58
:102FB0006E0EE66E1ADDE552E5523D0E0001735DC0
:102FC00006E1000EE66EE66A10DDE552E552020EFD
:102FD000E66EA0DCE552E9DCE66EDF50EA6A010F3E
:102FE000E96E010EEA22E552E750EF6E0101482B2F
:102FF000000E49234A234B23DF2A44D70101010E47
:10300000036F0001615104E10101036B4AEC39F0E7
:10301000F56E0D0EE15C02E2E16AE552E16EF550FB
:10302000E552E7CFD9FF120016EF18F0D9CFE6FF2F
:10303000E1CFD9FFE652CAEC38F048C1E6FF49C1FA
:10304000E6FF4AC1E6FF4BC1E6FFD8EC13F0E552BC
:10305000E552E552E552DF6ADFCF14F0156A166AD1
:10306000176A14AE03D0156816681768480EE96E23
:10307000010EEA6EEE5001014C5D186EEE504D5996
:10308000196EEE504E591A6EEE504F591B6ED89075
:10309000183619361A361B361450185C1550195844
:1030A00016501A5817501B5815E3090EE66E32DCFD
:1030B000E5527BDCE66E030EDF24E96EEA6AE9BEC8
:1030C000EA68010EE926010EEA22E552E750EF6EAA
:1030D000DF2AC2D74AEC39F0DFCF02F10101036BDE
:1030E00001013F0E006FE552E552E7CFD9FF120014
:1030F000CAEC38F000017251400A47E07F0A30E024
:10310000010A1CE0030A03E0010A54E10ED0A60EF6
:10311000E66E8E0EE66E69DCE552E552A60EE66EB0
:103120008C0EE66E62DCE552E552040EE66E6BEC48
:1031300014F0E552800EE66EE66A39D0050EE66EB2
:103140006BEC14F0E5523F0EE66EE66E62DCE55283
:10315000E552040EE66E6BEC14F0E5528F0E25D0AE
:10316000050EE66E6BEC14F0E5520A0EE66E010EEB
:10317000E66E4FDCE552E552040EE66E6BEC14F0A1
:10318000E5528A0EE66E010E11D0050EE66E6BEC6E
:1031900014F0E552E668E6683CDCE552E552040EC0
:1031A000E66E6BEC14F0E552870EE66EE66E31DCEF
:1031B000E552E552000EE66EE66A17DCE552E5528E
:1031C000E66A8AEC14F0E55283C0E6FF84C0E6FFAD
:1031D00010EC36F0E552E552000EE66EE66AA0EC21
:1031E00014F0E552E5524AEF39F078EF18F0D9CFF4
:1031F000E6FFE1CFD9FF030EE12674C0DFFF4C0EDE
:10320000E96E010EEA6E01014851EE5C4951EE583B
:103210004A51EE584B51EE5803E20001626BAFD1B8
:10322000030EF36E020EF3CFDBFF0001625101E0EB
:10323000C8D0010E626F0001876B400E875D09E206
:103240008751EA6A500FE96E010EEA22EF6A872B76
:10325000F4D7876BCAEC38F0DFCF14F0156A166A22
:10326000176A14AE03D015681668176848C104F0D1
:1032700049C105F04AC106F04BC107F014C009F07E
:1032800015C00AF016C00BF017C00CF065EC3EF04C
:1032900000500101485D0101D26F015001014959FF
:1032A0000101D36F025001014A590101D46F03504B
:1032B00001014B590101D56FDFCF14F0156A166A71
:1032C000176A14AE03D015681668176848C104F071
:1032D00049C105F04AC106F04BC107F014C009F01E
:1032E00015C00AF016C00BF017C00CF065EC3EF0EC
:1032F00000C087F000016D5102E13C0E6D6FCAEC19
:1033000038F000016D51400A10E07D0A0EE0010A1C
:1033100024E1A60EE66E8E0EE66EF5EC14F0E55294
:10332000E552A60EE66E8C0E13D0A60EE66E8E0E3D
:10333000E66EF5EC14F0E552E552A60EE66E8C0E44
:10334000E66EF5EC14F0E552E552A60EE66E840E3C
:10335000E66EF5EC14F0E552E552060EE66E6BEC07
:1033600014F0E552000EE66EE66A09EC15F0E5523F
:10337000E55200016D513E0A14E07E0A06E07F0A24
:1033800004E0020A02E0010A1CE1A60EE66E8E0EBF
:10339000E66EF5EC14F0E552E552A60EE66E9C0ED4
:1033A0000BD0A60EE66E9C0EE66EF5EC14F0E55220
:1033B000E552A60EE66E840EE66EF5EC14F0E552CC
:1033C000E552D20EE96E010EEA6EEE5001014C5D3F
:1033D000EE504D59EE504E59EE504F5901E2B5D0D6
:1033E000030E01010225F36E020EDBCFF4FFF35052
:1033F000F45C01E3AAD0DF500001875D2BE2030EED
:1034000001010225F36E020EDBCFF4FFF350F45CF2
:1034100021E2020EDBCFE9FFEA6AE9BEEA68010EAB
:10342000E926010EEA22EF50E66E00018751EA6AB2
:10343000500FE96E010EEA22E552E750EF6E872B3E
:10344000020E146EDBCFE7FFE850E726020EE7CF4F
:10345000DBFFD1D7DF500001875D03E0010103519D
:10346000B0E1D2C1E6FFD3C1E6FFD4C1E6FFD5C1CA
:10347000E6FFD8EC13F0E552E552E552E5520001C3
:10348000876BDF50875D4BE2020EDF5C875D1DE2DC
:103490008729EA6A500FE96E010EEA22EF50176A97
:1034A000176E166A8751EA6A500FE96E010EEA221A
:1034B000EF5000011624146E000E1720156E14C074
:1034C000E6FFE66E1EEC15F024D08729EA6A500F5D
:1034D000E96E010EEA22EF50176A176E166A8751DD
:1034E000EA6A500FE96E010EEA22EF50000116243D
:1034F000146E000E1720156E14C0E6FFE66E33EC56
:1035000015F0E552E55279C0E6FF7AC0E6FF48ECD7
:1035100015F0E552E552020E00018727B2D7DFCF42
:1035200014F0156A166A176A14AE03D01568166887
:10353000176814500101D2271550D3231650D423F5
:103540001750D5230001876B3CD7D20EE96E010ED0
:10355000EA6EEE5001014C5DEE504D59EE504E5961
:10356000EE504F5903E30101035102E10001626B88
:103570000001625102E14AEC39F00101026BF56E83
:10358000030EE15C02E2E16AE552E16EF550E552BC
:10359000E7CFD9FF1200D9CFE6FFE1CFD9FF030E65
:1035A000E126DDC114F0156A166A176A0E0E1512AF
:1035B000DDC1E6FF15C0E6FFF5EC14F0E552E5527B
:1035C000A90EE66E6E0EE66EF5EC14F0E552E552CD
:1035D000DEC114F0DFC115F0E0C116F00001176A7A
:1035E0000E0E1512DEC1E6FF15C0E6FFF5EC14F075
:1035F000E552E552AA0EE66E6E0EE66EF5EC14F09C
:10360000E552E552FE0EDB50146E156AE8500E0EC0
:10361000151214C0E6FF15C0E6FFF5EC14F0E552F4
:10362000E552A80EE66E6E0EE66EF5EC14F0E5526D
:10363000E552A60EE66E840EE66EF5EC14F0E55249
:10364000E552550EE66E0E0EE66EF5EC14F0E55200
:10365000E552A70EE66E6E0EE66EF5EC14F0E5523E
:10366000E552AA0EE66E0E0EE66EF5EC14F0E5528B
:10367000E552A70EE66E6E0EE66EF5EC14F0E5521E
:10368000E552A60EE66E820EE66EF5EC14F0E552FB
:10369000E5520A0EDF6E010EE66EE66A4EEC36F07B
:1036A000E552E552DF06A60EE66E500EE66EF5EC2C
:1036B00014F0E552E552F50EE66E6E0EE66EF5EC90
:1036C00014F0E552E552020EE66E8AEC14F0E55273
:1036D000D5EC14F0E66ED950010FE96EDACFEAFFAF
:1036E000E552E750EE6EED6ADFCF14F0000EE76EA4
:1036F0001418E8AE02D0143403D0E750D880145424
:1037000010E2020EE76E010EDBCF15F0020EDBCFEA
:1037100016F0E7501516166A020E151801E116503C
:10372000BAE0640EE66EE66A10EC36F0E552E55259
:10373000A60EE66E940EE66EF5EC14F0E552E55238
:103740000001880502E184EC34F0F56E030EE15CC3
:1037500002E2E16AE552E16EF550E552E7CFD9FFAA
:103760001200D9CFE6FFE1CFD9FF030EE126DDC17C
:1037700014F0156A166A176A0E0E1512DDC1E6FFFF
:1037800015C0E6FFF5EC14F0E552E552A90EE66E21
:103790006E0EE66EF5EC14F0E552E552DEC114F063
:1037A000DFC115F0E0C116F00001176A0E0E151208
:1037B000DEC1E6FF15C0E6FFF5EC14F0E552E55278
:1037C000AA0EE66E6E0EE66EF5EC14F0E552E552CA
:1037D000FE0EDB50146E156AE8500E0E151214C062
:1037E000E6FF15C0E6FFF5EC14F0E552E552A80E31
:1037F000E66E6E0EE66EF5EC14F0E552E552A60E9E
:10380000E66E840EE66EF5EC14F0E552E552A60E77
:10381000E66E820EE66EF5EC14F0E552E5520A0E05
:10382000DF6E010EE66EE66A4EEC36F0E552E552CA
:10383000DF06A60EE66E500EE66EF5EC14F0E552CD
:10384000E552F50EE66E6E0EE66EF5EC14F0E552FE
:10385000E552000EE66EE66AF5EC14F0E552E5522C
:10386000020EE66E8AEC14F0E552D5EC14F0E66E2A
:10387000D950010FE96EDACFEAFFE552E750EE6E5C
:10388000ED6ADFCF14F0000EE76E1418E8AE02D038
:10389000143403D0E750D880145410E2020EE76EBF
:1038A000010EDBCF15F0020EDBCF16F0E750151638
:1038B000166A020E151801E11650B3E0640EE66EAA
:1038C000E66A10EC36F0E552E552A60EE66E940E6E
:1038D000E66EF5EC14F0E552E5520001880502E1D0
:1038E00084EC34F0F56E030EE15C02E2E16AE5522D
:1038F000E16EF550E552E7CFD9FF1200D9CFE6FFD0
:10390000E1CFD9FFDDC114F0156A166A176A0E0EF1
:103910001512DDC1E6FF15C0E6FFF5EC14F0E55227
:10392000E552A90EE66E6E0EE66EF5EC14F0E55269
:10393000E552FE0EDB50146E156AE8500E0E15129D
:1039400014C0E6FF15C0E6FFF5EC14F0E552E552B1
:10395000A80EE66E6E0EE66EF5EC14F0E552E5523A
:10396000A60EE66E840EE66EF5EC14F0E552E55216
:10397000550EE66E0E0EE66EF5EC14F0E552E552CD
:10398000A70EE66E6E0EE66EF5EC14F0E552E5520B
:10399000AA0EE66E0E0EE66EF5EC14F0E552E55258
:1039A000A70EE66E6E0EE66EF5EC14F0E552E552EB
:1039B000A60EE66E820EE66EF5EC14F0E552E552C8
:1039C000000EE66EE66AF5EC14F0E552E552E66AA2
:1039D0008AEC14F0E5527DC0E6FF7EC0E6FF10ECF5
:1039E00036F0E552E552000EE66EE66AA0EC14F001
:1039F000E552E552640EE66EE66A10EC36F0E552EA
:103A0000E552A60EE66E940EE66EF5EC14F0E55265
:103A1000E5520001880502E184EC34F0E552E7CF7D
:103A2000D9FF1200D9CFE6FFE1CFD9FF020EE12680
:103A30004C0EE96E010EEA6E01014851EE5C4951EF
:103A4000EE584A51EE584B51EE5803E20001636BB9
:103A50008AD0DE52030EDD6E0001635122E10001C7
:103A60006E5102E13C0E6E6FCAEC38F00001010E9F
:103A7000636F48C1DDF149C1DEF14AC1DFF14BC1DD
:103A8000E0F1A60EE66E9E0EE66EF5EC14F0E55241
:103A9000E552A60EE66E9C0EE66EF5EC14F0E552CD
:103AA000E552DD0EE96E010EEA6EEE5001014C5D4D
:103AB000EE504D59EE504E59EE504F593CE3030E27
:103AC00001010225F36E010EDBCFF4FFF350F45C2D
:103AD00032E2010EDBCFE9FFEA6AE9BEEA68010ED5
:103AE000E926010EEA22EFCFDFFF00016E513E0A08
:103AF00009E0030A03E0010A09E108D0DFCFE6FF8D
:103B0000FDDE07D0DFCFE6FF46DD03D0DFCFE6FFE7
:103B100028DEE552020E146E010EDBCFE7FF1450D3
:103B2000E726010EE7CFDBFF0101DD2B000EDE23D0
:103B3000DF23E023B6D7DD0EE96E010EEA6EEE500C
:103B400001014C5DEE504D59EE504E59EE504F591B
:103B500003E30101035102E10001636B00016351C2
:103B600002E14AEC39F0F56E020EE15C02E2E16A34
:103B7000E552E16EF550E552E7CFD9FF12000001A2
:103B80006F5102E13C0E6F6FCAEC38F00001000E7D
:103B9000D8806B55000E6C551CE2A60EE66E8E0E9C
:103BA000E66EF5EC14F0E552E552A60EE66E8C0ECC
:103BB000E66EF5EC14F0E552E552060EE66E6BEC9F
:103BC00014F0E552000EE66EE66A09EC15F0E552D7
:103BD000E55200016F513E0A10E0030A02E0010ABB
:103BE0001CE1A60EE66E8E0EE66EF5EC14F0E552C4
:103BF000E552A60EE66E9C0E0BD0A60EE66E9C0E4F
:103C0000E66EF5EC14F0E552E552A60EE66E840E73
:103C1000E66EF5EC14F0E552E55248C1E6FF49C105
:103C2000E6FF4AC1E6FF4BC1E6FFD8EC13F0E552D0
:103C3000E552E552E55201010551176A05C117F039
:103C4000166A045100011624146E000E1720156E1A
:103C500014C0E6FFE66E1EEC15F0E552E5520101D8
:103C60000751176A07C117F0166A0651000116249A
:103C7000146E000E1720156E14C0E6FFE66E1EECE3
:103C800015F0E552E55201010951176A09C117F013
:103C9000166A085100011624146E000E1720156EC6
:103CA00014C0E6FFE66E1EEC15F0E552E552010188
:103CB0000B51176A0BC117F0166A0A51000116243E
:103CC000146E000E1720156E14C0E6FFE66E33EC7E
:103CD00015F0E552E55281C0E6FF82C0E6FF48ECF0
:103CE00015F0E552E5524AEF39F0D9CFE6FFE1CFC2
:103CF000D9FFFD0EDBCFE6FFFE0EDBCFE6FF33EC98
:103D000015F0E552E5527FC0E6FF80C0E6FF48ECC3
:103D100015F0E552E5523F0E0001705D1CE1000E0A
:103D2000E66EE66AF5EC14F0E552E552000EE66E3A
:103D3000E66AF5EC14F0E552E552000EE66EE66A2E
:103D4000F5EC14F0E552E552000EE66EE66AF5EC8D
:103D500014F0E552E552DBC1E6FFDCC1E6FFF5EC0D
:103D600014F0E552E552F60EE66E6E0EE66EF5ECD8
:103D700014F0E552E5520101DB2B000EDC23E55285
:103D8000E7CFD9FF12000001705102E13C0E706FC5
:103D9000CAEC38F0000170513F0A16E0010A08E051
:103DA000030A12E0010A2EE1A60EE66E8E0E03D083
:103DB000A60EE66E840EE66EF5EC14F0E552E552C2
:103DC000A60EE66E8C0E19D0A60EE66E8E0EE66E70
:103DD000F5EC14F0E552E552A60EE66E8C0EE66E9A
:103DE000F5EC14F0E552E552E66AEF0EE66EF5ECFE
:103DF00014F0E552E552E66AF80EE66EF5EC14F0C2
:103E0000E552E55248C1E6FF49C1E6FF4AC1E6FF77
:103E10004BC1E6FFD8EC13F0E552E552E552E5520E
:103E20000101010EDB6F0E0EDC6F01010451E66E25
:103E3000E66A5BDFE552E55201010651156A06C1EB
:103E400015F0146A14C0E6FF06C1E6FF4EDFE55226
:103E5000E55201010851E66EE66A47DFE552E55298
:103E600001010A51156A0AC115F0146A14C0E6FF6F
:103E70000AC1E6FF3ADFE552E55201010C51E66E58
:103E8000E66A33DFE552E55201010E51156A0EC1B3
:103E900015F0146A14C0E6FF0EC1E6FF26DFE552F6
:103EA000E55201011051E66EE66A1FDFE552E55268
:103EB00001011251156A12C115F0146A14C0E6FF0F
:103EC00012C1E6FF12DFE552E55201011451E66E20
:103ED000E66A0BDFE552E55201011651156A16C17B
:103EE00015F0146A14C0E6FF16C1E6FFFEDEE552C7
:103EF000E55201011851E66EE66AF7DEE552E55239
:103F000001011A51156A1AC115F0146A14C0E6FFAE
:103F10001AC1E6FFEADEE552E55201011C51E66EE8
:103F2000E66AE3DEE552E55201011E51156A1EC143
:103F300015F0146A14C0E6FF1EC1E6FF33EC15F05D
:103F4000E552E5527FC0E6FF80C0E6FF48EC15F081
:103F5000E552E5523F0E0001705D1CE1000EE66E79
:103F6000E66AF5EC14F0E552E552000EE66EE66AFC
:103F7000F5EC14F0E552E552000EE66EE66AF5EC5B
:103F800014F0E552E552000EE66EE66AF5EC14F028
:083F9000E552E5524AEF39F059
:083F9800D9CFE6FFE1CFD9FF0C
:103FA000FE0EDBCFE6FF060EE66EEEEC37F0E552D6
:103FB000E552010EE66EE2EC3EF0E552E552E7CF47
:103FC000D9FF1200D9CFE6FFE1CFD9FFE652E66A6A
:103FD000010EE66EEEEC37F0E552E552FF0EE76EAD
:103FE000FD0EDBCF14F0E7501416156A1450DF6E87
:103FF000DFCFE6FF080EE66EEEEC37F0E552E55255
:10400000FD0EDBCF14F0FE0EDBCF15F015C014F063
:10401000156A1450DF6EDFCFE6FF060EE66EEEEC9B
:1040200037F0E552E552E66A010EE66EEEEC37F047
:10403000E552E552010EE66EE2EC3EF0E552E55245
:10404000E552E7CFD9FF1200D9CFE6FFE1CFD9FF84
:10405000040EE126D0EC37F0010EE66E62EC38F08B
:10406000E552DE6EDD6A080EE66E62EC38F0E5526F
:10407000E76E020EE7CFDBFF060EE66E62EC38F06D
:10408000E552E76E030EE7CFDBFF010EE66E62EC52
:1040900038F0E552DE6EDD6A030EDB50166E176AED
:1040A000176E166A020EDB5000011624146E000E05
:1040B0001720156E14C0DEFFDD6EDFEC37F0010E49
:1040C000E66EE2EC3EF0E552DECF14F0DDCF15F007
:1040D00014C0F3FF15C0F4FFF56E040EE15C02E2BC
:1040E000E16AE552E16EF550E552E7CFD9FF1200E3
:1040F000D9CFE6FFE1CFD9FF020EE126CAEC38F0B6
:10410000E66A4ADFE552000EE66EE66A5BDFE552DC
:10411000E552060EE66E40DFE552060EE66E3CDF27
:10412000E552060EE66E38DFE552060EE66E34DF27
:10413000E552060EE66E30DFE552060EE66E2CDF27
:10414000E552040EE66E28DFE5527EDFF3CFDEFF98
:10415000F4CFDDFF4AEC39F0DECF14F0DDCF15F0FF
:1041600014C0F3FF15C0F4FFF56E020EE15C02E22D
:10417000E16AE552E16EF550E552E7CFD9FF120052
:10418000D9CFE6FFE1CFD9FF0B0EE126030EF36E88
:10419000060EF3CFDBFF0101026B036B01013F0E43
:1041A000006F4C0EE96E010EEA6E01014851EE5CA3
:1041B0004951EE584A51EE584B51EE5803E2000176
:1041C000606BFED00001605127E1CAEC38F00001BD
:1041D000010E606FDE6ADE6ADE6ADD6ADD52DD5284
:1041E000D9CFE9FFDACFEAFF01014851EE5C49512E
:1041F000EE584A51EE584B51EE580EE2060EE66E5E
:10420000CBDEE552D9CFE9FFDACFEAFFEE2A000E86
:10421000EE22EE22EE22E4D7480EE96E010EEA6E9F
:10422000EE5001014C5D146EEE504D59156EEE507E
:104230004E59166EEE504F59176E142A000E152265
:1042400016221722070E14C0DBFF080E15C0DBFF75
:10425000090E16C0DBFF0A0E17C0DBFF070EDBCF0F
:1042600005F0080EDBCF06F0090EDBCF07F00A0ED3
:10427000DBCF08F00834000E081809E6D8801E0EBF
:104280000554000E0654000E0754000E08540CE2AC
:104290001E0EF36E070EF3CFDBFF080EDB6A090E6E
:1042A000DB6A0A0EDB6A02D00001606B070EDBCF0F
:1042B00004F0080EDBCF05F0090EDBCF06F00A0E86
:1042C000DBCF07F0020E096E0A6A0B6A0C6A00EC7B
:1042D0003EF000C002F148C1DFFF010E49C1DBFF23
:1042E000020E4AC1DBFF030E4BC1DBFFD950070FA3
:1042F000E96EDACFEAFF01014851EE24146E49510C
:10430000EE20156E4A51EE20166E4B51EE20176EC0
:10431000D9CFE9FFDACFEAFF1450EE5C1550EE5822
:104320001650EE581750EE582FE2040EE66E34DEAB
:10433000E5528ADE040EF3CFDBFF050EF4CFDBFF80
:10434000060EDB50EA6A010FE96E010EEA22040E46
:10435000DBCFEFFF060EDB2ADB50EA6A010FE96EC6
:10436000010EEA22050EDBCFEFFF060EDB2AE66E1A
:1043700013DEE552D9CFE9FFDACFEAFFEE2A000ECD
:10438000EE22EE22EE22B2D70101010E036FD950C8
:10439000070FE96EDACFEAFF01014851EE24486FBA
:1043A0004951EE20496F4A51EE204A6F4B51EE20A1
:1043B0004B6F0001605104E10101036B4AEC39F0DD
:1043C000F56E0B0EE15C02E2E16AE552E16EF5503A
:1043D000E552E7CFD9FF1200D9CFE6FFE1CFD9FFF1
:1043E0000B0EE126030EF36E060EF3CFDBFF010189
:1043F000520E016F026B036B01013F0E006F4C0EFA
:10440000E96E010EEA6E01014851EE5C4951EE5829
:104410004A51EE584B51EE5803E20001616BE1D076
:104420000001615127E1CAEC38F00001010E616F13
:10443000DE6ADE6ADE6ADD6ADD52DD52D9CFE9FF6F
:10444000DACFEAFF01014851EE5C4951EE584A517A
:10445000EE584B51EE580EE2060EE66E9DDDE5522B
:10446000D9CFE9FFDACFEAFFEE2A000EEE22EE22E4
:10447000EE22E4D7480EE96E010EEA6EEE5001011D
:104480004C5D146EEE504D59156EEE504E59166E31
:10449000EE504F59176E142A000E152216221722BD
:1044A000070E14C0DBFF080E15C0DBFF090E16C097
:1044B000DBFF0A0E17C0DBFF070EDBCF05F0080E8F
:1044C000DBCF06F0090EDBCF07F00A0EDBCF08F0DA
:1044D0000834000E081809E6D8803C0E0554000E7A
:1044E0000654000E0754000E08540CE23C0EF36E06
:1044F000070EF3CFDBFF080EDB6A090EDB6A0A0E3C
:10450000DB6A02D00001616B070EDBCF02F148C10C
:10451000DFFF010E49C1DBFF020E4AC1DBFF030EC4
:104520004BC1DBFFD950070FE96EDACFEAFF01017B
:104530004851EE24146E4951EE20156E4A51EE207A
:10454000166E4B51EE20176ED9CFE9FFDACFEAFF96
:104550001450EE5C1550EE581650EE581750EE58A9
:1045600024E2050EE66E18DDE5526EDD040EF3CF93
:10457000DBFF050EF4CFDBFF060EDB50EA6A010F0E
:10458000E96E010EEA22040EDBCFEFFF060EDB2AF6
:10459000E66E02DDE552D9CFE9FFDACFEAFFEE2A77
:1045A000000EEE22EE22EE22BDD70101010E036FB6
:1045B000D950070FE96EDACFEAFF01014851EE2426
:1045C000486F4951EE20496F4A51EE204A6F4B51D6
:1045D000EE204B6F0001615104E10101036B4AECD5
:1045E00039F0F56E0B0EE15C02E2E16AE552E16E34
:1045F000F550E552E7CFD9FF1200D9CFE6FFE1CF62
:10460000D9FF070EE126030EF36E040EF3CFDBFF96
:104610000101080E026F036B01013F0E006FCAEC2F
:1046200038F0E66AB9DCE552000EE66EE66ACADCEE
:10463000E552E552DE6A200EDE6EDE6ADD6ADD528C
:10464000DD52D9CFE9FFDACFEAFF01014851EE5C34
:104650004951EE584A51EE584B51EE580EE2060EB3
:10466000E66E9ADCE552D9CFE9FFDACFEAFFEE2A0F
:10467000000EEE22EE22EE22E4D748C1DFFF010E4B
:1046800049C1DBFF020E4AC1DBFF030E4BC1DBFF5A
:10469000D9CFE9FFDACFEAFFEE5001014C5DEE50D1
:1046A0004D59EE504E59EE504F5930E3040EE66E20
:1046B00073DCE552C9DC050EF3CFDBFF060EF4CF49
:1046C000DBFF040EDB50EA6A010FE96E010EEA22FD
:1046D000050EDBCFEFFF040EDB2ADB50EA6A010F89
:1046E000E96E010EEA22060EDBCFEFFF040EDB2A95
:1046F000060EE66E51DCE552D9CFE9FFDACFEAFFCC
:10470000EE2A000EEE22EE22EE22C2D7040EDB507D
:10471000FD0F0101026F4AEC39F0F56E070EE15C06
:1047200002E2E16AE552E16EF550E552E7CFD9FFCA
:104730001200FDEF22F0CAEC38F0000171512E0A90
:1047400001E1DBD0030A01E1B3D0010A01E181D02C
:10475000070A6BE0010A01E1ABD0030A39E0010A64
:1047600001E031D1E66A18DCE552000EE66EE66A39
:1047700029DCE552E552020EE66E0EDCE552E668F3
:104780003F0EE66E1FDCE552E552090EE66ECCECFC
:104790001FF0E552080EE66ECCEC1FF0E55200016A
:1047A00083517925146E84517A21156E14C0E6FF69
:1047B000E66E10EC36F0E552E552020EE66ECCECF9
:1047C0001FF0E552E6683F0EE66EE2EC1FF016D0F1
:1047D000090EE66ECCEC1FF0E552080EE66ECCEC4E
:1047E0001FF0E552000183517925146E84517A211E
:1047F000156E14C0E6FFE66E10EC36F0E552E55299
:104800000B0EE66ECCEC1FF0E552080EE66ECCEC1B
:104810001FF0E552000183517925146E84517A21ED
:10482000156E14C0E6FFE66E64D0E66ACCEC1FF0AD
:10483000E552000EE66EE66AE2EC1FF0E552E55244
:10484000020EE66ECCEC1FF0E552E6683F0EE66E17
:1048500036D0E66ACCEC1FF0E552000EE66EE66A52
:10486000E2EC1FF0E552E552090EE66ECCEC1FF0CB
:10487000E552080EE66ECCEC1FF0E552030EE66E34
:10488000E66A4EEC36F0E552E552110EE66ECCECDF
:104890001FF0E5520B0EE66ECCEC1FF0E552030E56
:1048A000E66EE66A4EEC36F0E552E552110E87D020
:1048B000E66ACCEC1FF0E552000EE66EE66AE2EC2A
:1048C0001FF0E552E552090EE66ECCEC1FF0E55202
:1048D00083C0E6FF84C0E6FF10EC36F0E552E552F7
:1048E0000B0EE66ECCEC1FF0E55283C0E6FF84C0F1
:1048F000E6FF10EC36F0E55265D0020EE66ECCEC29
:104900001FF0E552E6683F0EE66EE2EC1FF0E5525E
:10491000E552010EE66ECCEC1FF0E552070EE66E96
:10492000CCEC1FF0E552080EE66ECCEC1FF0E55221
:10493000000183517925146E84517A21156E14C0BB
:10494000E6FFE66E10EC36F0E552E552010EE66E3B
:10495000CCEC1FF0E552070EE66ECCEC1FF0E552F2
:10496000030EE66ECCEC1FF0E552E6683F0EE66EF5
:10497000E2EC1FF0E552E552010EE66ECCEC1FF0C2
:10498000E552070EE66ECCEC1FF0E552080EE66E1F
:10499000CCEC1FF0E552000183517925146E84514F
:1049A0007A21156E14C0E6FFE66E10EC36F0E55283
:1049B000E552010EE66ECCEC1FF0E552070EE66EF6
:1049C000CCEC1FF0E5524AEF39F0060EE66ECCEC67
:1049D0001FF0E552060EE66ECCEC1FF0E552060E17
:1049E000E66ECCEC1FF0E552060EE66ECCEC1FF046
:1049F000E552060EE66ECCEC1FF0E552060EE66EB2
:104A0000CCEC1FF0E552060EE66ECCEC1FF0E55242
:104A10001200CAEC38F0000172512E0A01E179D07F
:104A2000030A70E0010A3DE0070A20E0010A0FE0F6
:104A3000030A0BE0010A01E0A6D0E66ACCEC1FF005
:104A4000E552000EE66EE66A6BD075DE9CD0E66A33
:104A5000CCEC1FF0E552F00EE66E3F0EE66EE2EC97
:104A60001FF0E552E552B1DF1F0E41D0E66ACCECF3
:104A70001FF0E552F00EE66E3F0EE66EE2EC1FF020
:104A8000E552E552A2DF020EE66ECCEC1FF0E552D5
:104A9000E6683F0EE66EE2EC1FF0E552E552090EC5
:104AA00026D0090EE66ECCEC1FF0E55283C0E6FF7F
:104AB00084C0E6FF10EC36F0E552E552E66ACCEC35
:104AC0001FF0E552000EE66EE66AE2EC1FF0E552DA
:104AD000E552090EE66ECCEC1FF0E55283C0E6FF0E
:104AE00084C0E6FF10EC36F0E552E5520B0EE66EA0
:104AF000CCEC1FF0E55283C0E6FF84C0E6FF10EC6B
:104B000036F03FD0E66ACCEC1FF0E552F00EE66ED0
:104B100005D0E66ACCEC1FF0E552E6683F0EE66E83
:104B2000E2EC1FF0E552E55250DF010EE66ECCECF0
:104B30001FF0E552070EE66ECCEC1FF0E552080EB2
:104B4000E66ECCEC1FF0E552000183517925146E1E
:104B500084517A21156E14C0E6FFE66E10EC36F033
:104B6000E552E552010EE66ECCEC1FF0E552070E61
:104B7000E66ECCEC1FF0E552320EE66EE66A4EECC5
:104B800036F0E552E5524AEF39F0D9CFE6FFE1CFF2
:104B9000D9FF030EE12674C0DFFF4C0EE96E010E53
:104BA000EA6E01014851EE5C4951EE584A51EE5807
:104BB0004B51EE5803E20001626B9FD1030EF36E7E
:104BC000020EF3CFDBFF0001625101E07BD0000158
:104BD000876B200E875D0EE28751E96EEA6AD890F6
:104BE000E936EA36500EE926010EEA22EE6AED6A4F
:104BF000872BEFD7876BCAEC38F00001010E626F8C
:104C00000101D26BD36BD46BD56BDFCF18F0196A6F
:104C10001A6A1B6A18AE03D019681A681B6848C163
:104C200004F049C105F04AC106F04BC107F018C0B5
:104C300009F019C00AF01AC00BF01BC00CF065ECAB
:104C40003EF000500101485D146E01504959156E47
:104C500002504A59166E03504B59176E14500101F9
:104C6000D25D1550D3591650D4591750D5590CE26E
:104C7000060EE66ECCEC1FF0E5520101D22B000EC1
:104C8000D323D423D523C1D7DFCF14F0156A166AF6
:104C9000176A14AE03D015681668176848C104F087
:104CA00049C105F04AC106F04BC107F014C009F034
:104CB00015C00AF016C00BF017C00CF065EC3EF002
:104CC00000C087F0D20EE96E010EEA6EEE500101CF
:104CD0004C5DEE504D59EE504E59EE504F5901E299
:104CE000F4D0030E01010225F36E020EDBCFF4FFB8
:104CF000F350F45C01E3E9D0DF500001875D43E24B
:104D0000030E01010225F36E020EDBCFF4FFF35018
:104D1000F45C39E2020EDB28E96EEA6AE9BEEA6871
:104D2000010EE926010EEA22EF50176A176E166A85
:104D3000020EDBCFE9FFEA6AE9BEEA68010EE92666
:104D4000010EEA22EF5000011624146E000E172007
:104D5000156E00018751E96EEA6AD890E936EA36A5
:104D6000500EE926010EEA2214C0EEFF15C0EDFF39
:104D7000872B020E146EDBCFE7FFE850E726020E0A
:104D8000E7CFDBFFB9D7DF500001875D03E001010A
:104D9000035198E10001876BDF50875D24E2020E2A
:104DA000E66ECCEC1FF0E55200018751E96EEA6A2D
:104DB000D890E936EA36500EE926010EEA22EECF07
:104DC000E6FFEFCFE6FFE2EC1FF0E552E552DF042D
:104DD0000001875D05E2060EE66ECCEC1FF0E552A1
:104DE0000001872BD9D700016D512E0A3BE0030A41
:104DF0002CE0010A1BE0070A17E0010A06E0030A9B
:104E000004E0010A41E1180E21D0180EE66ECCEC48
:104E10001FF0E55279C0E6FF7AC0E6FF10EC36F0ED
:104E2000E552E552170E2CD0080E1DD0180EE66E76
:104E3000CCEC1FF0E55279C0E6FF7AC0E6FF10EC3B
:104E400036F0E552E5520A0E1BD0080EE66ECCECA9
:104E50001FF0E55279C0E6FF7AC0E6FF10EC36F0AD
:104E6000E55211D0180EE66ECCEC1FF0E55279C079
:104E7000E6FF7AC0E6FF10EC36F0E552E5520E0E82
:104E8000E66ECCEC1FF0E552060EE66ECCEC1FF0A1
:104E9000E552DFCF14F0156A166A176A14AE03D014
:104EA00015681668176814500101D2271550D323CE
:104EB0001650D4231750D5230001876B00018805B5
:104EC00001E000D784EC34F0FDD6D20EE96E010E7D
:104ED000EA6EEE5001014C5DEE504D59EE504E59C8
:104EE000EE504F5903E30101035102E10001626BEF
:104EF0000001625102E14AEC39F0F56E030EE15C0B
:104F000002E2E16AE552E16EF550E552E7CFD9FFE2
:104F10001200D9CFE6FFE1CFD9FF030EE12675C01D
:104F2000DFFF4C0EE96E010EEA6E01014851EE5CA6
:104F30004951EE584A51EE584B51EE5803E20001E8
:104F4000636B63D1030EF36E020EF3CFDBFF000140
:104F5000635101E076D00001876B200E875D09E286
:104F60008751EA6A500FE96E010EEA22EF6A872B39
:104F7000F4D7876BCAEC38F00001010E636F0101B2
:104F8000D66BD76BD86BD96BDFCF18F0196A1A6A5A
:104F90001B6A18AE03D019681A681B6848C104F070
:104FA00049C105F04AC106F04BC107F018C009F02D
:104FB00019C00AF01AC00BF01BC00CF065EC3EF0F3
:104FC00000500101485D146E01504959156E0250A0
:104FD0004A59166E03504B59176E14500101D65D95
:104FE0001550D7591650D8591750D9590CE2060EFA
:104FF000E66ECCEC1FF0E5520101D62B000ED72354
:10500000D823D923C1D7DFCF14F0156A166A176ADF
:1050100014AE03D015681668176848C104F049C17A
:1050200005F04AC106F04BC107F014C009F015C0E5
:105030000AF016C00BF017C00CF065EC3EF000C093
:1050400087F0D60EE96E010EEA6EEE5001014C5D5E
:10505000EE504D59EE504E59EE504F5901E2BDD031
:10506000030E01010225F36E020EDBCFF4FFF350B5
:10507000F45C01E3B2D0DF500001875D3DE2030E36
:1050800001010225F36E020EDBCFF4FFF350F45C56
:1050900033E2020EDB28E96EEA6AE9BEEA68010E35
:1050A000E926010EEA22EF50176A176E166A020E01
:1050B000DBCFE9FFEA6AE9BEEA68010EE926010EE4
:1050C000EA22EF5000011624146E000E1720156E10
:1050D00000018751EA6A500FE96E010EEA2214C0FE
:1050E000EFFF872B020E146EDBCFE7FFE850E726B9
:1050F000020EE7CFDBFFBFD7DF500001875D03E083
:10510000010103519EE10001876BDF50875D1FE2C3
:10511000030EE66ECCEC1FF0E55200018751EA6AFF
:10512000500FE96E010EEA22EF50E66EE66AE2ECFD
:105130001FF0E552E552DF040001875D05E2060E2F
:10514000E66ECCEC1FF0E5520001872BDED70001A4
:105150006E51290A0FE0010A1FE1080EE66ECCEC41
:105160001FF0E5527DC0E6FF7EC0E6FF10EC36F092
:10517000E55211D0180EE66ECCEC1FF0E55279C066
:10518000E6FF7AC0E6FF10EC36F0E552E552170E66
:10519000E66ECCEC1FF0E552060EE66ECCEC1FF08E
:1051A000E552DFCF14F0156A166A176A14AE03D001
:1051B00015681668176814500101D6271550D723B3
:1051C0001650D8231750D9230001876B000188059A
:1051D00001E037D784EC34F034D7D60EE96E010EF7
:1051E000EA6EEE5001014C5DEE504D59EE504E59B5
:1051F000EE504F5903E30101035102E10001636BDB
:105200000001635102E14AEC39F0F56E030EE15CF6
:1052100002E2E16AE552E16EF550E552E7CFD9FFCF
:105220001200D9CFE6FFE1CFD9FF060EE126030E2B
:10523000F36EDB6ECAEC38F0E66ACCEC1FF0E55298
:10524000000EE66EE66AE2EC1FF0E552E552DE6A19
:10525000200EDD6EDECF14F0DDCF15F0166A176A72
:1052600001014851145C495115584A5116584B5187
:1052700017580AE2060EE66ECCEC1FF0E552DF2A64
:10528000010EE8E3DB2AE6D7DECF14F0DDCF15F020
:10529000166A176A145001014C5D15504D5916508D
:1052A0004E5917504F5901E2D2D02A0E00016F5DBE
:1052B00012E1080EE66ECCEC1FF0E55281C0E6FF6D
:1052C00082C0E6FF10EC36F0E552E552170EE66EAE
:1052D000CCEC1FF0E552010EF36E020EF3CFDBFFB4
:1052E000DBCF14F000017651D880145454E3030E40
:1052F000DB28E96EEA6AE9BEEA68010EE926010EDA
:10530000EA22EF50166E176A176E166A030EDBCF8D
:10531000E9FFEA6AE9BEEA68010EE926010EEA221F
:10532000EF5000011624146E000E1720156E040EA7
:1053300014C0DBFF050E15C0DBFF020E146E030E5A
:10534000DBCFE7FF1450E726030EE7CFDBFF010EAC
:10535000DE26000EDD22020EE66ECCEC1FF0E552DA
:10536000040EDBCFE6FF050EDBCFE6FFE2EC1FF01D
:10537000E552E55200017651F36E020EDBCFF4FFE9
:10538000F350F45C05E2060EE66ECCEC1FF0E5523D
:10539000020EDB2AA5D76F512E0A3BE0030A2CE050
:1053A000010A1BE0070A17E0010A06E0030A04E00D
:1053B000010A41E1180E21D0180EE66ECCEC1FF068
:1053C000E55281C0E6FF82C0E6FF10EC36F0E55200
:1053D000E552170E2CD0080E1DD0180EE66ECCEC40
:1053E0001FF0E55281C0E6FF82C0E6FF10EC36F008
:1053F000E552E5520A0E1BD0080EE66ECCEC1FF00B
:10540000E55281C0E6FF82C0E6FF10EC36F0E552BF
:1054100011D0180EE66ECCEC1FF0E55281C0E6FF0D
:1054200082C0E6FF10EC36F0E552E5520E0EE66E55
:10543000CCEC1FF0E552060EE66ECCEC1FF0E55208
:105440000001880501E020D784EC34F01DD74AEC38
:1054500039F0F56E060EE15C02E2E16AE552E16EBA
:10546000F550E552E7CFD9FF1200D9CFE6FFE1CFE3
:10547000D9FF060EE126CAEC38F0030EF36EDB6EA0
:10548000E66ACCEC1FF0E552000EE66EE66AE2EC4E
:105490001FF0E552E552DE6A200EDD6EDECF14F01D
:1054A000DDCF15F0166A176A01014851145C4951A5
:1054B00015584A5116584B5117580AE2060EE66E17
:1054C000CCEC1FF0E552DF2A010EE8E3DB2AE6D739
:1054D000DECF14F0DDCF15F0166A176A1450010103
:1054E0004C5D15504D5916504E5917504F5901E209
:1054F000BED0010EF36E020EF3CFDBFFDBCF14F054
:1055000000017751D880145454E3030EDB28E96E70
:10551000EA6AE9BEEA68010EE926010EEA22EF50C6
:10552000166E176A176E166A030EDBCFE9FFEA6A7A
:10553000E9BEEA68010EE926010EEA22EF500001F9
:105540001624146E000E1720156E040E14C0DBFF17
:10555000050E15C0DBFF020E146E030EDBCFE7FF56
:105560001450E726030EE7CFDBFF010EDE26000E08
:10557000DD22020EE66ECCEC1FF0E552040EDBCF0E
:10558000E6FF050EDBCFE6FFE2EC1FF0E552E55249
:1055900000017751F36E020EDBCFF4FFF350F45CA1
:1055A00005E2060EE66ECCEC1FF0E552020EDB2A99
:1055B000A5D770512E0A3DE0030A2EE0010A1DE036
:1055C000070A19E0010A08E0030A04E0010A43E1BE
:1055D000180E23D0080E21D0180EE66ECCEC1FF06A
:1055E000E5527FC0E6FF80C0E6FF10EC36F0E552E2
:1055F000E552170E2CD0080E1DD0180EE66ECCEC1E
:105600001FF0E5527FC0E6FF80C0E6FF10EC36F0E9
:10561000E552E5520A0E1BD0080EE66ECCEC1FF0E8
:10562000E5527FC0E6FF80C0E6FF10EC36F0E552A1
:1056300011D0180EE66ECCEC1FF0E5527FC0E6FFED
:1056400080C0E6FF10EC36F0E552E5520E0EE66E35
:10565000CCEC1FF0E552060EE66ECCEC1FF0E552E6
:105660000001880501E034D784EC34F031D74AECEE
:1056700039F0F56E060EE15C02E2E16AE552E16E98
:0A568000F550E552E7CFD9FF120004
:06568A00D9CFE6FFE1CFDD
:10569000D9FFE66A070EE66EEEEC37F0E552E5520A
:1056A000010EE66EE2EC3EF0E552D950FB0FE96EDA
:1056B000FF0EDA20EA6EEECFE6FFEECFE6FFEECF8A
:1056C000E6FFEFCFE6FF32EC04F0E552E552E5529B
:1056D000E552E552E7CFD9FF1200FBEC38F0E66A5D
:1056E000E66AE66AE66AD1DFE552E552E552E5523E
:1056F00007EC05F0E66A020EE66E040EE66EE66A58
:10570000E9EC04F0E552E552E552E55207EF05F009
:10571000D9CFE6FFE1CFD9FF040EE126DEDFF00EA0
:10572000E66E0F0EE66E200EE66EE66AE9EC04F019
:10573000E552E552E552E552900EE66E010EE66E38
:10574000880EE66EE66AE9EC04F0E552E552E552B1
:10575000E552E66A030EE66EEB0EE66EE66AE9ECEB
:1057600004F0E552E552E552E552470EE66E780E3A
:10577000E66E200EE66EE66AE9EC04F0E552E552CC
:10578000E552E55207EC05F0B60EE66E0B0EE66E3E
:10579000BA0EE66EE66AE9EC04F0E552E552E5522F
:1057A000E55207EC05F007EC05F088EC05F0F3CFC7
:1057B000DEFFF4CFDDFFB60EE66E0B0EE66EBA0E20
:1057C000E66EE66AE9EC04F0E552E552E552E55290
:1057D00007EC05F007EC05F088EC05F0020EF3CFBE
:1057E000DBFF030EF4CFDBFFE66A020EE66E040E6B
:1057F000E66EE66AE9EC04F0E552E552E552E55260
:1058000007EC05F04AEC39F0DECF14F0DDCF15F0EF
:1058100014C0F3FF15C0F4FFF56E040EE15C02E264
:10582000E16AE552E16EF550E552E7CFD9FF12008B
:10583000D9CFE6FFE1CFD9FF110EE126030EF36EBB
:10584000080EF3CFDBFF0101026B036B01013F0E7A
:10585000006F4C0EE96E010EEA6E01014851EE5CDC
:105860004951EE584A51EE584B51EE5803E20001AF
:10587000606BADD10001605101E095D0010E606F09
:10588000166A176A48C1DFFF49C1DBFF020E16C066
:10589000DBFF030E17C0DBFFD9CFE9FFDACFEAFF4A
:1058A000040EE76ED890EF36010EEB36020EEB36A3
:1058B000030EEB36E706F6E14AC116F0146A156AE4
:1058C000176A040E14C0DBFF050E15C0DBFF060EC1
:1058D0004AC1DBFF070E17C0DBFFD950040FE96E8A
:1058E000DACFEAFF0C0EE76ED890030EEB32020E11
:1058F000EB32010EEB32EF32E706F6E1EEDE040E9C
:10590000DBCF14F0050EDBCF15F0060EDBCF16F063
:10591000070EDBCF17F0168A14C0E6FF15C0E6FFAE
:1059200016C0E6FF17C0E6FFE9EC04F0E552E552C9
:10593000E552E552900EE66E010EE66E880EE66EBA
:10594000E66AE9EC04F0E552E552E552E552D9CFBA
:10595000E9FFDACFEAFFEECF14F0EECF15F0EECF8D
:1059600016F0EFCF17F0060E1412168A14C0E6FFD9
:1059700015C0E6FF16C0E6FF17C0E6FFE9EC04F02D
:10598000E552E552E552E552470EE66E780EE66EB8
:10599000200EE66EE66AE9EC04F0E552E552E552C7
:1059A000E55207EC05F0480EE96E010EEA6EEE5086
:1059B00001014C5D146EEE504D59156EEE504E596E
:1059C000166EEE504F59176E142A000E152216222D
:1059D0001722030E096E0A6A0B6A0C6A14C004F0DF
:1059E00015C005F016C006F017C007F000EC3EF039
:1059F00000C014F001C015F002C016F003C017F08B
:105A0000010E1F0B07E0D8901436153616361736E0
:105A1000E806F9E1090E14C0DBFF0A0E15C0DBFF32
:105A20000B0E16C0DBFF0C0E17C0DBFF090EDBCF21
:105A300005F00A0EDBCF06F00B0EDBCF07F00C0EE5
:105A4000DBCF08F00834000E081809E6D8803C0EB9
:105A50000554000E0654000E0754000E08540CE2C4
:105A60003C0EF36E090EF3CFDBFF0A0EDB6A0B0E62
:105A7000DB6A0C0EDB6A02D00001606B090EDBCF23
:105A800002F1030EF36E080EF3CFDBFF080EDBCF3F
:105A900014F0156A166A176A090EDBCF18F00A0EA1
:105AA000DBCF19F00B0EDBCF1AF00C0EDBCF1BF0A7
:105AB000030E1826000E19221A221B22030E185E4E
:105AC000000E195A1A5A1B5A1B501718E8AE02D06A
:105AD000173408D01450185C1550195816501A581D
:105AE00017501B585CE3960EE66E1B0EE66EBA0E60
:105AF000E66EE66AE9EC04F0E552E552E552E5525D
:105B000007EC05F007EC05F088EC05F00D0EF3CF7F
:105B1000DBFF0E0EF4CFDBFFB60EE66E9B0EE66EDD
:105B2000BA0EE66EE66AE9EC04F0E552E552E5529B
:105B3000E55207EC05F007EC05F088EC05F00F0ED8
:105B4000F3CFDBFF100EF4CFDBFF080EDB50EA6A69
:105B5000010FE96E010EEA220D0EDBCFEFFF080EFA
:105B6000DB2ADB50EA6A010FE96E010EEA220E0E13
:105B7000DBCFEFFF080EDB2ADB50EA6A010FE96E8C
:105B8000010EEA220F0EDBCFEFFF080EDB2A020E1A
:105B900001014827000E49234A234B2377D70101EF
:105BA000010E036F0001605112E1E66A010EE66E1C
:105BB000040EE66EE66AE9EC04F0E552E552E552C1
:105BC000E55207EC05F00101036B4AEC39F0F56E84
:105BD000110EE15C02E2E16AE552E16EF550E55238
:105BE000E7CFD9FF12000101026B036B01013F0EE9
:105BF000006F12000101026B036B01013F0E006F89
:105C00001200D9CFE6FFE1CFD9FF030EE12665DD13
:105C1000800EE66E0F0EE66E200EE66EE66AE9EC8A
:105C200004F0E552E552E552E552900EE66E010EA3
:105C3000E66E880EE66EE66AE9EC04F0E552E5529F
:105C4000E552E552E66A030EE66EEB0EE66EE66A94
:105C5000E9EC04F0E552E552E552E552470EE66EF6
:105C6000780EE66E200EE66EE66AE9EC04F0E55288
:105C7000E552E552E55207EC05F0020EDB6ADBCF98
:105C800014F00B0EE76E1418E8AE02D0E73402D021
:105C9000E750145C55E2B60EE66E0B0EE66EBA0ED9
:105CA000E66EE66AE9EC04F0E552E552E552E552AB
:105CB00007EC05F007EC05F088EC05F0F3CFDEFF0C
:105CC000F4CFDDFF020EDB50040DF350030FE96E3D
:105CD000EA6AE9BEEA68010EE926010EEA22DFCF90
:105CE000EFFF020EDB50040DF350040FE96EEA6A79
:105CF000E9BEEA68010EE926010EEA22010EDBCFB9
:105D0000EFFF020EDB50040DF350050FE96EEA6A57
:105D1000E9BEEA68010EE926010EEA22EF6A020EE8
:105D2000DB50040DF350060FE96EEA6AE9BEEA683B
:105D3000010EE926010EEA22EF6A020EDB2A9FD746
:105D4000E66A020EE66E040EE66EE66AE9EC04F020
:105D5000E552E552E552E55207EC05F04AEC39F020
:105D6000020EDB50040DF3CF02F10101036B0101C0
:105D70003F0E006FF56E030EE15C02E2E16AE55250
:105D8000E16EF550E552E7CFD9FF1200C8EF2EF0D3
:105D9000D9CFE6FFE1CFD9FF020EE1269EDCFA0E55
:105DA000E66E040EE66E240EE66EE66AE9EC04F09A
:105DB000E552E552E552E5520A0EE66E3B0EE66EFE
:105DC000880EE66EE66AE9EC04F0E552E552E5522B
:105DD000E552610EE66EE70EE66EA80EE66EE66A26
:105DE000E9EC04F0E552E552E552E55207EC05F026
:105DF000E66A020EE66E040EE66EE66AE9EC04F070
:105E0000E552E552E552E55207EC05F0410EE66E2B
:105E1000780EE66E200EE66EE66AE9EC04F0E552D6
:105E2000E552E552E552020EE66E760EE66E200E63
:105E3000E66EE66AE9EC04F0E552E552E552E55219
:105E4000920EE66E080EE66E780EE66EE66AE9ECF5
:105E500004F0E552E552E552E55207EC05F088EC16
:105E600005F0F3CFDEFFF4CFDDFF010EDB8E00097E
:105E7000BFE14AEC39F0F56E020EE15C02E2E16A44
:105E8000E552E16EF550E552E7CFD9FF120012005E
:105E90000101026B036B01013F0E006F1200010153
:105EA000026B036B01013F0E006F1200D9CFE6FFBA
:105EB000E1CFD9FF070EE12610DC070EE66EE66A99
:105EC000200EE66EE66AE9EC04F0E552E552E55292
:105ED000E5520A0EE66EE66A240EE66EE66AE9EC24
:105EE00004F0E552E552E552E5520A0EE66E3B0E2D
:105EF000E66E880EE66EE66AE9EC04F0E552E552DD
:105F0000E552E552DF6ADFCF14F00B0EE76E14188E
:105F1000E8AE02D0E73402D0E750145C01E3CDD004
:105F2000800EE66E0F0EE66E200EE66EE66AE9EC77
:105F300004F0E552E552E552E552900EE66E010E90
:105F4000E66E880EE66EE66AE9EC04F0E552E5528C
:105F5000E552E552040EDF02F350040FE96EEA6ADF
:105F6000E9BEEA68010EE926010EEA22EFCF14F03D
:105F7000010E14C0DBFF020EDB6A030EDB6A040EA7
:105F8000DB6AD950010FE96EDACFEAFFEF50EE6A13
:105F9000EFCFF4FFEE6EEF50F4CFEEFFEF6E010E99
:105FA000DBCF14F0020EDBCF15F0030EDBCF16F0C3
:105FB000040EDBCF17F0168A14C0E6FF15C0E6FF0B
:105FC00016C0E6FF17C0E6FFE9EC04F0E552E55223
:105FD000E552E552960EE66E1B0EE66EBB0EE66EC1
:105FE000E66AE9EC04F0E552E552E552E55207ECC9
:105FF00005F007EC05F0610EE66EE70EE66EA80E02
:10600000E66EE66AE9EC04F0E552E552E552E55247
:1060100007EC05F0E66A020EE66E040EE66EE66A2E
:10602000E9EC04F0E552E552E552E55207EC05F0E3
:10603000410EE66E780EE66E200EE66EE66AE9EC3C
:1060400004F0E552E552E552E552020EE66E760E98
:10605000E66E200EE66EE66AE9EC04F0E552E552E3
:10606000E552E552920EE66E080EE66E780EE66E8A
:10607000E66AE9EC04F0E552E552E552E55207EC38
:1060800005F088EC05F0050EF3CFDBFF060EF4CF2C
:10609000DBFFDB8E010E0009BDE1E66A020EE66E53
:1060A000040EE66EE66AE9EC04F0E552E552E552CC
:1060B000E55207EC05F0DF2A26D74AEC39F0F56EF9
:1060C000070EE15C02E2E16AE552E16EF550E5524D
:0660D000E7CFD9FF12002A
:0A60D6008A9093908B929492FA0E38
:1060E000891692160101010EE16FABEC37F0010148
:1060F0000E0EE26F476B47C146F147C145F147C1FC
:1061000044F147C143F147C142F147C141F10001A8
:10611000280E666F000196910001CD0E976F000169
:10612000CB0E986F92829286050EC26E0B0EC16ED8
:106130003B0EC06EC08E3EEC34F08A80FA0EE66EE6
:10614000E66A4EEC36F0E552E5528B82FA0EE66EC8
:10615000E66A4EEC36F0E552E5528A90FA0EE66EAB
:10616000E66A4EEC36F0E552E5528B921200060ECE
:106170000001925D05E36D50020B01E0120001D8B1
:106180001200D9CFE6FFE1CFD9FF070EE126400E7E
:10619000E66E010EE66E010EE66E22EC3DF0E55273
:1061A000E552E552000901E182D20101006B0101D3
:1061B0000151FF0A01E155D28E0A01E14DD2010AD7
:1061C00001E145D2130A01E13DD2010A01E135D2D4
:1061D000030A01E12DD2010A01E125D2340A01E1CD
:1061E00020D2070A01E11BD2010A01E116D2030AFB
:1061F00001E111D2140A01E10BD2010A01E105D239
:10620000140A01E1F1D1120A01E19ED1030A01E170
:1062100051D1010A01E142D17F0A01E134D1010AE1
:1062200001E125D1050A01E1E5D0070A01E1D6D057
:10623000060A01E1C1D0030A01E1B4D0010A01E17B
:10624000A5D0050A01E19AD07E0A4BE0740A2AE043
:10625000060A0CE0310A01E018D201010A0E036FB0
:106260000101046B0101040E006F10D20101010E47
:10627000006F0101025102E18A8013D00101020581
:1062800002E18B820ED0040E0101025D02E18A90D0
:1062900008D0050E0101025D02E18B9202D00101DE
:1062A000006BF4D1010E146E960EE96E000EEA6ECC
:1062B000EF50010B1410F36EF350010BF36EF46EFC
:1062C000FE0EEF14F310EF6EF450000902E03AEC0A
