:020000040000FA
:06000000DFEF03F0120027
:0600080004EF04F01200F9
:060018000CEF04F01200E1
:02002A000000D4
:04002C000001776BED
:100030001E0E716E0401400E096F200E0A6F040E31
:100040000B6F880E086F0401200E0E6F040E0F6FE9
:10005000400E0C6F1200550EA76EAA0EA76EA68258
:1000600012000401226B010E236F12000001756B58
:10007000040121510001755D20E275C000F0016AA4
:10008000026A040122510024F36E23510120F46E10
:1000900024510220F86EF4CFF7FFF3CFF6FF0800EB
:1000A000F5CF76F000017551EA6A250FE96E040E6E
:1000B000EA2276C0EFFF752BDBD7F86A1200F00E4C
:1000C00004012217840EA66E0001756B04012151F4
:1000D0000001755D26E27551EA6A250FE96E040E8E
:1000E000EA22EFCF03F075C000F0016A026A040152
:1000F00022510024F36E23510120F46E245102207A
:10010000F86EF4CFF7FFF3CFF6FF03C0F5FF0C0056
:100110000F0E000175150F0801E19DDF0001752B21
:10012000D5D71200940EA66E0001756B0401215103
:100130000001755D1EE27551006E016A060ED890D1
:1001400000360136E804FBE1026A01BE02680401E0
:1001500022510024F36E23510120F46E2451022019
:10016000F86EF4CFF7FFF3CFF6FF75DF0001752BC4
:10017000DDD7F86A1200A66A0001756B04012151EF
:100180000001755D10E20401225100017525A96E80
:10019000A6807551EA6A250FE96E040EEA22A8CFFF
:1001A000EFFF752BEBD712000001756B0401215195
:1001B0000001755D15E20401225100017525A96E4B
:1001C0007551EA6A250FE96E040EEA22EF50A86E17
:1001D000040EA66E40DFA6B2FED70001752BE6D74F
:1001E0001200C40EA66E0001756B040121510001BE
:1001F000755D21E27551EA6A250FE96E040EEA2267
:10020000EFCF03F075C000F0016A026A04012251C9
:100210000024F36E23510120F46E24510220F86E65
:10022000F4CFF7FFF3CFF6FF03C0F5FF0C0013DFA9
:100230000001752BDAD7F86A1200060E00017A5D0C
:1002400003E36D50020B01E077D00001770511E167
:1002500004010CBF0DD00401400E096F400E0401D3
:1002600008170401087D880E040108130001776B4C
:1002700063D0040108BF60D00001756B04012051F8
:10028000320A45E0CD0A34E0F80A2DE0020A26E001
:10029000010A1FE0070A18E0010A11E0030A0AE058
:1002A000070A08E0060A01E036D0DBDE0001040E92
:1002B000756F32D0DBDE050E000175272DD0FFDE15
:1002C0000001010E756F28D02DDF0001010E756F42
:1002D00023D051DF050E000175271ED065DF000118
:1002E000010E756F19D07DDF0001010E756F14D0FE
:1002F0006D960001786B796B00017807000E795BD1
:1003000000017851791101E0F7D7FF0005D0000115
:10031000010E756F01D000D00001010E776F000152
:1003200075510AE075C00DF4400E04010C1704016C
:0A0330000C7D880E04010C1312006E
:06033A006C500BE1040110
:1003400000513C0BE842E8420D0802E1AFEF01F03A
:10035000B8EF01F0040E6C5C01E119D81200000145
:10036000606B616B666B676B8DEC02F03AEF02F0CD
:10037000020E0001605D09E15CD8040100BD02D0FD
:10038000C80E01D0880E006F12007FEF02F0040E3D
:1003900000017A5D09E112C46EFF6E50000802E2AE
:1003A000050E01D0030E7A6F0001600509E10AD83D
:1003B000040104BD02D0C80E01D0880E046F1200E3
:1003C0007FEF02F00001080E665D000E675903E240
:1003D00066C069F002D0080E696F69C005F4695102
:1003E000006E016A0050665F0150675B180E646F13
:1003F000040E656F69511CE000017BA307D062C049
:10040000F6FF63C0F7FF0800F55005D062C0E9FFB2
:1004100063C0EAFFEF5064C0E9FF65C0EAFFEF6E1A
:100420000001622B000E6323642B65236907E2D76A
:10043000120001C46AF000016A516625666F000E61
:100440006721676F180E626F040E636F6A5111E0C7
:1004500062C0E9FF63C0EAFFEF5064C0E9FF65C016
:10046000EAFFEF6E642B000E6523622B63236A079D
:10047000EDD712006D98000161510BE10401080EE7
:10048000016F100E026F040E036F840E006F0401E3
:1004900023D0040110AF22D0000166510401165D83
:1004A000000167510401175904E216C466F017C42D
:1004B00067F088DF0001010E606F0401080E016F14
:1004C000100E026F040E036F800E006F0401180EF1
:1004D000066F040E076FC80E046F12000001020EB3
:1004E000606F0401056BC80E046F0401080E016FF4
:1004F000180E026F040E036FC80E006F1200000189
:10050000606B0401080E016F100E026F040E036F82
:0A0510008C0E006F0401046B120052
:06051A0004011051600B0A
:10052000E842E842E842E842E842000901E01200FD
:100530001151080A39E0010A35E00F0A0AE0030AFE
:1005400001E012000001010E616F0001040E7A6FDC
:1005500012000001010E616F0401130507E10001A3
:10056000880E626F070E636F120E13D0020E135DBA
:1005700007E100019A0E626F070E636F200E09D02B
:10058000030E135D0AE10001BA0E626F070E636F7E
:10059000040E0001666F676B02D00001616B000101
:1005A0007B831200E2EF02F00001010E616F000197
:1005B0007C0E626F000E636F00017B930001010EE1
:1005C000666F12000001010E616F12C47CF004011D
:1005D000125104E10001050E7A6F12000001060EAF
:0605E0007A6F16EF00F037
:0A05E600080E6D6E6DBAFED7686A4C
:1005F000110E696E0001020E7A6F12006850040B32
:1006000009E06950040B06E06D92699468A402D079
:100610006894FCD76850010B04E06950010B01E0BD
:1006200025D86850100B0AE06950100B07E0698468
:1006300068986D82A19AA08A0300A19A6850200B45
:1006400006E06950200B03E070B07090689A030ECA
:1006500000017A5D01E209D06850080B06E069509C
:10066000080B03E09DEC01F068961200686A7B0EAF
:10067000696E6E6A160E706E68A608D068960000E5
:1006800000000000000000000000F6D76D987FEC2D
:0E06900002F000017C6B0001030E7A6F120075
:02069E002A0E22
:1006A000F66E000EF76E000EF86E00010900F550B0
:1006B000706F0900F550716F03E1706701D03DD094
:1006C0000900F5506B6F0900F5506C6F0900F5508B
:1006D0006D6F09000900F550E96E0900F550EA6EEA
:1006E000090009000900F5506E6F0900F5506F6FA1
:1006F00009000900F6CF72F0F7CF73F0F8CF74F06D
:100700006BC0F6FF6CC0F7FF6DC0F8FF00016E53C1
:1007100002E16F5307E00900F550EE6E6E07F8E254
:100720006F07F9D772C0F6FF73C0F7FF74C0F8FF08
:0C07300000017007000E715BBFD71200C3
:04073C00A66AFE0E9D
:10074000A96EA680A8CF7FF0FF0E00017F5D02E1B9
:10075000000E01D0010E006E8450080B01E0010E66
:10076000001402E000EF04F08A9093908B92949230
:100770008A808B82140E6F6EF3EC02F0FEEC02F0B6
:080780001DEC01F0FBD7120093
:0807880012010002000000084C
:10079000D8040BFF01000000000109022000010144
:1007A0000080320904000002000000000705010279
:0E07B000400000070581024000000403090418
:0207BE0013EE38
:1007C00000F023EE00F0F86A059C4FEC03F09EEC7D
:0607D00003F0FDD712004A
:020000040030CA
:0100000022DD
:010001000EF0
:0100020028D5
:010003001EDE
:0100050001F9
:010006008178
:010008000FE8
:01000900C036
:01000A000FE6
:01000B00E014
:01000C000FE4
:01000D0040B2
:00000001FF
