:020000040000FA
:10000000DBEF03F01200FFFF04EF04F01200FFFF2C
:10001000FFFFFFFFFFFFFFFF0CEF04F01200FFFFE9
:10002000FFFFFFFFFFFFFFFFFFFF00000001776BF7
:100030001E0E716E0401400E096F200E0A6F040E31
:100040000B6F880E086F0401200E0E6F040E0F6FE9
:10005000400E0C6F1200550EA76EAA0EA76EA68258
:1000600012000401226B010E236F12000001756B58
:10007000040121510001755D20E275C000F0016AA4
:10008000026A040122510024F36E23510120F46E10
:1000900024510220F86EF4CFF7FFF3CFF6FF0800EB
:1000A000F5CF76F000017551EA6A250FE96E040E6E
:1000B000EA2276C0EFFF752BDBD7F86A1200F00E4C
:1000C00004012217840EA66E0001756B04012151F4
:1000D0000001755D26E27551EA6A250FE96E040E8E
:1000E000EA22EFCF03F075C000F0016A026A040152
:1000F00022510024F36E23510120F46E245102207A
:10010000F86EF4CFF7FFF3CFF6FF03C0F5FF0C0056
:100110000F0E000175150F0801E19DDF0001752B21
:10012000D5D71200940EA66E0001756B0401215103
:100130000001755D1EE27551006E016A060ED890D1
:1001400000360136E804FBE1026A01BE02680401E0
:1001500022510024F36E23510120F46E2451022019
:10016000F86EF4CFF7FFF3CFF6FF75DF0001752BC4
:10017000DDD7F86A1200A66A0001756B04012151EF
:100180000001755D10E20401225100017525A96E80
:10019000A6807551EA6A250FE96E040EEA22A8CFFF
:1001A000EFFF752BEBD712000001756B0401215195
:1001B0000001755D15E20401225100017525A96E4B
:1001C0007551EA6A250FE96E040EEA22EF50A86E17
:1001D000040EA66E40DFA6B2FED70001752BE6D74F
:1001E0001200C40EA66E0001756B040121510001BE
:1001F000755D21E27551EA6A250FE96E040EEA2267
:10020000EFCF03F075C000F0016A026A04012251C9
:100210000024F36E23510120F46E24510220F86E65
:10022000F4CFF7FFF3CFF6FF03C0F5FF0C0013DFA9
:100230000001752BDAD7F86A1200060E00017A5D0C
:1002400003E36D50020B01E071D00001770511E16D
:1002500004010CBF0DD00401400E096F400E0401D3
:1002600008170401087D880E040108130001776B4C
:100270005DD0040108BF5AD00001756B0401205104
:10028000FF0A34E0F80A2DE0020A26E0010A1FE026
:10029000070A18E0010A11E0030A0AE0070A08E069
:1002A000060A01E032D0DDDE0001040E756F2ED0AB
:1002B000DDDE050E0001752729D001DF0001010EEA
:1002C000756F24D02FDF0001010E756F1FD053DF33
:1002D000050E000175271AD067DF0001010E756F4A
:1002E00015D07FDF0001010E756F10D06D960001F3
:1002F000786B796B00017807000E795B000178510B
:10030000791101E0F7D7FF0001D000D00001010E04
:10031000776F000175510AE075C00DF4400E0401BD
:100320000C1704010C7D880E04010C1312006C5094
:1003300002E0000E01D0010E00090BE004010051A3
:100340003C0BE842E8420D0802E1B2EF01F0BBEFDE
:1003500001F06C5002E0000E01D0010E040901E032
:1003600019D812000001606B616B666B676B90ECD3
:1003700002F03DEF02F0020E0001605D09E15CD881
:10038000040100BD02D0C80E01D0880E006F12001B
:1003900082EF02F0040E00017A5D09E112C46EFFE3
:1003A0006E50000802E2050E01D0030E7A6F0001C4
:1003B000600509E10AD8040104BD02D0C80E01D0CD
:1003C000880E046F120082EF02F00001080E665DD5
:1003D000000E675903E266C069F002D0080E696F2B
:1003E00069C005F46951006E016A0050665F0150F2
:1003F000675B180E646F040E656F69511CE00001A5
:100400007BA307D062C0F6FF63C0F7FF0800F5507A
:1004100005D062C0E9FF63C0EAFFEF5064C0E9FFA6
:1004200065C0EAFFEF6E0001622B000E6323642BB0
:1004300065236907E2D7120001C46AF000016A511E
:100440006625666F000E6721676F180E626F040ED7
:10045000636F6A5111E062C0E9FF63C0EAFFEF50C9
:1004600064C0E9FF65C0EAFFEF6E642B000E6523F0
:10047000622B63236A07EDD71200000161510BE183
:100480000401080E016F100E026F040E036F840E3C
:10049000006F040123D0040110AF22D00001665187
:1004A0000401165D000167510401175904E216C4E6
:1004B00066F017C467F089DF0001010E606F040168
:1004C000080E016F100E026F040E036F800E006F96
:1004D0000401180E066F040E076FC80E046F10D0CB
:1004E0000001020E606F0401056BC80E046F040169
:1004F000080E016F180E026F040E036FC80E006F16
:100500006D9812000001606B0401080E016F100E5F
:10051000026F040E036F880E006F0401046B12005B
:1005200004011051600BE842E842E842E842E84228
:10053000000901E012001151080A39E0010A35E012
:100540000F0A0AE0030A01E012000001010E616FC8
:100550000001040E7A6F12000001010E616F0401A8
:10056000130507E10001800E626F070E636F120E24
:1005700013D0020E135D07E10001920E626F070EA9
:10058000636F200E09D0030E135D0AE10001B20E65
:10059000626F070E636F040E0001666F676B02D017
:1005A0000001616B00017B831200E5EF02F00001A6
:1005B000010E616F00017C0E626F000E636F00011F
:1005C0007B930001010E666F12000001010E616F46
:1005D00012C47CF00401125104E10001050E7A6F8F
:1005E00012000001060E7A6F16EF00F0080E6D6E15
:1005F0006DBAFED7686A110E696E0001020E7A6F3D
:1006000012006850040B06E06950040B03E06D9281
:10061000699468946850010B04E06950010B01E093
:1006200027D86850100B09E06950100B06E0698468
:1006300068986D82A08A0300A19A6850200B09E097
:100640006950200B06E070A003D082EC02F070909D
:10065000689A030E00017A5D01E209D06850080B28
:1006600006E06950080B03E097EC01F06896120071
:10067000686A7B0E696E6E6A160E706E68A602D08E
:100680006896FCD76D9882EC02F000017C6B00014B
:10069000030E7A6F12002A0EF66E000EF76E000E31
:1006A000F86E00010900F550706F0900F550716F88
:1006B00003E1706701D03DD00900F5506B6F090070
:1006C000F5506C6F0900F5506D6F09000900F55089
:1006D000E96E0900F550EA6E090009000900F550BD
:1006E0006E6F0900F5506F6F09000900F6CF72F0C8
:1006F000F7CF73F0F8CF74F06BC0F6FF6CC0F7FF64
:100700006DC0F8FF00016E5302E16F5307E009006E
:10071000F550EE6E6E07F8E26F07F9D772C0F6FF7C
:1007200073C0F7FF74C0F8FF00017007000E715B23
:10073000BFD71200A66AFE0EA96EA680A8CF7FF0D2
:10074000FF0E00017F5D02E1000E01D0010E006E80
:100750008450080B01E0010E001402E000EF04F0E9
:100760008A9093908B9294928A808B82140E6F6EF3
:10077000F6EC02F001EC03F01DEC01F0FBD71200E7
:100780001201000200000008D8040BFF0000000066
:10079000000109022000010100803209040000026A
:1007A000000000000705010240000007058102402B
:1007B00000000403090413EE00F023EE00F0F86AD1
:1007C000059C4BEC03F09AEC03F0FDD71200FFFF01
:1007D000FFFFFFFFFFFFFFFFFFFFFFFFFFFFFFFF29
:1007E000FFFFFFFFFFFFFFFFFFFFFFFFFFFFFFFF19
:1007F000FFFFFFFFFFFFFFFFFFFFFFFFFFFFFFFF09
:100800008FEF3FF01200FFFF1200FFFFFFFFFFFF1F
:10081000FFFFFFFFFFFFFFFF1200FFFFFFFFFFFFD4
:10082000FFFFFFFFFFFFFFFFFFFF01004C7F000006
:100830006000000033000000C282C2B2FED700D0C8
:1008400012009494780ECB6E0C0EBD6EBE6E040E2C
:10085000CA6E00D01200D9CFE6FFE1CFD9FF040E57
:10086000E126EADFC450DE6EDD6AC350166E176AF9
:10087000066A010E076EDECF0BF0DDCF0CF0F0EC58
:100880003EF004501624146E05501720156E14C047
:10089000DEFF15C0DDFFDECF14F0DDCF15F015341F
:1008A00004E21450E808030E155405E2BE6A8A807B
:1008B0000001886B30D000018B51DE5C146E8C51CE
:1008C000DD58156E020E14C0DBFF030E15C0DBFFF2
:1008D000020EDBCF14F0030EDBCF15F0153404E26B
:1008E00014506408000E155404E2BE50050801E2DD
:1008F000BE06020EDBCF14F0030EDBCF15F0D8805E
:10090000155004E79C0E145CFF0E155804E2460EC9
:10091000BE5C01E2BE2AF56E040EE15C02E2E16A11
:10092000E552E16EF550E552E7CFD9FF1200D9CF7D
:10093000E6FFE1CFD9FF060EE126050EDB6A040EC5
:10094000DB6A050EDB2A78DFC450DE6EDD6AC35039
:10095000166E176A066A010E076EDECF0BF0DDCF4A
:100960000CF0F0EC3EF004501624146E05501720E5
:10097000156E14C0DEFF15C0DDFFDECF14F0DDCF35
:1009800015F0153404E21450E808030E15540AE279
:10099000BE6A8A800001886B330EF36E050EF3CFBA
:1009A000DBFF40D000018B51DE5C146E8C51DD58B2
:1009B000156E020E14C0DBFF030E15C0DBFF020E26
:1009C000DBCF14F0030EDBCF15F0153404E2145026
:1009D0006408000E155409E2BE50050801E2BE0687
:1009E000010EF36E040EF3CFDBFF020EDBCF14F02B
:1009F000030EDBCF15F0D880155004E79C0E145C75
:100A0000FF0E155809E2460EBE5C01E2BE2A010E39
:100A1000F36E040EF3CFDBFF1E0EE66EE66AEDD832
:100A2000E552E552040EDB040EE1050EDBCF14F0B7
:100A3000140EE76E1418E8AE02D0E73402D0E75087
:100A4000145C01E27CD7050EDBCF15F0E76E1518BC
:100A5000E8AE02D0E73402D0E750155C01E26FD770
:100A6000F56E060EE15C02E2E16AE552E16EF550D8
:100A7000E552E7CFD9FF1200D9CFE6FFE1CFD9FF8A
:100A8000060EE126050EDB6A040EDB6A050EDB2A84
:100A9000D3DEC450DE6EDD6AC350166E176A066A76
:100AA000010E076EDECF0BF0DDCF0CF0F0EC3EF068
:100AB00004501624146E05501720156E14C0DEFF66
:100AC00015C0DDFFDECF14F0DDCF15F0153404E2E4
:100AD0001450E808030E15540AE2BE6A8A80000129
:100AE000886B330EF36E050EF3CFDBFF29D00001C8
:100AF0008B51DE5C146E8C51DD58156E020E14C0E5
:100B0000DBFF030E15C0DBFF020EDBCF14F0030E7C
:100B1000DBCF15F0153404E214503208000E1554E2
:100B20000FE2BE50050801E2BE06010EF36E040E90
:100B3000F3CFDBFFC80EE66EE66A5FD8E552E552FA
:100B4000040EDB040DE1050EDBCF14F0140EE76E8E
:100B50001418E8AE02D0E73402D0E750145C94E3F6
:100B6000F56E060EE15C02E2E16AE552E16EF550D7
:100B7000E552E7CFD9FF1200D9CFE6FFE1CFD9FF89
:100B8000E652FF0EE76EFD0EDBCF14F0FE0EDBCF5C
:100B900015F0E7501416156A1450DF6EDF50000888
:100BA00005E2DFCFE6FF9BEC3FF0E552FD0EDBCF29
:100BB00014F0FE0EDBCF15F015C014F0156A1450BA
:100BC000DF6EDF50000814E2DFCFE6FF71EC3FF08C
:100BD000E552DFCFE6FF71EC3FF0E552DFCFE6FFF5
:100BE00071EC3FF0E552DFCFE6FF81EC3FF0E552DC
:100BF000E552E552E7CFD9FF1200D9CFE6FFE1CFAA
:100C0000D9FFD950FD0FE96EFF0EDA20EA6E000E13
:100C1000D880EE54000EED5412E2FD0EDBCFE6FF5D
:100C20005AEC3FF0E552FD0EDBCFE6FF71EC3FF0F2
:100C3000E552FD0EDBCFE6FF71EC3FF0E552E552E9
:100C4000E7CFD9FF1200D9CFE6FFE1CFD9FF030EDE
:100C5000E1260101440E016F3F0E006F040EDF6EAE
:100C60000251E66ED950010FE96EDACFEAFFE55284
:100C7000E750EE6EED6A010EDBCF14F0020EDBCF13
:100C800015F002510425166E176A1650145C1750A1
:100C9000155814E2A69E010EDB50A96EA680DF5007
:100CA000EA6A010FE96E010EEA22A8CFEFFFDF2A00
:100CB000010EDB2A020E01E3DB2ADDD7F56E030EFF
:100CC000E15C02E2E16AE552E16EF550E552E7CF00
:100CD000D9FF1200D9CFE6FFE1CFD9FF030EE126FD
:100CE0000101010E006F450E016F040EDF6E02510F
:100CF000E66ED950010FE96EDACFEAFFE552E75010
:100D0000EE6EED6A010EDBCF14F0020EDBCF15F0B4
:100D1000010102510425166E176A1650145C175013
:100D200015581CE2A69EA684010EDB50A96EDF506A
:100D3000EA6A010FE96E010EEA22EF50A86E550E25
:100D4000A76EAA0EA76EA682A1A8FED7A198DF2A39
:100D5000010EDB2A020E01E3DB2AD4D7F56E030E67
:100D6000E15C02E2E16AE552E16EF550E552E7CF5F
:100D7000D9FF12000101DA51020A09E0030A05E075
:100D8000010A01E006D08B9C04D08A9802D08B9E89
:100D900000D012000101DA51020A09E0030A05E05D
:100DA000010A01E006D08B8C04D08A8802D08B8E99
:100DB00000D012000101DA51020A09E0030A05E03D
:100DC000010A01E006D0829E04D0819602D0819271
:100DD00000D012000101DA51020A09E0030A05E01D
:100DE000010A01E006D0828E04D0818602D0818281
:100DF00000D012000101DA51020A0AE0030A05E0FC
:100E0000010A01E007D0899005D08990898802D035
:100E1000899400D012000101DA51020A0AE0030AA3
:100E200005E0010A01E007D0898005D08998898012
:100E300002D0898400D012000101DA51020A0AE0CE
:100E4000030A05E0010A01E008D08A9E06D08A94D0
:100E50008B8003D08A9A8A9C00D012000101DA515B
:100E6000020A0AE0030A05E0010A01E008D08A8EBE
:100E700006D08A848B9003D08A8A8A8C00D0120094
:100E80000101DA51020A16E0030A0BE0010A01E04F
:100E900018D07D0E8A1693163F0E8B169416899ADB
:100EA00010D0E30E8A1693169490100E891692981D
:100EB000899A07D09D0E8A1693168B9E949E899AC6
:100EC00000D012000101DA51020A09E0030A05E02C
:100ED000010A01E006D0948E04D0938602D093825A
:100EE00000D012000101DA51020A09E0030A05E00C
:100EF000010A01E006D0949E04D0939602D093920A
:100F000000D01200D9CFE6FFE1CFD9FF020EE126D3
:100F1000010EDB6ADBCF14F0FE0EDB50E76E141817
:100F2000E8AE02D0E73402D0E750145C15E2FD0EC3
:100F3000DB50010BDF6E2EDFDF0402E14BDF01D05F
:100F400039DF18DFFD0EDB407F0BE76EFD0EE7CFCC
:100F5000DBFF010EDB2ADED72DDFF56E020EE15C32
:100F600002E2E16AE552E16EF550E552E7CFD9FFC2
:100F70001200D9CFE6FFE1CFD9FF020EE126DF6AEA
:100F8000010EDB6ADBCF14F0FE0EDB50E76E1418A7
:100F9000E8AE02D0E73402D0E750145C10E2DF4044
:100FA0007F0BDF6EF7DE2BD8010805E1DFCF14F0F1
:100FB000800E1424DF6EDEDE010EDB2AE3D7FE0E88
:100FC000DBCFE6FF080EE552D880E754146EDF5001
:100FD00014C0E7FFE75204E0E8427F0BE706FCE1BC
:100FE000DF6EDF50F56E020EE15C03E200D0E16AD5
:100FF000E552E16EF550E552E7CFD9FF1200D9CFA7
:10100000E6FFE1CFD9FFE652DF6A0101DA51020AB9
:1010100011E0030A09E0010A01E012D08250800BBE
:1010200001E0010EDF6E0CD08150080B01E0010ED3
:10103000DF6E06D08150020B01E0010EDF6E00D0A2
:10104000DF5000D0E552E552E7CFD9FF12008B8286
:10105000B1DE90DE8DC0BEFF0A0EE66E9BEC3FF067
:10106000E552290E0001665D06E1D5DE0A0EE66E48
:101070009BEC3FF0E552F2DE500EE66E9BEC3FF04B
:10108000E5520101DA0506E1140EE66EE66AB5DD09
:10109000E552E552C0DE0A0EE66E9BEC3FF0E552EB
:1010A000020E0001885D01E142DC12008EC0BEFF2D
:1010B00081DE60DE9FDEC0DE8B92020E0001885D65
:1010C00001E135DC1200D9CFE6FFE1CFD9FFFE0EFA
:1010D000DBCFE6FF060EE66E15DFE552E552010EA8
:1010E000E66E9BEC3FF0E552E552E7CFD9FF1200E8
:1010F000D9CFE6FFE1CFD9FFE652E66A010EE66EF0
:1011000001DFE552E552FF0EE76EFD0EDBCF14F076
:10111000FE0EDBCF15F0E7501416156A1450DF6E83
:10112000DFCFE6FF080EE66EEDDEE552E552FD0E7E
:10113000DBCF14F0FE0EDBCF15F015C014F0156AEE
:101140001450DF6EDFCFE6FF060EE66EDBDEE55203
:10115000E552E66A010EE66ED5DEE552E552010E75
:10116000E66E9BEC3FF0E552E552E552E7CFD9FF42
:101170001200D9CFE6FFE1CFD9FF040EE126A2DEAF
:10118000010EE66EF6DEE552DE6EDD6A080EE66EF4
:10119000F0DEE552E76E020EE7CFDBFF060EE66EED
:1011A000E8DEE552E76E030EE7CFDBFF010EE66EE9
:1011B000E0DEE552DE6EDD6A030EDB50166E176A66
:1011C00016C017F0166A020EDB5000011624146ECA
:1011D000000E1720156E14C0DEFF15C0DDFF82DE85
:1011E000010EE66E9BEC3FF0E552DECF14F0DDCF52
:1011F00015F014C0F3FF15C0F4FFF56E040EE15CAA
:1012000003E200D0E16AE552E16EF550E552E7CF26
:10121000D9FF1200D9CFE6FFE1CFD9FF020EE126B8
:1012200016DFE66A50DFE552000EE66EE66A60DF22
:10123000E552E552060EE66E46DFE552060EE66E14
:1012400042DFE552060EE66E3EDFE552060EE66E22
:101250003ADFE552060EE66E36DFE552060EE66E22
:1012600032DFE552040EE66E2EDFE55282DFF3CF69
:10127000DEFFF4CFDDFF1ADFDECF14F0DDCF15F097
:1012800014C0F3FF15C0F4FFF56E020EE15C03E23B
:1012900000D0E16AE552E16EF550E552E7CFD9FFA3
:1012A0001200D9CFE6FFE1CFD9FF0B0EE126030EE6
:1012B000F36E060EF3CFDBFF0101510E016F026BDF
:1012C000036B3F0E006F4C0EE96E010EEA6E485143
:1012D000EE5C4951EE584A51EE584B51EE5803E23C
:1012E0000001606B0DD10001605126E1B0DE00010C
:1012F000010E606FDE6ADE6ADE6ADD6ADD52DD5293
:10130000D9CFE9FFDACFEAFF01014851EE5C49513C
:10131000EE584A51EE584B51EE580EE2060EE66E6C
:10132000D2DEE552D9CFE9FFDACFEAFFEE2A000E8E
:10133000EE22EE22EE22E4D7480EE96E010EEA6EAE
:10134000EE5001014C5D146EEE504D59156EEE508D
:101350004E59166EEE504F59176E142A000E152274
:1013600016221722070E14C0DBFF080E15C0DBFF84
:10137000090E16C0DBFF0A0E17C0DBFF070EDBCF1E
:1013800005F0080EDBCF06F0090EDBCF07F00A0EE2
:10139000DBCF08F00834000E081809E6D8801E0ECE
:1013A0000554000E0654000E0754000E08540CE2BB
:1013B0001E0EF36E070EF3CFDBFF080EDB6A090E7D
:1013C000DB6A0A0EDB6A02D00001606B070EDBCF1E
:1013D00004F0080EDBCF05F0090EDBCF06F00A0E95
:1013E000DBCF07F0020E096E0A6A0B6A0C6AB8ECD2
:1013F0003EF000C002F148C1DFFF010E49C1DBFF32
:10140000020E4AC1DBFF030E4BC1DBFFD950070FB1
:10141000E96EDACFEAFF01014851EE24146E49511A
:10142000EE20156E4A51EE20166E4B51EE20176ECF
:10143000D9CFE9FFDACFEAFF1450EE5C1550EE5831
:101440001650EE581750EE5842E2040EE66E3BDEA0
:10145000E5528FDE040EF3CFDBFF050EF4CFDBFF8A
:10146000FF0EE76E040EDBCF14F0050EDBCF15F098
:10147000E7501416156A060EDB50EA6A010FE96E92
:10148000010EEA2214C0EFFF060EDB2A040EDBCFAA
:1014900014F0050EDBCF15F015C014F0156A060E1A
:1014A000DB50EA6A010FE96E010EEA2214C0EFFF79
:1014B000060EDB2AE66E07DEE552D9CFE9FFDACF6A
:1014C000EAFFEE2A000EEE22EE22EE229FD7010E58
:1014D000036FD950070FE96EDACFEAFF4851EE24C7
:1014E000486F4951EE20496F4A51EE204A6F4B51E7
:1014F000EE204B6F0001605103E10101036BD6DD6B
:10150000F56E0B0EE15C02E2E16AE552E16EF55028
:10151000E552E7CFD9FF1200D9CFE6FFE1CFD9FFDF
:101520000B0EE126030EF36E060EF3CFDBFF010177
:10153000520E016F026B036B3F0E006F4C0EE96E93
:10154000010EEA6E4851EE5C4951EE584A51EE5890
:101550004B51EE5803E20001616BE7D0000161518D
:1015600026E175DD0001010E616FDE6ADE6ADE6A6A
:10157000DD6ADD52DD52D9CFE9FFDACFEAFF0101A2
:101580004851EE5C4951EE584A51EE584B51EE58D5
:101590000EE2060EE66E97DDE552D9CFE9FFDACF0F
:1015A000EAFFEE2A000EEE22EE22EE22E4D7480EEB
:1015B000E96E010EEA6EEE5001014C5D146EEE50C4
:1015C0004D59156EEE504E59166EEE504F59176E1E
:1015D000142A000E152216221722070E14C0DBFF54
:1015E000080E15C0DBFF090E16C0DBFF0A0E17C080
:1015F000DBFF070EDBCF05F0080EDBCF06F0090E90
:10160000DBCF07F00A0EDBCF08F00834000E081815
:1016100009E6D8803C0E0554000E0654000E07540F
:10162000000E08540CE23C0EF36E070EF3CFDBFF06
:10163000080EDB6A090EDB6A0A0EDB6A02D00001C3
:10164000616B070EDBCF02F148C1DFFF010E49C11C
:10165000DBFF020E4AC1DBFF030E4BC1DBFFD9509B
:10166000070FE96EDACFEAFF01014851EE24146E4C
:101670004951EE20156E4A51EE20166E4B51EE2068
:10168000176ED9CFE9FFDACFEAFF1450EE5C1550A0
:10169000EE581650EE581750EE582EE2050EE66E34
:1016A00012DDE55266DD040EF3CFDBFF050EF4CF4D
:1016B000DBFFFF0EE76E040EDBCF14F0050EDBCF71
:1016C00015F0E7501416156A060EDB50EA6A010F92
:1016D000E96E010EEA2214C0EFFF060EDB2AE66E69
:1016E000F2DCE552D9CFE9FFDACFEAFFEE2A000EAD
:1016F000EE22EE22EE22B3D7010E036FD950070F70
:10170000E96EDACFEAFF4851EE24486F4951EE20E6
:10171000496F4A51EE204A6F4B51EE204B6F00014A
:10172000615103E10101036BC1DCF56E0B0EE15C5D
:1017300002E2E16AE552E16EF550E552E7CFD9FFEA
:101740001200D9CFE6FFE1CFD9FF070EE126030E45
:10175000F36E040EF3CFDBFF0101500E016F080E94
:10176000026F036B3F0E006F72DCE66AACDCE55281
:10177000000EE66EE66ABCDCE552E552DE6A200E3B
:10178000DE6EDE6ADD6ADD52DD52D9CFE9FFDACFE7
:10179000EAFF01014851EE5C4951EE584A51EE58BA
:1017A0004B51EE580EE2060EE66E8DDCE552D9CFB7
:1017B000E9FFDACFEAFFEE2A000EEE22EE22EE2259
:1017C000E4D748C1DFFF010E49C1DBFF020E4AC169
:1017D000DBFF030E4BC1DBFFD9CFE9FFDACFEAFF16
:1017E000EE5001014C5DEE504D59EE504E59EE5009
:1017F0004F5943E3040EE66E66DCE552BADC050E93
:10180000F3CFDBFF060EF4CFDBFFFF0EE76E050E16
:10181000DBCF14F0060EDBCF15F0E7501416156A77
:10182000040EDB50EA6A010FE96E010EEA2214C0D1
:10183000EFFF040EDB2A050EDBCF14F0060EDBCF24
:1018400015F015C014F0156A040EDB50EA6A010F9A
:10185000E96E010EEA2214C0EFFF040EDB2A060E29
:10186000E66E31DCE552D9CFE9FFDACFEAFFEE2AA6
:10187000000EEE22EE22EE22AFD7040EDB50FD0F5B
:10188000026F14DCF56E070EE15C02E2E16AE552DC
:10189000E16EF550E552E7CFD9FF1200A1EF0BF052
:1018A00027EC08F0000171512E0A01E14BD1030A27
:1018B00001E122D1010A01E1ECD0070A01E1B7D030
:1018C000010A01E18ED0030A59E0010A01E0A3D127
:1018D000E66A63EC08F0E552000EE66EE66A78EC24
:1018E00008F0E552E552020EE66E63EC08F0E552B0
:1018F000E6683F0EE66E78EC08F0E552E552090E18
:10190000E66E63EC08F0E552080EE66E63EC08F054
:10191000E552000183517925146E84517A21156EA8
:1019200014C0E6FF15C0E6FFBCEC05F0E552E55239
:10193000020EE66E63EC08F0E552E6683F0EE66ED6
:1019400078EC08F0E552E5520B0EE66E63EC08F019
:10195000E552080EE66E63EC08F0E5520001835193
:101960007925146E84517A21156E14C0E6FF15C0D6
:10197000E6FFBCEC05F0E552E5524DD1090EE66EEE
:1019800063EC08F0E552080EE66E63EC08F0E552F1
:10199000000183517925146E84517A21156E14C08B
:1019A000E6FF15C0E6FFBCEC05F0E552E5520B0E74
:1019B000E66E63EC08F0E552080EE66E63EC08F0A4
:1019C000E552000183517925146E84517A21156EF8
:1019D00014C0E6FF15C0E6FFBCEC05F0E552E55289
:1019E0001AD1E66A63EC08F0E552000EE66EE66A8C
:1019F00078EC08F0E552E552090EE66E63EC08F06B
:101A0000E55283C0E6FF84C0E6FFBCEC05F0E5527A
:101A1000E5520B0EE66E63EC08F0E55283C0E6FF7C
:101A200084C0E6FFBCEC05F0E552E552F4D0E66A6E
:101A300063EC08F0E552000EE66EE66A78EC08F01A
:101A4000E552E552020EE66E63EC08F0E552E668F8
:101A50003F0EE66E78EC08F0E552E552090EE66EB0
:101A600063EC08F0E55283C0E6FF84C0E6FFBCECFF
:101A700005F0E552E5520B0EE66E63EC08F0E55218
:101A800083C0E6FF84C0E6FFBCEC05F0E552E552FA
:101A9000C2D0E66A63EC08F0E552000EE66EE66A34
:101AA00078EC08F0E552E552090EE66E63EC08F0BA
:101AB000E552080EE66E63EC08F0E552030EE66EA2
:101AC000E66AFDEC05F0E552E552110EE66E63ECB8
:101AD00008F0E5520B0EE66E63EC08F0E552030EDB
:101AE000E66EE66AFDEC05F0E552E552110EE66E93
:101AF00063EC08F0E5528FD0E66A63EC08F0E5523B
:101B0000000EE66EE66A78EC08F0E552E552090E42
:101B1000E66E63EC08F0E55283C0E6FF84C0E6FFA2
:101B2000BCEC05F0E552E5520B0EE66E63EC08F0F6
:101B3000E55283C0E6FF84C0E6FFBCEC05F0E55249
:101B4000E55269D0020EE66E63EC08F0E552E668F5
:101B50003F0EE66E78EC08F0E552E552010EE66EB7
:101B600063EC08F0E552070EE66E63EC08F0E55210
:101B7000080EE66E63EC08F0E5520001835179250A
:101B8000146E84517A21156E14C0E6FF15C0E6FF6D
:101B9000BCEC05F0E552E552010EE66E63EC08F090
:101BA000E552070EE66E63EC08F0E552030EE66EB2
:101BB00063EC08F0E552E6683F0EE66E78EC08F05C
:101BC000E552E552010EE66E63EC08F0E552070EB1
:101BD000E66E63EC08F0E552080EE66E63EC08F082
:101BE000E552000183517925146E84517A21156ED6
:101BF00014C0E6FF15C0E6FFBCEC05F0E552E55267
:101C0000010EE66E63EC08F0E552070EE66E63EC3B
:101C100008F0E55200D056EF08F0060EE66E63ECD1
:101C200008F0E552060EE66E63EC08F0E552060E8B
:101C3000E66E63EC08F0E552060EE66E63EC08F023
:101C4000E552060EE66E63EC08F0E552060EE66E0F
:101C500063EC08F0E552060EE66E63EC08F0E55220
:101C6000120027EC08F0000172512E0A01E1FFD0AA
:101C7000030A01E1BFD0010A01E189D0070A60E04F
:101C8000010A43E0030A3FE0010A01E02CD1E66AC1
:101C900063EC08F0E552000EE66EE66A78EC08F0B8
:101CA000E552E552BADF010EE66E63EC08F0E5524C
:101CB000070EE66E63EC08F0E552080EE66E63EC84
:101CC00008F0E552000183517925146E84517A2180
:101CD000156E14C0E6FF15C0E6FFBCEC05F0E5523A
:101CE000E552010EE66E63EC08F0E552070EE66E73
:101CF00063EC08F0E552320EE66EE66AFDEC05F0A4
:101D0000E552E552F0D0CCDDEED0E66A63EC08F0A7
:101D1000E552F00EE66E3F0EE66E78EC08F0E55206
:101D2000E5527BDF1F0EE66E63EC08F0E55283C0E0
:101D3000E6FF84C0E6FFBCEC05F0E552E552D3D0E7
:101D4000E66A63EC08F0E552F00EE66E3F0EE66ED2
:101D500078EC08F0E552E55260DF020EE66E63ECC7
:101D600008F0E552E6683F0EE66E78EC08F0E552C2
:101D7000E552090EE66E63EC08F0E55283C0E6FF1B
:101D800084C0E6FFBCEC05F0E552E552ACD0090E8C
:101D9000E66E63EC08F0E55283C0E6FF84C0E6FF20
:101DA000BCEC05F0E552E552E66A63EC08F0E5525A
:101DB000000EE66EE66A78EC08F0E552E552090E90
:101DC000E66E63EC08F0E55283C0E6FF84C0E6FFF0
:101DD000BCEC05F0E552E5520B0EE66E63EC08F044
:101DE000E55283C0E6FF84C0E6FFBCEC05F0E55297
:101DF000E55279D0E66A63EC08F0E552F00EE66E43
:101E00003F0EE66E78EC08F0E552E55206DF010E73
:101E1000E66E63EC08F0E552070EE66E63EC08F040
:101E2000E552080EE66E63EC08F0E55200018351BE
:101E30007925146E84517A21156E14C0E6FF15C001
:101E4000E6FFBCEC05F0E552E552010EE66E63ECF0
:101E500008F0E552070EE66E63EC08F0E552320E2C
:101E6000E66EE66AFDEC05F0E552E5523CD0E66A26
:101E700063EC08F0E552E6683F0EE66E78EC08F099
:101E8000E552E552CADE010EE66E63EC08F0E5525B
:101E9000070EE66E63EC08F0E552080EE66E63ECA2
:101EA00008F0E552000183517925146E84517A219E
:101EB000156E14C0E6FF15C0E6FFBCEC05F0E55258
:101EC000E552010EE66E63EC08F0E552070EE66E91
:101ED00063EC08F0E552320EE66EE66AFDEC05F0C2
:101EE000E552E55200D056EF08F0D9CFE6FFE1CF3A
:101EF000D9FF030EE1260101600E016F74C0DFFF00
:101F00004C0EE96E010EEA6E4851EE5C4951EE58F6
:101F10004A51EE584B51EE5803E20001626BD5D1A5
:101F2000030EF36E020EF3CFDBFF0001625101E0FE
:101F300079D0876B200E875D0EE28751E96EEA6AE1
:101F4000D890E936EA36500EE926010EEA22EE6A0A
:101F5000ED6A872BEFD7876B27EC08F00001010EA5
:101F6000626F0101D26BD36BD46BD56BDFCF18F0EE
:101F7000196A1A6A1B6A18AE03D019681A681B68B6
:101F800048C104F049C105F04AC106F04BC107F051
:101F900018C009F019C00AF01AC00BF01BC00CF0F1
:101FA0001DEC3FF000500101485D146E015049598D
:101FB000156E02504A59166E03504B59176E145045
:101FC000D25D1550D3591650D4591750D5590CE23B
:101FD000060EE66E63EC08F0E5520101D22B000E0E
:101FE000D323D423D523C2D7DFCF14F0156A166AC2
:101FF000176A14AE03D015681668176848C104F054
:1020000049C105F04AC106F04BC107F014C009F000
:1020100015C00AF016C00BF017C00CF01DEC3FF015
:1020200000C087F0D20EE96E010EEA6EEE5001019B
:102030004C5DEE504D59EE504E59EE504F5901E265
:102040002ED1030E0225F36E020EDBCFF4FFF35008
:10205000F45C01E324D1DF500001875D45E2030E0B
:1020600001010225F36E020EDBCFF4FFF350F45CA6
:102070003BE2020EDB28E96EEA6AE9BEEA68010E7D
:10208000E926010EEA22EF50166E176A16C017F005
:10209000166A020EDBCFE9FFEA6AE9BEEA68010EC2
:1020A000E926010EEA22EF5000011624146E000EFC
:1020B0001720156E00018751E96EEA6AD890E9365B
:1020C000EA36500EE926010EEA2214C0EEFF15C0D2
:1020D000EDFF872B020E146EDBCFE7FF1450E726CF
:1020E000020EE7CFDBFFB7D7DF500001875D04E0CA
:1020F0000101035101E0D2D00001876BDF50875D01
:1021000024E2020EE66E63EC08F0E552000187510E
:10211000E96EEA6AD890E936EA36500EE926010EF1
:10212000EA22EECFE6FFEFCFE6FF78EC08F0E552CB
:10213000E552DF040001875D05E2060EE66E63EC02
:1021400008F0E5520001872BD9D76D512E0A75E0B2
:10215000030A65E0010A50E0070A3BE0010A26E0B5
:10216000030A11E0010A01E07BD0180EE66E63EC71
:1021700008F0E55279C0E6FF7AC0E6FFBCEC05F056
:10218000E552E5526DD0180EE66E63EC08F0E552AC
:1021900079C0E6FF7AC0E6FFBCEC05F0E552E552F7
:1021A000170EE66E63EC08F0E5525AD0180EE66E94
:1021B00063EC08F0E55279C0E6FF7AC0E6FFBCECBC
:1021C00005F0E552E552170EE66E63EC08F0E552B5
:1021D00047D0080EE66E63EC08F0E55279C0E6FFE2
:1021E0007AC0E6FFBCEC05F0E552E5520E0EE66E55
:1021F00063EC08F0E55234D0180EE66E63EC08F09C
:10220000E55279C0E6FF7AC0E6FFBCEC05F0E55286
:10221000E5520A0EE66E63EC08F0E55221D0080E96
:10222000E66E63EC08F0E55279C0E6FF7AC0E6FF9F
:10223000BCEC05F0E552E55213D0180EE66E63ECE7
:1022400008F0E55279C0E6FF7AC0E6FFBCEC05F085
:10225000E552E5520E0EE66E63EC08F0E55200D052
:10226000060EE66E63EC08F0E552DFCF14F0156A57
:10227000166A176A14AE03D01568166817681450EA
:102280000101D2271550D3231650D4231750D5233C
:102290000001876B880502E12BEC04F0C3D6D20E57
:1022A000E96E010EEA6EEE504C5DEE504D59EE5067
:1022B0004E59EE504F5902E3035102E10001626BA7
:1022C0000001625102E156EC08F0F56E030EE15C8C
:1022D00002E2E16AE552E16EF550E552E7CFD9FF3F
:1022E0001200D9CFE6FFE1CFD9FF030EE1260101AD
:1022F000610E016F75C0DFFF4C0EE96E010EEA6ED4
:102300004851EE5C4951EE584A51EE584B51EE5847
:1023100003E20001636B5FD1030EF36E020EF3CF95
:10232000DBFF0001635174E1876B200E875D09E2DA
:102330008751EA6A500FE96E010EEA22EF6A872B95
:10234000F4D7876B27EC08F00001010E636F0101E1
:10235000D66BD76BD86BD96BDFCF18F0196A1A6AB6
:102360001B6A18AE03D019681A681B6848C104F0CC
:1023700049C105F04AC106F04BC107F018C009F089
:1023800019C00AF01AC00BF01BC00CF01DEC3FF096
:1023900000500101485D146E01504959156E0250FC
:1023A0004A59166E03504B59176E1450D65D15508E
:1023B000D7591650D8591750D9590CE2060EE66E67
:1023C00063EC08F0E5520101D62B000ED723D82389
:1023D000D923C2D7DFCF14F0156A166A176A14AE74
:1023E00003D015681668176848C104F049C105F0A4
:1023F0004AC106F04BC107F014C009F015C00AF03D
:1024000016C00BF017C00CF01DEC3FF000C087F0B9
:10241000D60EE96E010EEA6EEE5001014C5DEE50F3
:102420004D59EE504E59EE504F5901E2BED0030EB9
:102430000225F36E020EDBCFF4FFF350F45C01E3F0
:10244000B4D0DF500001875D3FE2030E0101022599
:10245000F36E020EDBCFF4FFF350F45C35E2020EB4
:10246000DB28E96EEA6AE9BEEA68010EE926010E98
:10247000EA22EF50166E176A16C017F0166A020E9F
:10248000DBCFE9FFEA6AE9BEEA68010EE926010E40
:10249000EA22EF5000011624146E000E1720156E6C
:1024A00000018751EA6A500FE96E010EEA2214C05A
:1024B000EFFF872B020E146EDBCFE7FF1450E726E9
:1024C000020EE7CFDBFFBDD7DF500001875D03E0E1
:1024D0000101035169E10001876BDF50875D1FE255
:1024E000030EE66E63EC08F0E55200018751EA6ADC
:1024F000500FE96E010EEA22EF50E66EE66A78ECC4
:1025000008F0E552E552DF040001875D05E2060EA2
:10251000E66E63EC08F0E5520001872BDED76E51C2
:10252000290A11E0010A01E021D0080EE66E63ECF1
:1025300008F0E5527DC0E6FF7EC0E6FFBCEC05F08A
:10254000E552E55213D0180EE66E63EC08F0E55242
:1025500079C0E6FF7AC0E6FFBCEC05F0E552E55233
:10256000170EE66E63EC08F0E55200D0060EE66E3C
:1025700063EC08F0E552DFCF14F0156A166A176AAB
:1025800014AE03D015681668176814500101D627D9
:102590001550D7231650D8231750D9230001876B25
:1025A000880502E12BEC04F033D7D60EE96E010E5C
:1025B000EA6EEE504C5DEE504D59EE504E59EE50D5
:1025C0004F5902E3035102E10001636B00016351C3
:1025D00002E156EC08F0F56E030EE15C02E2E16AFE
:1025E000E552E16EF550E552E7CFD9FF1200D9CFA1
:1025F000E6FFE1CFD9FF060EE126030EF36EF3CF1F
:10260000DBFF27EC08F0E66A63EC08F0E552000E09
:10261000E66EE66A78EC08F0E552E552DE6A200ED6
:10262000DD6EDECF14F0DDCF15F0166A176A0101FA
:102630004851145C495115584A5116584B51175876
:102640000AE2060EE66E63EC08F0E552DF2A010EA0
:1026500001E3DB2AE6D7DECF14F0DDCF15F0166AF2
:10266000176A145001014C5D15504D5916504E59C2
:1026700017504F5901E20DD12A0E00016F5D12E192
:10268000080EE66E63EC08F0E55281C0E6FF82C0FA
:10269000E6FFBCEC05F0E552E552170EE66E63EC82
:1026A00008F0E552010EF36E020EF3CFDBFFDBCF35
:1026B00014F000017651D880145455E3030EDB2842
:1026C000E96EEA6AE9BEEA68010EE926010EEA222D
:1026D000EF50166E176A16C017F0166A030EDBCF9E
:1026E000E9FFEA6AE9BEEA68010EE926010EEA227C
:1026F000EF5000011624146E000E1720156E040E04
:1027000014C0DBFF050E15C0DBFF020E146E030EB6
:10271000DBCFE7FF1450E726030EE7CFDBFF010E08
:10272000DE26000EDD22020EE66E63EC08F0E552B6
:10273000040EDBCFE6FF050EDBCFE6FF78EC08F0FA
:10274000E552E55200017651F36E020EDBCFF4FF45
:10275000F350F45C05E2060EE66E63EC08F0E55219
:10276000020EDB2AA4D76F512E0A75E0030A65E03A
:10277000010A50E0070A3BE0010A26E0030A11E0E3
:10278000010A01E07BD0180EE66E63EC08F0E5521A
:1027900081C0E6FF82C0E6FFBCEC05F0E552E552E1
:1027A0006DD0180EE66E63EC08F0E55281C0E6FFCE
:1027B00082C0E6FFBCEC05F0E552E552170EE66E6E
:1027C00063EC08F0E5525AD0180EE66E63EC08F0A0
:1027D000E55281C0E6FF82C0E6FFBCEC05F0E552A1
:1027E000E552170EE66E63EC08F0E55247D0080E8E
:1027F000E66E63EC08F0E55281C0E6FF82C0E6FFBA
:10280000BCEC05F0E552E5520E0EE66E63EC08F006
:10281000E55234D0180EE66E63EC08F0E55281C044
:10282000E6FF82C0E6FFBCEC05F0E552E5520A0E79
:10283000E66E63EC08F0E55221D0080EE66E63EC1C
:1028400008F0E55281C0E6FF82C0E6FFBCEC05F06F
:10285000E552E55213D0180EE66E63EC08F0E5522F
:1028600081C0E6FF82C0E6FFBCEC05F0E552E55210
:102870000E0EE66E63EC08F0E55200D0060EE66E32
:1028800063EC08F0E5520001880502E12BEC04F04E
:10289000E2D656EC08F0F56E060EE15C02E2E16A63
:1028A000E552E16EF550E552E7CFD9FF1200D9CFDE
:1028B000E6FFE1CFD9FF060EE12627EC08F0030E74
:1028C000F36EF3CFDBFFE66A63EC08F0E552000E2F
:1028D000E66EE66A78EC08F0E552E552DE6A200E14
:1028E000DD6EDECF14F0DDCF15F0166A176A010138
:1028F0004851145C495115584A5116584B511758B4
:102900000AE2060EE66E63EC08F0E552DF2A010EDD
:1029100001E3DB2AE6D7DECF14F0DDCF15F0166A2F
:10292000176A145001014C5D15504D5916504E59FF
:1029300017504F5901E2F2D0010EF36E020EF3CFA1
:10294000DBFFDBCF14F000017751D880145455E33E
:10295000030EDB28E96EEA6AE9BEEA68010EE926A1
:10296000010EEA22EF50166E176A16C017F0166AAB
:10297000030EDBCFE9FFEA6AE9BEEA68010EE92649
:10298000010EEA22EF5000011624146E000E1720EB
:10299000156E040E14C0DBFF050E15C0DBFF020E22
:1029A000146E030EDBCFE7FF1450E726030EE7CFCC
:1029B000DBFF010EDE26000EDD22020EE66E63EC6A
:1029C00008F0E552040EDBCFE6FF050EDBCFE6FF95
:1029D00078EC08F0E552E55200017751F36E020EF3
:1029E000DBCFF4FFF350F45C05E2060EE66E63EC19
:1029F00008F0E552020EDB2AA4D770512E0A70E0CF
:102A0000030A60E0010A4BE0070A36E0010A21E010
:102A1000030A11E0010A01E076D0180EE66E63ECBD
:102A200008F0E5527FC0E6FF80C0E6FFBCEC05F091
:102A3000E552E55268D0080EE66E63EC08F0E55208
:102A40007FC0E6FF80C0E6FFBCEC05F0E552E55232
:102A50005AD0180EE66E63EC08F0E5527FC0E6FF30
:102A600080C0E6FFBCEC05F0E552E552170EE66EBD
:102A700063EC08F0E55247D0080EE66E63EC08F010
:102A8000E5527FC0E6FF80C0E6FFBCEC05F0E552F2
:102A9000E5520E0EE66E63EC08F0E55234D0180EE7
:102AA000E66E63EC08F0E5527FC0E6FF80C0E6FF0B
:102AB000BCEC05F0E552E5520A0EE66E63EC08F058
:102AC000E55221D0080EE66E63EC08F0E5527FC0B7
:102AD000E6FF80C0E6FFBCEC05F0E552E55213D0FE
:102AE000180EE66E63EC08F0E5527FC0E6FF80C08A
:102AF000E6FFBCEC05F0E552E5520E0EE66E63EC27
:102B000008F0E55200D0060EE66E63EC08F0E552E0
:102B10000001880502E12BEC04F0FDD656EC08F02C
:102B2000F56E060EE15C02E2E16AE552E16EF550F7
:102B3000E552E7CFD9FF1200D9CFE6FFE1CFD9FFA9
:102B4000030EE126FB0EDBCF14F0FC0EDBCF15F0FD
:102B5000FD0EDBCF16F0FE0EDBCF17F01450E76E44
:102B6000020EE7CFDBFFFB0EDBCF14F0FC0EDBCF5A
:102B700015F0FD0EDBCF16F0FE0EDBCF17F0080EC2
:102B8000D8901732163215321432E806F9E1FB0EEE
:102B900014C0DBFFFC0E15C0DBFFFD0E16C0DBFF13
:102BA000FE0E17C0DBFFFB0EDBCF14F0FC0EDBCFFD
:102BB00015F0FD0EDBCF16F0FE0EDBCF17F0145034
:102BC000E76E010EE7CFDBFFFB0EDBCF14F0FC0E50
:102BD000DBCF15F0FD0EDBCF16F0FE0EDBCF17F0CE
:102BE000080ED8901732163215321432E806F9E181
:102BF000FB0E14C0DBFFFC0E15C0DBFFFD0E16C084
:102C0000DBFFFE0E17C0DBFFFB0EDBCF14F0FC0E6C
:102C1000DBCF15F0FD0EDBCF16F0FE0EDBCF17F08D
:102C20001450DF6EDF50146E156A14500E0E15121C
:102C300014C0E6FF15C0E6FFAED8E552E552F80E27
:102C4000E66E6E0EE66EA7D8E552E552010EDB5039
:102C5000146E156A14500E0E151214C0E6FF15C03E
:102C6000E6FF99D8E552E552F70EE66E6E0EE66E77
:102C700092D8E552E552020EDB50146E156A1450DC
:102C80000E0E151214C0E6FF15C0E6FF84D8E552FB
:102C9000E552F60EE66E6E0EE66E7DD8E552E55212
:102CA000F56E030EE15C02E2E16AE552E16EF55079
:102CB000E552E7CFD9FF1200D9CFE6FFE1CFD9FF28
:102CC000FE0EDBCFE6FF040EE66E82EC07F0E55267
:102CD000E552010EE66E9BEC3FF0E552E552E7CF80
:102CE000D9FF1200D9CFE6FFE1CFD9FFFF0EE76E83
:102CF000FD0EDBCF14F0FE0EDBCF15F0E7501416FF
:102D0000156A1450E66E080EE66E82EC07F0E55286
:102D1000E552FD0EDBCF14F0FE0EDBCF15F015C033
:102D200014F0156AFD0E14C0DBFFFE0E15C0DBFFAC
:102D3000FD0EDBCFE6FF080EE66E82EC07F0E552F3
:102D4000E552010EE66E9BEC3FF0E552E552E7CF0F
:102D5000D9FF1200D9CFE6FFE1CFD9FFE65262ECEE
:102D600007F0080EE66EB9EC07F0E552DF6E080ECC
:102D7000E66EB9EC07F0E552DF6E72EC07F0010E7B
:102D8000E66E9BEC3FF0E552DF5000D0E552E55295
:102D9000E7CFD9FF1200D9CFE6FFE1CFD9FFE66A2E
:102DA0008BDFE552FD0EDBCFE6FFFE0EDBCFE6FF4D
:102DB00099DFE552E552E552E7CFD9FF1200D9CFAE
:102DC000E6FFE1CFD9FF0C0EE66E76DFE552FD0E91
:102DD000DBCFE6FFFE0EDBCFE6FF84DFE552E552F8
:102DE000E552E7CFD9FF1200D9CFE6FFE1CFD9FFF7
:102DF0000D0EE66E61DFE552FD0EDBCFE6FFFE0E47
:102E0000DBCFE6FF6FDFE552E552E552E7CFD9FFB2
:102E10001200D9CFE6FFE1CFD9FF0F0EE66E4CDFEF
:102E2000E552FD0EDBCFE6FFFE0EDBCFE6FF5ADFFD
:102E3000E552E552E552E7CFD9FF1200D9CFE6FFC0
:102E4000E1CFD9FFE652DAEC06F0DF6ADFCF14F00B
:102E5000030EE76E1418E8AE02D0E73402D0E75054
:102E6000145C0DE2CAEC06F0010EE66EE66ABCECFC
:102E700005F0E552E552BAEC06F0DF2AE7D7CAECD6
:102E800006F0FD0EDBCFE6FFFE0EDBCFE6FFBCEC6F
:102E900005F0E552E552BAEC06F0000EE66EE66A81
:102EA00021DFE552E5520001880502E12BEC04F038
:102EB000E552E552E7CFD9FF1200D9CFE6FFE1CFC7
:102EC000D9FF060EE12627EC08F0FE0EE66EE66856
:102ED0003F0EE66EE66A30DEE552E552E552E55217
:102EE000090EE66EE9DEE55235DFE66ED950020FD7
:102EF000E96EDACFEAFFE552E750EE6EED6A090EB1
:102F0000E66EDADEE55226DFE66ED950040FE96E92
:102F1000DACFEAFFE552E750EE6EED6A56EC08F0C4
:102F2000040EDBCF16F0050EDBCF17F016C017F03E
:102F3000166A020EDB501624146E030EDB501720A7
:102F4000156E14C0DEFF15C0DDFFDECF14F0DDCF3F
:102F500015F014C0F3FF15C0F4FFF56E060EE15C2A
:102F600003E200D0E16AE552E16EF550E552E7CFA9
:102F7000D9FF1200D9CFE6FFE1CFD9FF050EE12638
:102F8000030EDF6E0101510E016F026B036B3F0EEA
:102F9000006F4C0EE96E010EEA6E4851EE5C49512D
:102FA000EE584A51EE584B51EE5803E20001606B67
:102FB000B6D00001605112E127EC08F00001010ECB
:102FC000606F48C1E6FF49C1E6FF4AC1E6FF4BC159
:102FD000E6FFB2DDE552E552E552E552480EE96EF4
:102FE000010EEA6EEE5001014C5D146EEE504D592B
:102FF000156EEE504E59166EEE504F59176E142A3C
:10300000000E152216221722010E14C0DBFF020E3D
:1030100015C0DBFF030E16C0DBFF040E17C0DBFF7D
:10302000010EDBCF05F0020EDBCF06F0030EDBCF87
:1030300007F0040EDBCF08F00834000E081809E68C
:10304000D8803C0E0554000E0654000E0754000EA6
:1030500008540CE23C0EF36E010EF3CFDBFF020EC0
:10306000DB6A030EDB6A040EDB6A02D00001606BD0
:10307000010EDBCF02F1030EDF6EDFCF14F0156A15
:10308000166A176A010EDBCF18F0020EDBCF19F0BB
:10309000030EDBCF1AF0040EDBCF1BF0030E182655
:1030A000000E19221A221B2217501B18E8AE02D05C
:1030B0001B3408D01850145C195015581A50165863
:1030C0001B50175811E2090EE66EF6DDE55242DE9E
:1030D000E66EDF50EA6A010FE96E010EEA22E55260
:1030E000E750EF6EDF2AC9D70101010E036FD950F7
:1030F000010FE96EDACFEAFF4851EE24486F4951DB
:10310000EE20496F4A51EE204A6F4B51EE204B6F33
:103110000001605104E10101036B56EC08F0F56E0B
:10312000050EE15C02E2E16AE552E16EF550E5521E
:10313000E7CFD9FF1200D9CFE6FFE1CFD9FF0D0EBF
:10314000E126030EDF6E0101520E016F026B036B6D
:103150003F0E006F4C0EE96E010EEA6E4851EE5CB8
:103160004951EE584A51EE584B51EE5803E20001D6
:10317000616B39D10001615113E127EC08F00001C6
:10318000010E616FA60EE66E9E0EE66E04DEE5523F
:10319000E552A60EE66E9C0EE66EFDDDE552E552AA
:1031A000480EE96E010EEA6EEE5001014C5D146EA0
:1031B000EE504D59156EEE504E59166EEE504F5959
:1031C000176E142A000E152216221722010E14C0A3
:1031D000DBFF020E15C0DBFF030E16C0DBFF040E83
:1031E00017C0DBFF010EDBCF05F0020EDBCF06F0D0
:1031F000030EDBCF07F0040EDBCF08F00834000E1F
:10320000081809E6D8803C0E0554000E0654000E3E
:103210000754000E08540CE23C0EF36E010EF3CF7F
:10322000DBFF020EDB6A030EDB6A040EDB6A02D0F0
:103230000001616B010EDBCF02F1030EDF6EDFCF09
:1032400014F0156A166A176A010EDBCF18F0020E29
:10325000DBCF19F0030EDBCF1AF0040EDBCF1BF02F
:10326000030E1826000E19221A221B2217501B18B3
:10327000E8AE02D01B3408D01850145C1950155811
:103280001A5016581B50175801E3A3D048C114F028
:1032900049C115F04AC116F04BC117F0156A166AFC
:1032A000176A050E14C0DBFF060E15C0DBFF070E04
:1032B00016C0DBFF080E17C0DBFF48C114F049C180
:1032C00015F04AC116F04BC117F0146A166A176A56
:1032D000D8901732163215321432E806F9E1090E89
:1032E00014C0DBFF0A0E15C0DBFF0B0E16C0DBFFA0
:1032F0000C0E17C0DBFF050EDBCF14F0060EDBCF84
:1033000015F0070EDBCF16F0080EDBCF17F00E0E10
:10331000151214C0E6FF15C0E6FF3DDDE552E5528B
:10332000A90EE66E6E0EE66E36DDE552E552090E2A
:10333000DBCF14F00A0EDBCF15F00B0EDBCF16F04F
:103340000C0EDBCF17F00E0E151214C0E6FF15C0E1
:10335000E6FF21DDE552E552AA0EE66E6E0EE66E40
:103360001ADDE552E552A60EE66E800EE66E13DD1E
:10337000E552E552A80EE66E500EE66E0CDDE55203
:10338000E552F50EE66E6E0EE66E05DDE552E5528F
:103390003D0E0001735D06E1000EE66EE66AFBDCA1
:1033A000E552E552020EE66E87DCE552D3DCE66EAE
:1033B000DF50EA6A010FE96E010EEA22E552E7509A
:1033C000EF6E0101482B000E49234A234B23DF2ACD
:1033D00036D70101010E036F0001615104E10101C3
:1033E000036B56EC08F0F56E0D0EE15C02E2E16A4B
:1033F000E552E16EF550E552E7CFD9FF120001EF3B
:103400001AF0D9CFE6FFE1CFD9FFE65227EC08F05A
:1034100048C1E6FF49C1E6FF4AC1E6FF4BC1E6FFEE
:103420009CEC15F0E552E552E552E552DF6ADFCF3C
:1034300014F0156A166A176A14AE03D01568166878
:103440001768480EE96E010EEA6EEE5001014C5D00
:10345000186EEE504D59196EEE504E591A6EEE50D0
:103460004F591B6ED890183619361A361B36145021
:10347000185C1550195816501A5817501B5815E358
:10348000090EE66E19DCE55265DCE66E030EDF24FC
:10349000E96EEA6AE9BEEA68010EE926010EEA224F
:1034A000E552E750EF6EDF2AC2D756EC08F0DFCFC7
:1034B00002F10101036B3F0E006FE552E552E7CFC9
:1034C000D9FF120027EC08F000017251400A01E117
:1034D0008BD07F0A60E0010A39E0030A16E0010A96
:1034E00001E0A8D0040EE66EE66A3C0EE66EE66ADF
:1034F0009CEC15F0E552E552E552E552800EE66E81
:10350000E66A5DDCE552E55295D0A60EE66E8E0EBB
:10351000E66E41DCE552E552A60EE66E8C0EE66ED6
:103520003ADCE552E552040EE66EE66A3C0EE66EC3
:10353000E66A9CEC15F0E552E552E552E552800E44
:10354000E66EE66A3CDCE552E55274D0050EE66EA6
:10355000E66A3C0EE66EE66A9CEC15F0E552E55232
:10356000E552E5523F0EE66EE66E29DCE552E55285
:10357000040EE66EE66A3C0EE66EE66A9CEC15F01A
:10358000E552E552E552E5528F0EE66EE66E17DC27
:10359000E552E5524FD0050EE66EE66A3C0EE66E49
:1035A000E66A9CEC15F0E552E552E552E5520A0E4A
:1035B000E66E010EE66EDFEC16F0E552E552040E03
:1035C000E66EE66A3C0EE66EE66A9CEC15F0E552A5
:1035D000E552E552E5528A0EE66E010EE66EDFEC2C
:1035E00016F0E552E55226D0050EE66EE66A3C0E70
:1035F000E66EE66A9CEC15F0E552E552E552E552BE
:10360000E668E668DFEC16F0E552E552040EE66E79
:10361000E66A3C0EE66EE66A9CEC15F0E552E55271
:10362000E552E552870EE66EE66EDFEC16F0E552E7
:10363000E55200D0000EE66EE66ACBEC16F0E552DD
:10364000E552E66A5CEC16F0E55283C0E6FF84C002
:10365000E6FFBCEC05F0E552E552000EE66EE66AC8
:1036600072EC16F0E552E55256EF08F062EF1AF0F0
:10367000D9CFE6FFE1CFD9FF030EE12674C0DFFF0B
:103680000101600E016F4C0EE96E010EEA6E4851A9
:10369000EE5C4951EE584A51EE584B51EE5803E258
:1036A0000001626B0ED2030EF36E020EF3CFDBFF4E
:1036B0000001625101E021D1010E626F876B400E63
:1036C000875D09E28751EA6A500FE96E010EEA222E
:1036D000EF6A872BF4D7876B27EC08F0DFCF14F065
:1036E000156A166A176A14AE03D01568166817684B
:1036F00048C104F049C105F04AC106F04BC107F0CA
:1037000014C009F015C00AF016C00BF017C00CF079
:103710001DEC3FF000500101485DD26F0150495946
:10372000D36F02504A59D46F03504B59D56FDFCF36
:1037300014F0156A166A176A14AE03D01568166875
:10374000176848C104F049C105F04AC106F04BC1F1
:1037500007F014C009F015C00AF016C00BF017C02E
:103760000CF01DEC3FF000C087F000016D5102E14C
:103770003C0E6D6F27EC08F000016D51400A2FE000
:103780007D0A14E0010A01E043D0A60EE66E8E0E1B
:10379000E66ECBEC16F0E552E552A60EE66E8C0E08
:1037A000E66ECBEC16F0E552E55232D0A60EE66E90
:1037B0008E0EE66ECBEC16F0E552E552A60EE66EE6
:1037C0008C0EE66ECBEC16F0E552E552A60EE66ED8
:1037D000840EE66ECBEC16F0E552E55219D0A60E3B
:1037E000E66E8E0EE66ECBEC16F0E552E552A60EB6
:1037F000E66E8C0EE66ECBEC16F0E552E552A60EA8
:10380000E66E840EE66ECBEC16F0E552E55200D083
:10381000060EE66EE66A3C0EE66EE66A9CEC15F075
:10382000E552E552E552E552000EE66EE66ADFEC3F
:1038300016F0E552E55200016D513E0A4DE07E0A58
:103840003AE07F0A27E0020A14E0010A01E055D0BD
:10385000A60EE66E8E0EE66ECBEC16F0E552E55245
:10386000A60EE66E9C0EE66ECBEC16F0E552E55227
:1038700044D0A60EE66E8E0EE66ECBEC16F0E55248
:10388000E552A60EE66E9C0EE66ECBEC16F0E55207
:10389000E55233D0A60EE66E8E0EE66ECBEC16F039
:1038A000E552E552A60EE66E9C0EE66ECBEC16F0E7
:1038B000E552E55222D0A60EE66E8E0EE66ECBECF9
:1038C00016F0E552E552A60EE66E9C0EE66ECBECC7
:1038D00016F0E552E55211D0A60EE66E9C0EE66E8D
:1038E000CBEC16F0E552E552A60EE66E840EE66EBF
:1038F000CBEC16F0E552E55200D0D20EE96E010E87
:10390000EA6EEE5001014C5DEE504D59EE504E59AD
:10391000EE504F5901E2BDD0030E0225F36E020EA8
:10392000DBCFF4FFF350F45C01E3B3D0DF500001D0
:10393000875D2BE2030E01010225F36E020EDBCF41
:10394000F4FFF350F45C21E2020EDBCFE9FFEA6AF8
:10395000E9BEEA68010EE926010EEA22EF50E66EA2
:1039600000018751EA6A500FE96E010EEA22E55222
:10397000E750EF6E872B020E146EDBCFE7FF14507B
:10398000E726020EE7CFDBFFD1D7DF500001875DCE
:1039900004E00101035101E07BD0D2C1E6FFD3C1B5
:1039A000E6FFD4C1E6FFD5C1E6FF9CEC15F0E55279
:1039B000E552E552E5520001876BDF50875D53E227
:1039C000020EDF5C875D22E28729EA6A500FE96E0A
:1039D000010EEA22EF50166E176A16C017F0166A2B
:1039E0008751EA6A500FE96E010EEA22EF5000019A
:1039F0001624146E000E1720156E14C0E6FF15C0B5
:103A0000E6FFF4EC16F0E552E55229D08729EA6A80
:103A1000500FE96E010EEA22EF50166E176A16C0BB
:103A200017F0166A8751EA6A500FE96E010EEA2212
:103A3000EF5000011624146E000E1720156E14C0EE
:103A4000E6FF15C0E6FF09EC17F0E552E55279C034
:103A5000E6FF7AC0E6FF1EEC17F0E552E552020ED3
:103A600000018727AAD7DFCF14F0156A166A176AF4
:103A700014AE03D015681668176814500101D227D8
:103A80001550D3231650D4231750D5230001876B2C
:103A900034D7D20EE96E010EEA6EEE504C5DEE5058
:103AA0004D59EE504E59EE504F5902E3035102E189
:103AB0000001626B0001625102E156EC08F0010165
:103AC000026BF56E030EE15C02E2E16AE552E16E23
:103AD000F550E552E7CFD9FF1200D9CFE6FFE1CF8D
:103AE000D9FF030EE126DEC114F0DFC115F0E0C1FD
:103AF00016F0E1C117F0156A166A176A0E0E151254
:103B000014C0E6FF15C0E6FFCBEC16F0E552E55217
:103B1000A90EE66E6E0EE66ECBEC16F0E552E5529F
:103B2000DFC114F0E0C115F0E1C116F00001176A21
:103B30000E0E151214C0E6FF15C0E6FFCBEC16F012
:103B4000E552E552AA0EE66E6E0EE66ECBEC16F06E
:103B5000E552E552FE0EDB50146E156A14500E0E3F
:103B6000151214C0E6FF15C0E6FFCBEC16F0E552C7
:103B7000E552A80EE66E6E0EE66ECBEC16F0E55240
:103B8000E552A60EE66E840EE66ECBEC16F0E5521C
:103B9000E552550EE66E0E0EE66ECBEC16F0E552D3
:103BA000E552A70EE66E6E0EE66ECBEC16F0E55211
:103BB000E552AA0EE66E0E0EE66ECBEC16F0E5525E
:103BC000E552A70EE66E6E0EE66ECBEC16F0E552F1
:103BD000E552A60EE66E820EE66ECBEC16F0E552CE
:103BE000E5520A0EDF6E010EE66EE66AFDEC05F0A8
:103BF000E552E552DF06A60EE66E500EE66ECBEC01
:103C000016F0E552E552F50EE66E6E0EE66ECBEC62
:103C100016F0E552E552020EE66E5CEC16F0E55247
:103C2000AAEC16F0E66ED950010FE96EDACFEAFF82
:103C3000E552E750EE6EED6ADFCF14F0000EE76E4E
:103C40001418E8AE02D0143403D0E750D8801454CE
:103C500010E2020EE76E010EDBCF15F0020EDBCF95
:103C600016F0E7501516166A020E151801E11650E7
:103C7000BAE0640EE66EE66ABCEC05F0E552E55289
:103C8000A60EE66E940EE66ECBEC16F0E552E5520B
:103C90000001880502E12BEC04F0F56E030EE15CF7
:103CA00002E2E16AE552E16EF550E552E7CFD9FF55
:103CB0001200D9CFE6FFE1CFD9FF030EE126DEC126
:103CC00014F0DFC115F0E0C116F0E1C117F0156A7C
:103CD000166A176A0E0E151214C0E6FF15C0E6FF2D
:103CE000CBEC16F0E552E552A90EE66E6E0EE66ECE
:103CF000CBEC16F0E552E552DFC114F0E0C115F04F
:103D0000E1C116F00001176A0E0E151214C0E6FF8D
:103D100015C0E6FFCBEC16F0E552E552AA0EE66EB2
:103D20006E0EE66ECBEC16F0E552E552FE0EDB5061
:103D3000146E156A14500E0E151214C0E6FF15C04D
:103D4000E6FFCBEC16F0E552E552A80EE66E6E0EDD
:103D5000E66ECBEC16F0E552E552A60EE66E840E4A
:103D6000E66ECBEC16F0E552E552A60EE66E820E3C
:103D7000E66ECBEC16F0E552E5520A0EDF6E010E50
:103D8000E66EE66AFDEC05F0E552E552DF06A60EAA
:103D9000E66E500EE66ECBEC16F0E552E552F50EEF
:103DA000E66E6E0EE66ECBEC16F0E552E552000EB6
:103DB000E66EE66ACBEC16F0E552E552020EE66ED0
:103DC0005CEC16F0E552AAEC16F0E66ED950010F45
:103DD000E96EDACFEAFFE552E750EE6EED6ADFCF2B
:103DE00014F0000EE76E1418E8AE02D0143403D0BD
:103DF000E750D880145410E2020EE76E010EDBCFBC
:103E000015F0020EDBCF16F0E7501516166A020EFB
:103E1000151801E11650B3E0640EE66EE66ABCECDC
:103E200005F0E552E552A60EE66E940EE66ECBEC7A
:103E300016F0E552E5520001880502E12BEC04F092
:103E4000F56E030EE15C02E2E16AE552E16EF550C7
:103E5000E552E7CFD9FF1200D9CFE6FFE1CFD9FF76
:103E6000DEC114F0DFC115F0E0C116F0E1C117F0BA
:103E7000156A166A176A0E0E151214C0E6FF15C0F1
:103E8000E6FFCBEC16F0E552E552A90EE66E6E0E9B
:103E9000E66ECBEC16F0E552E552FE0EDB50146EEA
:103EA000156A14500E0E151214C0E6FF15C0E6FF79
:103EB000CBEC16F0E552E552A80EE66E6E0EE66EFD
:103EC000CBEC16F0E552E552A60EE66E840EE66ED9
:103ED000CBEC16F0E552E552550EE66E0E0EE66E90
:103EE000CBEC16F0E552E552A70EE66E6E0EE66ECE
:103EF000CBEC16F0E552E552AA0EE66E0E0EE66E1B
:103F0000CBEC16F0E552E552A70EE66E6E0EE66EAD
:103F1000CBEC16F0E552E552A60EE66E820EE66E8A
:103F2000CBEC16F0E552E552000EE66EE66ACBECFD
:103F300016F0E552E552E66A5CEC16F0E5527DC0FB
:103F4000E6FF7EC0E6FFBCEC05F0E552E552000E50
:103F5000E66EE66A72EC16F0E552E552640EE66E25
:103F6000E66ABCEC05F0E552E552A60EE66E940E4C
:103F7000E66ECBEC16F0E552E5520001880502E151
:103F80002BEC04F0E552E7CFD9FF1200D9CFE6FFC2
:103F9000E1CFD9FF020EE1260101610E016F4C0E47
:103FA000E96E010EEA6E4851EE5C4951EE584A51F5
:103FB000EE584B51EE5803E20001636B8DD0DE5298
:103FC000030EDD6E0001635121E16E5102E13C0EF2
:103FD0006E6F27EC08F00001010E636F48C1DEF13F
:103FE00049C1DFF14AC1E0F14BC1E1F1A60EE66E35
:103FF0009E0EE66ECBEC16F0E552E552A60EE66E8E
:104000009C0EE66ECBEC16F0E552E552DE0EE96E44
:10401000010EEA6EEE5001014C5DEE504D59EE502E
:104020004E59EE504F5942E3030E0225F36E010E36
:10403000DBCFF4FFF350F45C39E2010EDBCFE9FF94
:10404000EA6AE9BEEA68010EE926010EEA22EFCF2C
:10405000DFFF0001000ED8806B55000E6C5505E2A5
:10406000DFCFE6FF3ADDE55210D06E513D0A08E0A1
:10407000010A01E00AD0DFCFE6FF1BDEE55205D0E2
:10408000DFCFE6FFE9DEE55200D0020E146E010E2E
:10409000DBCFE7FF1450E726010EE7CFDBFF01017E
:1040A000DE2B000EDF23E023E123B0D7DE0EE96E26
:1040B000010EEA6EEE504C5DEE504D59EE504E59E9
:1040C000EE504F5902E3035102E10001636B00011E
:1040D000635102E156EC08F0F56E020EE15C02E27B
:1040E000E16AE552E16EF550E552E7CFD9FF1200E3
:1040F00000016F5102E13C0E6F6F27EC08F00001E8
:10410000000ED8806B55000E6C5523E2A60EE66EAD
:104110008E0EE66ECBEC16F0E552E552A60EE66E7C
:104120008C0EE66ECBEC16F0E552E552060EE66E0E
:10413000E66A3C0EE66EE66A9CEC15F0E552E55246
:10414000E552E552000EE66EE66ADFEC16F0E55247
:10415000E55200016F513E0A27E0030A14E0010A0C
:1041600001E033D0A60EE66E8E0EE66ECBEC16F0B6
:10417000E552E552A60EE66E9C0EE66ECBEC16F00E
:10418000E552E55222D0A60EE66E8E0EE66ECBEC20
:1041900016F0E552E552A60EE66E9C0EE66ECBECEE
:1041A00016F0E552E55211D0A60EE66E9C0EE66EB4
:1041B000CBEC16F0E552E552A60EE66E840EE66EE6
:1041C000CBEC16F0E552E55200D048C1E6FF49C1FC
:1041D000E6FF4AC1E6FF4BC1E6FF9CEC15F0E55255
:1041E000E552E552E55201010551166E176A16C0F7
:1041F00017F0166A045100011624146E000E1720E1
:10420000156E14C0E6FF15C0E6FFF4EC16F0E5529B
:10421000E55201010751166E176A16C017F0166AAB
:10422000065100011624146E000E1720156E14C0DE
:10423000E6FF15C0E6FFF4EC16F0E552E552010189
:104240000951166E176A16C017F0166A0851000158
:104250001624146E000E1720156E14C0E6FF15C04C
:10426000E6FFF4EC16F0E552E55201010B51166E33
:10427000176A16C017F0166A0A5100011624146E48
:10428000000E1720156E14C0E6FF15C0E6FF09ECFE
:1042900017F0E552E55281C0E6FF82C0E6FF1EEC52
:1042A00017F0E552E55256EF08F0D9CFE6FFE1CF1F
:1042B000D9FFFD0EDBCFE6FFFE0EDBCFE6FF09ECFC
:1042C00017F0E552E5527FC0E6FF80C0E6FF1EEC26
:1042D00017F0E552E5523F0E0001705D1CE1000E43
:1042E000E66EE66ACBEC16F0E552E552000EE66E9D
:1042F000E66ACBEC16F0E552E552000EE66EE66A91
:10430000CBEC16F0E552E552000EE66EE66ACBEC19
:1043100016F0E552E552DCC1E6FFDDC1E6FFCBEC6D
:1043200016F0E552E552F60EE66E6E0EE66ECBEC3A
:1043300016F0E552E5520101DC2B000EDD23E552BB
:10434000E7CFD9FF12000001705102E13C0E706FFF
:1043500027EC08F0000170513F0A48E0010A35E0FF
:10436000030A14E0010A01E060D0A60EE66E8E0E8C
:10437000E66ECBEC16F0E552E552A60EE66E8C0E1C
:10438000E66ECBEC16F0E552E5524FD0A60EE66E87
:104390008E0EE66ECBEC16F0E552E552A60EE66EFA
:1043A0008C0EE66ECBEC16F0E552E552E66AEF0EA7
:1043B000E66ECBEC16F0E552E552E66AF80EE66ED4
:1043C000CBEC16F0E552E55230D0A60EE66E840E28
:1043D000E66ECBEC16F0E552E552A60EE66E8C0EBC
:1043E000E66ECBEC16F0E552E5521FD0A60EE66E57
:1043F0008E0EE66ECBEC16F0E552E552A60EE66E9A
:104400008C0EE66ECBEC16F0E552E552E66AEF0E46
:10441000E66ECBEC16F0E552E552E66AF80EE66E73
:10442000CBEC16F0E552E55200D048C1E6FF49C199
:10443000E6FF4AC1E6FF4BC1E6FF9CEC15F0E552F2
:10444000E552E552E5520101010EDC6F0E0EDD6F03
:104450000451E66EE66A29DFE552E5520101065194
:10446000146E156A14C015F0146A14C0E6FF15C066
:10447000E6FF1BDFE552E55201010851E66EE66AF0
:1044800014DFE552E55201010A51146E156A14C099
:1044900015F0146A14C0E6FF15C0E6FF06DFE5520A
:1044A000E55201010C51E66EE66AFFDEE552E55287
:1044B00001010E51146E156A14C015F0146A14C06F
:1044C000E6FF15C0E6FFF1DEE552E55201011051AD
:1044D000E66EE66AEADEE552E55201011251146E1B
:1044E000156A14C015F0146A14C0E6FF15C0E6FF83
:1044F000DCDEE552E55201011451E66EE66AD5DED6
:10450000E552E55201011651146E156A14C015F0FA
:10451000146A14C0E6FF15C0E6FFC7DEE552E55297
:1045200001011851E66EE66AC0DEE552E55201016E
:104530001A51146E156A14C015F0146A14C0E6FFFF
:1045400015C0E6FFB2DEE552E55201011C51E66EF0
:10455000E66AABDEE552E55201011E51146E156AA2
:1045600014C015F0146A14C0E6FF15C0E6FF09EC8C
:1045700017F0E552E5527FC0E6FF80C0E6FF1EEC73
:1045800017F0E552E5523F0E0001705D1CE1000E90
:10459000E66EE66ACBEC16F0E552E552000EE66EEA
:1045A000E66ACBEC16F0E552E552000EE66EE66ADE
:1045B000CBEC16F0E552E552000EE66EE66ACBEC67
:1045C00016F0E552E55256EF08F0D9CFE6FFE1CFFD
:1045D000D9FFFE0EDBCFE6FF040EE66E82EC07F09D
:1045E000E552E552010EE66E9BEC3FF0E552E552D6
:1045F000E7CFD9FF1200D9CFE6FFE1CFD9FFFB0EFD
:10460000DBCF14F0FC0EDBCF15F0FD0EDBCF16F088
:10461000FE0EDBCF17F01450E66E080EE66E82EC4D
:1046200007F0E552E552FB0EDBCF14F0FC0EDBCFBA
:1046300015F0FD0EDBCF16F0FE0EDBCF17F0080EE7
:10464000D8901732163215321432E806F9E1FB0E13
:1046500014C0DBFFFC0E15C0DBFFFD0E16C0DBFF38
:10466000FE0E17C0DBFFFB0EDBCF14F0FC0EDBCF22
:1046700015F0FD0EDBCF16F0FE0EDBCF17F0145059
:10468000E66E080EE66E82EC07F0E552E552FB0E90
:10469000DBCF14F0FC0EDBCF15F0FD0EDBCF16F0F8
:1046A000FE0EDBCF17F0080ED890173216321532F7
:1046B0001432E806F9E1FB0E14C0DBFFFC0E15C056
:1046C000DBFFFD0E16C0DBFFFE0E17C0DBFFFB0E8F
:1046D000DBCF14F0FC0EDBCF15F0FD0EDBCF16F0B8
:1046E000FE0EDBCF17F01450E66E080EE66E82EC7D
:1046F00007F0E552E552010EE66E9BEC3FF0E55205
:10470000E552E7CFD9FF1200D9CFE6FFE1CFD9FFBD
:10471000040EE12662EC07F0080EE66EB9EC07F035
:10472000E552080EE66EB9EC07F0E552E76E020EB0
:10473000E7CFDBFF080EE66EB9EC07F0E552E76E57
:10474000030EE7CFDBFFDB50166E176A16C017F0BB
:10475000166A020EDB5000011624146E000E17209C
:10476000156E14C0DEFF15C0DDFF72EC07F0010E00
:10477000E66E9BEC3FF0E552DECF14F0DDCF15F096
:1047800014C0F3FF15C0F4FFF56E040EE15C03E204
:1047900000D0E16AE552E16EF550E552E7CFD9FF6E
:1047A0001200D9CFE6FFE1CFD9FFE66A0EDFE5526E
:1047B000D950FB0FE96EFF0EDA20EA6EEECFE6FF6E
:1047C000EECFE6FFEECFE6FFEFCFE6FF14DFE552D8
:1047D000E552E552E552E552E7CFD9FF1200E66A0D
:1047E000E66AE66AE66ADDDFE552E552E552E55241
:1047F0001200D9CFE6FFE1CFD9FF020EE126010E6C
:10480000E66EE3DEE55280DFF3CFDEFFF4CFDDFFBF
:10481000DECF14F0DDCF15F014C0F3FF15C0F4FFA8
:10482000F56E020EE15C03E200D0E16AE552E16E52
:10483000F550E552E7CFD9FF1200D1DFD0DFE66AAD
:10484000010EE66E040EE66EE66AABDFE552E55257
:10485000E552E552EFEF23F0D9CFE6FFE1CFD9FFE4
:10486000040EE12627EC08F0E8DFF00EE66E0F0EEE
:10487000E66E200EE66EE66A94DFE552E552E552FA
:10488000E552900EE66E010EE66E880EE66EE66A62
:1048900088DFE552E552E552E552E66A030EE66E20
:1048A000EB0EE66EE66A7DDFE552E552E552E55233
:1048B000800EE66E030EE66EEB0EE66EE66A71DFC4
:1048C000E552E552E552E552B60EE66E0B0EE66E87
:1048D000BA0EE66EE66A65DFE552E552E552E5524C
:1048E0007EDF7DDF200EE66E3C0EE66E880EE66E05
:1048F000E66A57DFE552E552E552E55270DF79DFAF
:10490000F3CFDEFFF4CFDDFF6ADFE66A010EE66E6D
:10491000040EE66EE66A45DFE552E552E552E552E1
:104920005EDFB60EE66E0B0EE66EBA0EE66EE66A59
:1049300038DFE552E552E552E55251DF50DF200EF7
:10494000E66E3C0EE66E880EE66EE66A2ADFE552FB
:10495000E552E552E55243DF4CDF020EF3CFDBFFB9
:10496000030EF4CFDBFF3BDFE66A010EE66E040EBA
:10497000E66EE66A16DFE552E552E552E5522FDFB4
:1049800056EC08F0DECF14F0DDCF15F014C0F3FFC5
:1049900015C0F4FFF56E040EE15C03E200D0E16A9D
:1049A000E552E16EF550E552E7CFD9FF1200D9CFBD
:1049B000E6FFE1CFD9FF130EE126030EF36E080EDA
:1049C000F3CFDBFF0101510E016F026B036B3F0E52
:1049D000006F4C0EE96E010EEA6E4851EE5C4951D3
:1049E000EE584A51EE584B51EE5803E20001606B0D
:1049F00087D30001605101E0B4D027EC08F000013A
:104A0000010E606F48C114F049C115F04AC116F09B
:104A10004BC117F0166A176A14C0DFFF15C0DBFF21
:104A2000020E16C0DBFF030E17C0DBFFD9CFE9FF74
:104A3000DACFEAFFEECF14F0EECF15F0EECF16F09E
:104A4000EFCF17F0040E1F0B07E0D8901436153681
:104A500016361736E806F9E114C0DFFF010E15C05F
:104A6000DBFF020E16C0DBFF030E17C0DBFF48C1E1
:104A700014F049C115F04AC116F04BC117F0146A81
:104A8000156A176A040E14C0DBFF050E15C0DBFFA4
:104A9000060E16C0DBFF070E17C0DBFF040EDBCFD0
:104AA00014F0050EDBCF15F0060EDBCF16F0070E67
:104AB000DBCF17F00C0ED8901732163215321432A5
:104AC000E806F9E1040E14C0DBFF050E15C0DBFF9C
:104AD000060E16C0DBFF070E17C0DBFFAEDE040EAE
:104AE000DBCF14F0050EDBCF15F0060EDBCF16F092
:104AF000070EDBCF17F0168A14C0E6FF15C0E6FFDD
:104B000016C0E6FF17C0E6FF4CDEE552E552E5525F
:104B1000E552900EE66E010EE66E880EE66EE66ACF
:104B200040DEE552E552E552E552D9CFE9FFDACF52
:104B3000EAFFEECF14F0EECF15F0EECF16F0EFCF88
:104B400017F0060E1412168A14C0E6FF15C0E6FF11
:104B500016C0E6FF17C0E6FF24DEE552E552E55237
:104B6000E552480EE96E010EEA6EEE5001014C5D11
:104B7000146EEE504D59156EEE504E59166EEE50A5
:104B80004F59176E142A000E152216221722030EF3
:104B9000096E0A6A0B6A0C6A14C004F015C005F0AD
:104BA00016C006F017C007F0B8EC3EF000C014F0D5
:104BB00001C015F002C016F003C017F0010E1F0B64
:104BC00007E0D8901436153616361736E806F9E1A0
:104BD000090E14C0DBFF0A0E15C0DBFF0B0E16C05A
:104BE000DBFF0C0E17C0DBFF090EDBCF05F00A0E52
:104BF000DBCF06F00B0EDBCF07F00C0EDBCF08F09F
:104C00000834000E081809E6D8803C0E0554000E42
:104C10000654000E0754000E08540CE23C0EF36ECE
:104C2000090EF3CFDBFF0A0EDB6A0B0EDB6A0C0EFC
:104C3000DB6A02D00001606B090EDBCF02F1030ECC
:104C4000F36E080EF3CFDBFF080EDBCF14F0156A0E
:104C5000166A176A090EDBCF18F00A0EDBCF19F0BF
:104C60000B0EDBCF1AF00C0EDBCF1BF0030E182659
:104C7000000E19221A221B220C0E185E000E195A61
:104C80001A5A1B5A1B501718E8AE02D0173408D016
:104C90001450185C1550195816501A5817501B58B4
:104CA00001E224D2800EE66E030EE66EEB0EE66E97
:104CB000E66A77DDE552E552E552E552960EE66E7C
:104CC0001B0EE66EBA0EE66EE66A6BDDE552E55245
:104CD000E552E55284DD83DDB60EE66EDB0EE66E50
:104CE000BA0EE66EE66A5DDDE552E552E552E55242
:104CF00076DD75DDD60EE66EDB0EE66EBA0EE66E7E
:104D0000E66A4FDDE552E552E552E55268DD67DDC2
:104D1000B60EE66E1B0EE66EBA0EE66EE66A41DD74
:104D2000E552E552E552E5525ADD59DD960EE66E42
:104D30001B0EE66EBA0EE66EE66A33DDE552E5520C
:104D4000E552E5524CDD4BDDB60EE66EDB0EE66E4F
:104D5000BA0EE66EE66A25DDE552E552E552E55209
:104D60003EDD3DDDD60EE66EDB0EE66EBA0EE66E7D
:104D7000E66A17DDE552E552E552E55230DD2FDDFA
:104D8000B60EE66E1B0EE66EBA0EE66EE66A09DD3C
:104D9000E552E552E552E55222DD21DD200EE66EB8
:104DA0003C0EE66E880EE66EE66AFBDCE552E552E6
:104DB000E552E55214DD1DDD0D0EF3CFDBFF0E0EC7
:104DC000F4CFDBFF0CDD210EE66E3C0EE66E880EA6
:104DD000E66EE66AE6DCE552E552E552E552FFDCB6
:104DE00008DD0F0EF3CFDBFF100EF4CFDBFFF7DC97
:104DF000220EE66E3C0EE66E880EE66EE66AD1DCAA
:104E0000E552E552E552E552EADCF3DC110EF3CF50
:104E1000DBFF120EF4CFDBFFE2DCFF0EE76E0D0EC0
:104E2000DBCF14F00E0EDBCF15F0E7501416156A29
:104E3000080EDB50EA6A010FE96E010EEA2214C087
:104E4000EFFF080EDB2A0D0EDBCF14F00E0EDBCFCA
:104E500015F0000E1416FF0E151615C014F0156A85
:104E6000080EDB50EA6A010FE96E010EEA2214C057
:104E7000EFFF080EDB2AFF0EE76E0F0EDBCF14F0FC
:104E8000100EDBCF15F0E7501416156A080EDB5034
:104E9000EA6A010FE96E010EEA2214C0EFFF080E64
:104EA000DB2AFF0EE76E110EDBCF14F0120EDBCF04
:104EB00015F0E7501416156A080EDB50EA6A010F68
:104EC000E96E010EEA2214C0EFFF080EDB2A110E74
:104ED000DBCF14F0120EDBCF15F0000E1416FF0E10
:104EE000151615C014F0156A080EDB50EA6A010F9A
:104EF000E96E010EEA2214C0EFFF080EDB2A0F0E46
:104F0000DBCF14F0100EDBCF15F0000E1416FF0EE1
:104F1000151615C014F0156A080EDB50EA6A010F69
:104F2000E96E010EEA2214C0EFFF080EDB2A230E01
:104F3000E66E3C0EE66E880EE66EE66A32DCE55200
:104F4000E552E552E5524BDC54DC0D0EF3CFDBFFAE
:104F50000E0EF4CFDBFF43DC240EE66E3C0EE66E55
:104F6000880EE66EE66A1DDCE552E552E552E55232
:104F700036DC3FDC0F0EF3CFDBFF100EF4CFDBFF90
:104F80002EDC250EE66E3C0EE66E880EE66EE66AB8
:104F900008DCE552E552E552E55221DC2ADC110E2F
:104FA000F3CFDBFF120EF4CFDBFF19DCFF0EE76E51
:104FB0000D0EDBCF14F00E0EDBCF15F0E7501416FC
:104FC000156A080EDB50EA6A010FE96E010EEA224B
:104FD00014C0EFFF080EDB2A0D0EDBCF14F00E0E0F
:104FE000DBCF15F0000E1416FF0E151615C014F0C9
:104FF000156A080EDB50EA6A010FE96E010EEA221B
:1050000014C0EFFF080EDB2AFF0EE76E0F0EDBCF9A
:1050100014F0100EDBCF15F0E7501416156A080EC9
:10502000DB50EA6A010FE96E010EEA2214C0EFFFBD
:10503000080EDB2AFF0EE76E110EDBCF14F0120E06
:10504000DBCF15F0E7501416156A080EDB50EA6A3C
:10505000010FE96E010EEA2214C0EFFF080EDB2AF1
:10506000110EDBCF14F0120EDBCF15F0000E14166C
:10507000FF0E151615C014F0156A080EDB50EA6A0B
:10508000010FE96E010EEA2214C0EFFF080EDB2AC1
:105090000F0EDBCF14F0100EDBCF15F0000E141640
:1050A000FF0E151615C014F0156A080EDB50EA6ADB
:1050B000010FE96E010EEA2214C0EFFF080EDB2A91
:1050C000E66A010EE66E040EE66EE66AD1EC23F0A7
:1050D000E552E552E552E552EFEC23F0040E0101F2
:1050E0004827000E49234A234B23AED50101010E68
:1050F000036F0001605104E10101036B56EC08F0FD
:10510000F56E130EE15C02E2E16AE552E16EF550E4
:10511000E552E7CFD9FF1200D9CFE6FFE1CFD9FFA3
:105120000B0EE126030EDF6E0101520E016F026BC2
:10513000036B3F0E006F4C0EE96E010EEA6E485194
:10514000EE5C4951EE584A51EE584B51EE5803E28D
:105150000001616B72D20001615176E148C114F027
:1051600049C115F04AC116F04BC117F0166A176A0B
:10517000050E14C0DBFF060E15C0DBFF070E16C0C0
:10518000DBFF080E17C0DBFF050EDBCF14F0060EA9
:10519000DBCF15F0070EDBCF16F0080EDBCF17F0D4
:1051A000040E1F0B07E0D890143615361636173646
:1051B000E806F9E1050E14C0DBFF060E15C0DBFFA3
:1051C000070E16C0DBFF080E17C0DBFF27EC08F048
:1051D0000001010E616F1DEC24F0F00EE66E070E6B
:1051E000E66E200EE66EE66AD1EC23F0E552E5525B
:1051F000E552E552900EE66E010EE66E880EE66E02
:10520000E66AD1EC23F0E552E552E552E552050E8F
:10521000DBCF14F0060EDBCF15F0070EDBCF16F058
:10522000080EDBCF17F0060E1412168A14C0E6FF24
:1052300015C0E6FF16C0E6FF17C0E6FFD1EC23F06D
:10524000E552E552E552E552480EE96E010EEA6E6E
:10525000EE5001014C5D146EEE504D59156EEE503E
:105260004E59166EEE504F59176E142A000E152225
:1052700016221722010E14C0DBFF020E15C0DBFF41
:10528000030E16C0DBFF040E17C0DBFF010EDBCFE1
:1052900005F0020EDBCF06F0030EDBCF07F0040EA5
:1052A000DBCF08F00834000E081809E6D880380E65
:1052B0000554000E0654000E0754000E08540CE26C
:1052C000380EF36E010EF3CFDBFF020EDB6A030E26
:1052D000DB6A040EDB6A02D00001616B010EDBCFDA
:1052E00002F1030EDF6EDFCF14F0156A166A176A3B
:1052F000010EDBCF18F0020EDBCF19F0030EDBCF6F
:105300001AF0040EDBCF1BF0030E1826000E192234
:105310001A221B22080E185E000E195A1A5A1B5A1E
:105320001B501718E8AE02D0173408D01450185C80
:105330001550195816501A5817501B5801E273D1BE
:10534000800EE66E030EE66EEB0EE66EE66AD1ECBC
:1053500023F0E552E552E552E552B60EE66E1B0E1D
:10536000E66EBA0EE66EE66AD1EC23F0E552E5523F
:10537000E552E552EFEC23F0EFEC23F0B60EE66ECB
:105380001B0EE66EBA0EE66EE66AD1EC23F0E5522D
:10539000E552E552E552EFEC23F0EFEC23F0B60EC8
:1053A000E66E1B0EE66EBA0EE66EE66AD1EC23F0F0
:1053B000E552E552E552E552EFEC23F0EFEC23F035
:1053C000B60EE66E1B0EE66EBA0EE66EE66AD1EC1F
:1053D00023F0E552E552E552E552EFEC23F0EFEC15
:1053E00023F0200EE66E3C0EE66E880EE66EE66A50
:1053F000D1EC23F0E552E552E552E552EFEC23F013
:10540000F9EC23F0090EF3CFDBFF0A0EF4CFDBFF3C
:10541000FF0EE76E090EDBCF14F00A0EDBCF15F09E
:10542000E7501416156ADF50EA6A010FE96E010EA3
:10543000EA2214C0EFFFDF2A090EDBCF14F00A0EB8
:10544000DBCF15F0000E1416FF0E151615C014F064
:10545000156ADF50EA6A010FE96E010EEA2214C0F4
:10546000EFFFDF2AEFEC23F0210EE66E3C0EE66E36
:10547000880EE66EE66AD1EC23F0E552E552E5527D
:10548000E552EFEC23F0F9EC23F0090EF3CFDBFF4C
:105490000A0EF4CFDBFFFF0EE76E090EDBCF14F030
:1054A0000A0EDBCF15F0E7501416156ADF50EA6AD2
:1054B000010FE96E010EEA2214C0EFFFDF2A090E88
:1054C000DBCF14F00A0EDBCF15F0000E1416FF0E22
:1054D000151615C014F0156ADF50EA6A010FE96E5F
:1054E000010EEA2214C0EFFFDF2AEFEC23F0220EB8
:1054F000E66E3C0EE66E880EE66EE66AD1EC23F0B0
:10550000E552E552E552E552EFEC23F0F9EC23F0D9
:10551000090EF3CFDBFF0A0EF4CFDBFFFF0EE76EC1
:10552000090EDBCF14F00A0EDBCF15F0E75014168E
:10553000156ADF50EA6A010FE96E010EEA2214C013
:10554000EFFFDF2A090EDBCF14F00A0EDBCF15F0D8
:10555000000E1416FF0E151615C014F0156ADF5054
:10556000EA6A010FE96E010EEA2214C0EFFFDF2A9A
:10557000EFEC23F0230EE66E3C0EE66E880EE66E30
:10558000E66AD1EC23F0E552E552E552E552EFEC44
:1055900023F0F9EC23F0090EF3CFDBFF0A0EF4CF72
:1055A000DBFFFF0EE76E090EDBCF14F00A0EDBCF38
:1055B00015F0E7501416156ADF50EA6A010FE96E1C
:1055C000010EEA2214C0EFFFDF2A090EDBCF14F030
:1055D0000A0EDBCF15F0000E1416FF0E151615C0BF
:1055E00014F0156ADF50EA6A010FE96E010EEA2233
:1055F00014C0EFFFDF2AEFEC23F0E66A010EE66E3F
:10560000040EE66EE66AD1EC23F0E552E552E5526F
:10561000E552EFEC23F0080E01014827000E492364
:105620004A234B2360D60101010E036F0001615133
:1056300004E10101036B56EC08F0F56E0B0EE15C22
:1056400002E2E16AE552E16EF550E552E7CFD9FF9B
:1056500012000101026B036B3F0E006F1200D9CFE5
:10566000E6FFE1CFD9FF030EE12627EC08F01DECA1
:1056700024F0800EE66E0F0EE66E200EE66EE66AF1
:10568000D1EC23F0E552E552E552E552900EE66E7C
:10569000010EE66E880EE66EE66AD1EC23F0E55266
:1056A000E552E552E552E66A030EE66EEB0EE66E53
:1056B000E66AD1EC23F0E552E552E552E552800E60
:1056C000E66E030EE66EEB0EE66EE66AD1EC23F0B4
:1056D000E552E552E552E552020EDB6ADBCF14F0EB
:1056E000070EE76E1418E8AE02D0E73402D0E75098
:1056F000145C01E386D0B60EE66E0B0EE66EBA0EB3
:10570000E66EE66AD1EC23F0E552E552E552E55249
:10571000EFEC23F0EFEC23F0200EE66E3C0EE66E8D
:10572000880EE66EE66AD1EC23F0E552E552E552CA
:10573000E552EFEC23F0F9EC23F0F3CFDEFFF4CFEA
:10574000DDFFDECF14F0DDCF15F0FF0E1416000ED6
:105750001516020EDB50040DF350030FE96EEA6AD2
:10576000E9BEEA68010EE926010EEA2214C0EFFF45
:10577000DECF14F0DDCF15F0000E1416FF0E151657
:1057800015C014F0156A020EDB50040DF350040F1F
:10579000E96EEA6AE9BEEA68010EE926010EEA222C
:1057A00014C0EFFF020EDB50040DF350050FE96E3D
:1057B000EA6AE9BEEA68010EE926010EEA22EF6A0A
:1057C000020EDB50040DF350060FE96EEA6AE9BEE3
:1057D000EA68010EE926010EEA22EF6AEFEC23F0F7
:1057E000E66A010EE66E040EE66EE66AD1EC23F080
:1057F000E552E552E552E552EFEC23F0020EDB2ACA
:105800006DD756EC08F0020EDB50040DF3CF02F119
:105810000101036B3F0E006FF56E030EE15C02E2C7
:10582000E16AE552E16EF550E552E7CFD9FF12008B
:105830001AEF2CF027EC08F01DEC24F0510E0001BB
:10584000725D01E0B5D08A0EE66EE66A240EE66E61
:10585000E66AD1EC23F0E552E552E552E5520A0E34
:10586000E66E3B0EE66E880EE66EE66AD1EC23F03D
:10587000E552E552E552E552800EE66E0F0EE66EF9
:10588000200EE66EE66AD1EC23F0E552E552E552D1
:10589000E552900EE66E010EE66E880EE66EE66A42
:1058A000D1EC23F0E552E552E552E552670EE66E83
:1058B000E66A200EE66EE66AD1EC23F0E552E55288
:1058C000E552E552E66A030EE66EEB0EE66EE66A18
:1058D000D1EC23F0E552E552E552E552860EE66E34
:1058E0001B0EE66EBB0EE66EE66AD1EC23F0E552C7
:1058F000E552E552E552580EE66E050EE66E200EB4
:10590000E66EE66AD1EC23F0E552E552E552E55247
:10591000A90EE66E0A0EE66E200EE66EE66AD1EC81
:1059200023F0E552E552E552E552380EE66E3B0EA5
:10593000E66E880EE66EE66AD1EC23F0E552E5529B
:10594000E552E552390EE66E3B0EE66E880EE66EC7
:10595000E66AD1EC23F0E552E552E552E552610EDC
:10596000E66EE70EE66EA80EE66EE66AD1EC23F070
:10597000E552E552E552E552EFEC23F0EFEC23F06F
:10598000020EE66EE66AFDEC05F0E552E552610EA8
:10599000E66EE70EE66EA90EE66EE66AD1EC23F03F
:1059A000E552E552E552E552EFEC23F0EFEC23F03F
:1059B000FA0EE66E070EE66E240EE66EE66AD1EC8F
:1059C00023F0E552E552E552E5520A0EE66E3B0E33
:1059D000E66E880EE66EE66AD1EC23F0E552E552FB
:1059E000E552E552580EE66E050EE66E200EE66EA6
:1059F000E66AD1EC23F0E552E552E552E552380E65
:105A0000E66E3B0EE66E880EE66EE66AD1EC23F09B
:105A1000E552E552E552E552A90EE66E0A0EE66E33
:105A2000200EE66EE66AD1EC23F0E552E552E5522F
:105A3000E552390EE66E3B0EE66E880EE66EE66ABD
:105A4000D1EC23F0E552E552E552E552610EE66EE7
:105A5000E70EE66EA80EE66EE66AD1EC23F0E5529C
:105A6000E552E552E552EFEC23F0EFEC23F0020EA5
:105A7000E66EE66AFDEC05F0E552E552610EE66E73
:105A8000E70EE66EA90EE66EE66AD1EC23F0E5526B
:105A9000E552E552E552EFEC23F0EFEC23F056EF40
:105AA00008F000018751E96EEA6AD890E936EA36D3
:105AB000500EE926010EEA22EECFE2F1EFCFE3F13C
:105AC0000101E46BE56B0001872B8751E96EEA6AFF
:105AD000D890E936EA36500EE926010EEA22EECFDA
